{
  "_format": "hh-sol-artifact-1",
  "contractName": "PokemonNFT",
  "sourceName": "contracts/PokemonNFT.sol",
  "abi": [
    {
      "inputs": [
        {
          "internalType": "string",
          "name": "baseURI",
          "type": "string"
        }
      ],
      "stateMutability": "nonpayable",
      "type": "constructor"
    },
    {
      "anonymous": false,
      "inputs": [
        {
          "indexed": true,
          "internalType": "address",
          "name": "owner",
          "type": "address"
        },
        {
          "indexed": true,
          "internalType": "address",
          "name": "approved",
          "type": "address"
        },
        {
          "indexed": true,
          "internalType": "uint256",
          "name": "tokenId",
          "type": "uint256"
        }
      ],
      "name": "Approval",
      "type": "event"
    },
    {
      "anonymous": false,
      "inputs": [
        {
          "indexed": true,
          "internalType": "address",
          "name": "owner",
          "type": "address"
        },
        {
          "indexed": true,
          "internalType": "address",
          "name": "operator",
          "type": "address"
        },
        {
          "indexed": false,
          "internalType": "bool",
          "name": "approved",
          "type": "bool"
        }
      ],
      "name": "ApprovalForAll",
      "type": "event"
    },
    {
      "anonymous": false,
      "inputs": [
        {
          "indexed": true,
          "internalType": "address",
          "name": "previousOwner",
          "type": "address"
        },
        {
          "indexed": true,
          "internalType": "address",
          "name": "newOwner",
          "type": "address"
        }
      ],
      "name": "OwnershipTransferred",
      "type": "event"
    },
    {
      "anonymous": false,
      "inputs": [
        {
          "indexed": true,
          "internalType": "address",
          "name": "owner",
          "type": "address"
        },
        {
          "indexed": true,
          "internalType": "uint256",
          "name": "tokenId",
          "type": "uint256"
        },
        {
          "indexed": false,
          "internalType": "string",
          "name": "name",
          "type": "string"
        },
        {
          "indexed": false,
          "internalType": "string",
          "name": "gender",
          "type": "string"
        },
        {
          "indexed": false,
          "internalType": "string",
          "name": "pokemonType",
          "type": "string"
        },
        {
          "indexed": false,
          "internalType": "string",
          "name": "spAttack",
          "type": "string"
        },
        {
          "indexed": false,
          "internalType": "string",
          "name": "spDefense",
          "type": "string"
        },
        {
          "indexed": false,
          "internalType": "uint8",
          "name": "level",
          "type": "uint8"
        },
        {
          "indexed": false,
          "internalType": "uint8",
          "name": "hp",
          "type": "uint8"
        },
        {
          "indexed": false,
          "internalType": "uint16",
          "name": "attack",
          "type": "uint16"
        },
        {
          "indexed": false,
          "internalType": "uint16",
          "name": "defense",
          "type": "uint16"
        },
        {
          "indexed": false,
          "internalType": "uint16",
          "name": "speed",
          "type": "uint16"
        },
        {
          "indexed": false,
          "internalType": "uint8",
          "name": "purity",
          "type": "uint8"
        }
      ],
      "name": "PokemonCardMinted",
      "type": "event"
    },
    {
      "anonymous": false,
      "inputs": [
        {
          "indexed": true,
          "internalType": "address",
          "name": "from",
          "type": "address"
        },
        {
          "indexed": true,
          "internalType": "address",
          "name": "to",
          "type": "address"
        },
        {
          "indexed": true,
          "internalType": "uint256",
          "name": "tokenId",
          "type": "uint256"
        }
      ],
      "name": "Transfer",
      "type": "event"
    },
    {
      "inputs": [
        {
          "internalType": "address",
          "name": "to",
          "type": "address"
        },
        {
          "internalType": "uint256",
          "name": "tokenId",
          "type": "uint256"
        }
      ],
      "name": "approve",
      "outputs": [],
      "stateMutability": "nonpayable",
      "type": "function"
    },
    {
      "inputs": [
        {
          "internalType": "address",
          "name": "owner",
          "type": "address"
        }
      ],
      "name": "balanceOf",
      "outputs": [
        {
          "internalType": "uint256",
          "name": "",
          "type": "uint256"
        }
      ],
      "stateMutability": "view",
      "type": "function"
    },
    {
      "inputs": [],
      "name": "boxPrice",
      "outputs": [
        {
          "internalType": "uint256",
          "name": "",
          "type": "uint256"
        }
      ],
      "stateMutability": "view",
      "type": "function"
    },
    {
      "inputs": [
        {
          "internalType": "uint256",
          "name": "tokenId",
          "type": "uint256"
        }
      ],
      "name": "getApproved",
      "outputs": [
        {
          "internalType": "address",
          "name": "",
          "type": "address"
        }
      ],
      "stateMutability": "view",
      "type": "function"
    },
    {
      "inputs": [
        {
          "internalType": "uint256",
          "name": "tokenId",
          "type": "uint256"
        }
      ],
      "name": "getPokemonAttributes",
      "outputs": [
        {
          "components": [
            {
              "internalType": "string",
              "name": "name",
              "type": "string"
            },
            {
              "internalType": "string",
              "name": "gender",
              "type": "string"
            },
            {
              "internalType": "string",
              "name": "pokemonType",
              "type": "string"
            },
            {
              "internalType": "string",
              "name": "spAttack",
              "type": "string"
            },
            {
              "internalType": "string",
              "name": "spDefense",
              "type": "string"
            },
            {
              "internalType": "uint8",
              "name": "level",
              "type": "uint8"
            },
            {
              "internalType": "uint8",
              "name": "hp",
              "type": "uint8"
            },
            {
              "internalType": "uint16",
              "name": "attack",
              "type": "uint16"
            },
            {
              "internalType": "uint16",
              "name": "defense",
              "type": "uint16"
            },
            {
              "internalType": "uint16",
              "name": "speed",
              "type": "uint16"
            },
            {
              "internalType": "uint8",
              "name": "purity",
              "type": "uint8"
            }
          ],
          "internalType": "struct PokemonNFT.PokemonAttributes",
          "name": "",
          "type": "tuple"
        }
      ],
      "stateMutability": "view",
      "type": "function"
    },
    {
      "inputs": [
        {
          "internalType": "address",
          "name": "owner",
          "type": "address"
        },
        {
          "internalType": "address",
          "name": "operator",
          "type": "address"
        }
      ],
      "name": "isApprovedForAll",
      "outputs": [
        {
          "internalType": "bool",
          "name": "",
          "type": "bool"
        }
      ],
      "stateMutability": "view",
      "type": "function"
    },
    {
      "inputs": [
        {
          "internalType": "string",
          "name": "name",
          "type": "string"
        },
        {
          "internalType": "string",
          "name": "gender",
          "type": "string"
        },
        {
          "internalType": "string",
          "name": "pokemonType",
          "type": "string"
        },
        {
          "internalType": "string",
          "name": "spAttack",
          "type": "string"
        },
        {
          "internalType": "string",
          "name": "spDefense",
          "type": "string"
        },
        {
          "internalType": "uint8",
          "name": "level",
          "type": "uint8"
        },
        {
          "internalType": "uint8",
          "name": "hp",
          "type": "uint8"
        },
        {
          "internalType": "uint16",
          "name": "attack",
          "type": "uint16"
        },
        {
          "internalType": "uint16",
          "name": "defense",
          "type": "uint16"
        },
        {
          "internalType": "uint16",
          "name": "speed",
          "type": "uint16"
        },
        {
          "internalType": "uint8",
          "name": "purity",
          "type": "uint8"
        }
      ],
      "name": "mintRandomPokemon",
      "outputs": [],
      "stateMutability": "nonpayable",
      "type": "function"
    },
    {
      "inputs": [],
      "name": "name",
      "outputs": [
        {
          "internalType": "string",
          "name": "",
          "type": "string"
        }
      ],
      "stateMutability": "view",
      "type": "function"
    },
    {
      "inputs": [
        {
          "internalType": "string",
          "name": "name",
          "type": "string"
        },
        {
          "internalType": "string",
          "name": "gender",
          "type": "string"
        },
        {
          "internalType": "string",
          "name": "pokemonType",
          "type": "string"
        },
        {
          "internalType": "string",
          "name": "spAttack",
          "type": "string"
        },
        {
          "internalType": "string",
          "name": "spDefense",
          "type": "string"
        },
        {
          "internalType": "uint8",
          "name": "level",
          "type": "uint8"
        },
        {
          "internalType": "uint8",
          "name": "hp",
          "type": "uint8"
        },
        {
          "internalType": "uint16",
          "name": "attack",
          "type": "uint16"
        },
        {
          "internalType": "uint16",
          "name": "defense",
          "type": "uint16"
        },
        {
          "internalType": "uint16",
          "name": "speed",
          "type": "uint16"
        },
        {
          "internalType": "uint8",
          "name": "purity",
          "type": "uint8"
        },
        {
          "internalType": "bytes",
          "name": "signature",
          "type": "bytes"
        }
      ],
      "name": "openMysteryBox",
      "outputs": [],
      "stateMutability": "payable",
      "type": "function"
    },
    {
      "inputs": [],
      "name": "owner",
      "outputs": [
        {
          "internalType": "address",
          "name": "",
          "type": "address"
        }
      ],
      "stateMutability": "view",
      "type": "function"
    },
    {
      "inputs": [
        {
          "internalType": "uint256",
          "name": "tokenId",
          "type": "uint256"
        }
      ],
      "name": "ownerOf",
      "outputs": [
        {
          "internalType": "address",
          "name": "",
          "type": "address"
        }
      ],
      "stateMutability": "view",
      "type": "function"
    },
    {
      "inputs": [],
      "name": "renounceOwnership",
      "outputs": [],
      "stateMutability": "nonpayable",
      "type": "function"
    },
    {
      "inputs": [
        {
          "internalType": "address",
          "name": "from",
          "type": "address"
        },
        {
          "internalType": "address",
          "name": "to",
          "type": "address"
        },
        {
          "internalType": "uint256",
          "name": "tokenId",
          "type": "uint256"
        }
      ],
      "name": "safeTransferFrom",
      "outputs": [],
      "stateMutability": "nonpayable",
      "type": "function"
    },
    {
      "inputs": [
        {
          "internalType": "address",
          "name": "from",
          "type": "address"
        },
        {
          "internalType": "address",
          "name": "to",
          "type": "address"
        },
        {
          "internalType": "uint256",
          "name": "tokenId",
          "type": "uint256"
        },
        {
          "internalType": "bytes",
          "name": "data",
          "type": "bytes"
        }
      ],
      "name": "safeTransferFrom",
      "outputs": [],
      "stateMutability": "nonpayable",
      "type": "function"
    },
    {
      "inputs": [
        {
          "internalType": "address",
          "name": "operator",
          "type": "address"
        },
        {
          "internalType": "bool",
          "name": "approved",
          "type": "bool"
        }
      ],
      "name": "setApprovalForAll",
      "outputs": [],
      "stateMutability": "nonpayable",
      "type": "function"
    },
    {
      "inputs": [
        {
          "internalType": "string",
          "name": "baseURI",
          "type": "string"
        }
      ],
      "name": "setBaseURI",
      "outputs": [],
      "stateMutability": "nonpayable",
      "type": "function"
    },
    {
      "inputs": [
        {
          "internalType": "address",
          "name": "_signer",
          "type": "address"
        }
      ],
      "name": "setTrustedSigner",
      "outputs": [],
      "stateMutability": "nonpayable",
      "type": "function"
    },
    {
      "inputs": [
        {
          "internalType": "bytes4",
          "name": "interfaceId",
          "type": "bytes4"
        }
      ],
      "name": "supportsInterface",
      "outputs": [
        {
          "internalType": "bool",
          "name": "",
          "type": "bool"
        }
      ],
      "stateMutability": "view",
      "type": "function"
    },
    {
      "inputs": [],
      "name": "symbol",
      "outputs": [
        {
          "internalType": "string",
          "name": "",
          "type": "string"
        }
      ],
      "stateMutability": "view",
      "type": "function"
    },
    {
      "inputs": [
        {
          "internalType": "uint256",
          "name": "tokenId",
          "type": "uint256"
        }
      ],
      "name": "tokenURI",
      "outputs": [
        {
          "internalType": "string",
          "name": "",
          "type": "string"
        }
      ],
      "stateMutability": "view",
      "type": "function"
    },
    {
      "inputs": [
        {
          "internalType": "address",
          "name": "from",
          "type": "address"
        },
        {
          "internalType": "address",
          "name": "to",
          "type": "address"
        },
        {
          "internalType": "uint256",
          "name": "tokenId",
          "type": "uint256"
        }
      ],
      "name": "transferFrom",
      "outputs": [],
      "stateMutability": "nonpayable",
      "type": "function"
    },
    {
      "inputs": [
        {
          "internalType": "address",
          "name": "newOwner",
          "type": "address"
        }
      ],
      "name": "transferOwnership",
      "outputs": [],
      "stateMutability": "nonpayable",
      "type": "function"
    },
    {
      "inputs": [],
      "name": "trustedSigner",
      "outputs": [
        {
          "internalType": "address",
          "name": "",
          "type": "address"
        }
      ],
      "stateMutability": "view",
      "type": "function"
    },
    {
      "inputs": [],
      "name": "withdraw",
      "outputs": [],
      "stateMutability": "nonpayable",
      "type": "function"
    }
  ],
  "bytecode": "0x60806040523461053a57613505803803806100198161053f565b92833981019060208183031261053a578051906001600160401b03821161053a570181601f8201121561053a578051906001600160401b03821161034f5761006a601f8301601f191660200161053f565b928284526020838301011161053a5760005b828110610525578360006020858301015260406100988161053f565b91600a835269141bdad95b5bdb93919560b21b60208401526100b98261053f565b60048152632825a6a760e11b602082015283519092906001600160401b03811161034f57600054600181811c9116801561051b575b602082101461032f57601f81116104b7575b50602094601f821160011461045157948192939495600092610446575b50508160011b916000199060031b1c1916176000555b82516001600160401b03811161034f57600154600181811c9116801561043c575b602082101461032f57601f81116103d7575b506020601f82116001146103705781929394600092610365575b50508160011b916000199060031b1c1916176001555b60068054336001600160a01b0319821681179092556001600160a01b03167f8be0079c531659141344cd1fd0a4f28419497f9722a3daafe3b4186f6b6457e0600080a36001600755662386f26fc10000600d5581516001600160401b03811161034f57600c54600181811c91168015610345575b602082101461032f57601f81116102ca575b50602092601f8211600114610265579281929360009261025a575b50508160011b916000199060031b1c191617600c555b51612fa090816105658239f35b015190508380610237565b601f19821693600c600052806000209160005b8681106102b25750836001959610610299575b505050811b01600c5561024d565b015160001960f88460031b161c1916905583808061028b565b91926020600181928685015181550194019201610278565b600c6000527fdf6966c971051c3d54ec59162606531493a51404a002842f56009d7e5cf4a8c7601f830160051c81019160208410610325575b601f0160051c01905b818110610319575061021c565b6000815560010161030c565b9091508190610303565b634e487b7160e01b600052602260045260246000fd5b90607f169061020a565b634e487b7160e01b600052604160045260246000fd5b015190508480610180565b601f198216906001600052806000209160005b8181106103bf575095836001959697106103a6575b505050811b01600155610196565b015160001960f88460031b161c19169055848080610398565b9192602060018192868b015181550194019201610383565b60016000527fb10e2d527612073b26eecdfd717e6a320cf44b4afac2b0732d9fcbe2b7fa0cf6601f830160051c81019160208410610432575b601f0160051c01905b8181106104265750610166565b60008155600101610419565b9091508190610410565b90607f1690610154565b01519050858061011d565b601f1982169560008052806000209160005b88811061049f57508360019596979810610486575b505050811b01600055610133565b015160001960f88460031b161c19169055858080610478565b91926020600181928685015181550194019201610463565b600080527f290decd9548b62a8d60345a988386fc84ba6bc95484008f6362f93160ef3e563601f830160051c81019160208410610511575b601f0160051c01905b8181106105055750610100565b600081556001016104f8565b90915081906104ef565b90607f16906100ee565b8060208092840101518282870101520161007c565b600080fd5b6040519190601f01601f191682016001600160401b0381118382101761034f5760405256fe61018080604052600436101561001457600080fd5b60003560e01c90816301ffc9a71461226a5750806306fdde03146121c5578063081812fc146121a7578063095ea7b31461201e57806323b872dd14611ffa5780633ccfd60b14611faa57806342842e0e14611f755780634d4a29ef1461153a57806355f804b3146113c757806356a1c701146113845780636352211e1461135457806370a08231146112bd578063715018a6146112605780638da5cb5b14611237578063903369e0146109ea57806395d89b411461091d578063a22cb4651461084b578063a64828581461082d578063af05033c146105d6578063b88d4fde1461054f578063c87b56dd14610279578063e985e9c51461021e578063f2fde38b146101565763f74d54801461012857600080fd5b34610151576000366003190112610151576008546040516001600160a01b039091168152602090f35b600080fd5b346101515760203660031901126101515761016f61231d565b6101776129a6565b6001600160a01b031680156101ca57600680546001600160a01b0319811683179091556001600160a01b03167f8be0079c531659141344cd1fd0a4f28419497f9722a3daafe3b4186f6b6457e0600080a3005b60405162461bcd60e51b815260206004820152602660248201527f4f776e61626c653a206e6577206f776e657220697320746865207a65726f206160448201526564647265737360d01b6064820152608490fd5b346101515760403660031901126101515761023761231d565b61023f612333565b9060018060a01b0316600052600560205260406000209060018060a01b0316600052602052602060ff604060002054166040519015158152f35b34610151576020366003190112610151576004356000818152600260205260409020546102b0906001600160a01b03161515612736565b604051600c5491906000816102c485612496565b91828252602082019560018116908160001461053357506001146104e5575b6102ef9250038261239f565b8051600090156104c7575081908260009372184f03e93ff9f4daa797ed6e38ed64bf6a1f0160401b8110156104a1575b50806d04ee2d6d415b85acef8100000000600a921015610486575b662386f26fc10000811015610472575b6305f5e100811015610461575b612710811015610452575b6064811015610444575b101561043a575b6001830191600a602161039e610388866123c0565b95610396604051978861239f565b8087526123c0565b602086019690601f19013688378501015b60001901916f181899199a1a9b1b9c1cb0b131b232b360811b8282061a8353049081156103de57600a906103af565b50506020610403936104229361041261043697604051978896518092878901906122d5565b850191518093858401906122d5565b010103601f19810183528261239f565b6040519182916020835260208301906122f8565b0390f35b9160010191610373565b60646002910494019361036c565b61271060049104940193610362565b6305f5e10060089104940193610357565b662386f26fc100006010910494019361034a565b6d04ee2d6d415b85acef81000000006020910494019361033a565b6040945072184f03e93ff9f4daa797ed6e38ed64bf6a1f0160401b90049050600a61031f565b9150506104369150604051906104de60208361239f565b8152610422565b50600c60009081529091600080516020612f2b8339815191525b8183106105175750509060206102ef928201016102e3565b60209193508060019154838588010152019101909183926104ff565b60ff19168752506102ef92151560051b820160200190506102e3565b346101515760803660031901126101515761056861231d565b610570612333565b90606435906044356001600160401b0383116101515736602384011215610151576105d4936105ac6105cf9436906024816004013591016123db565b926105bf6105ba84336127a5565b6125b2565b6105ca838383612878565b612e05565b612b6e565b005b346101515760203660031901126101515760043560006101406040516105fb81612383565b606081526060602082015260606040820152606080820152606060808201528260a08201528260c08201528260e08201528261010082015282610120820152015261065b81600052600260205260018060a01b0360406000205416151590565b156107f1576000526009602052604060002060405161067981612383565b610682826124d0565b8152610690600183016124d0565b60208201908152916106a4600282016124d0565b604083019081526106b7600383016124d0565b60608401908152906106cb600484016124d0565b9260808501938452600501549160a085019360ff8416855260c086018460081c60ff16815260e08701918560101c61ffff1683526101008801938660201c61ffff1685526101208901958760301c61ffff1687526101408a019760401c60ff1688526040519a8b9a60208c525160208c0161016090526101808c0161074f916122f8565b90518b8203601f190160408d015261076791906122f8565b90518a8203601f190160608c015261077f91906122f8565b9051898203601f190160808b015261079791906122f8565b9051888203601f190160a08a01526107af91906122f8565b955160ff1660c08801525160ff1660e08701525161ffff166101008601525161ffff166101208501525161ffff166101408401525160ff166101608301520390f35b60405162461bcd60e51b8152602060048201526014602482015273151bdad95b88191bd95cc81b9bdd08195e1a5cdd60621b6044820152606490fd5b34610151576000366003190112610151576020600d54604051908152f35b346101515760403660031901126101515761086461231d565b60243590811515809203610151576001600160a01b0316903382146108d857336000526005602052604060002082600052602052604060002060ff1981541660ff83161790556040519081527f17307eab39ab6107e8899845ad3d59bd9653f200f220920489ca2b5937696c3160203392a3005b60405162461bcd60e51b815260206004820152601960248201527f4552433732313a20617070726f766520746f2063616c6c6572000000000000006044820152606490fd5b3461015157600036600319011261015157604051600060015461093f81612496565b80845290600181169081156109c65750600114610967575b610436836104228185038261239f565b600160009081527fb10e2d527612073b26eecdfd717e6a320cf44b4afac2b0732d9fcbe2b7fa0cf6939250905b8082106109ac57509091508101602001610422610957565b919260018160209254838588010152019101909291610994565b60ff191660208086019190915291151560051b840190910191506104229050610957565b3461015157610160366003190112610151576004356001600160401b03811161015157610a1b903690600401612412565b60e0526024356001600160401b03811161015157610a3d903690600401612412565b6080526044356001600160401b03811161015157610a5f903690600401612412565b60c0526064356001600160401b03811161015157610a81903690600401612412565b6084356001600160401b03811161015157610aa0903690600401612412565b90610aa9612430565b610ab1612440565b90610aba612461565b610ac2612472565b610aca612484565b90610ad3612450565b92610adc6129a6565b610ae7600a54612614565b6101005261010051600a55610aff61010051336129fe565b604051610b0b81612383565b60e0518152608051602082015260c051604082015287606082015288608082015260ff861660a082015260ff871660c082015261ffff821660e082015261ffff831661010082015261ffff841661012082015260ff8516610140820152610100516000526009602052604060002081518051906001600160401b038211610eee578190610b988454612496565b601f81116111e7575b50602090601f831160011461117c57600092611171575b50508160011b916000199060031b1c19161781555b60208201518051906001600160401b038211610eee578190610bf26001850154612496565b601f811161111e575b50602090601f83116001146110ad576000926110a2575b50508160011b916000199060031b1c19161760018201555b60408201518051906001600160401b038211610eee578190610c4f6002850154612496565b601f811161104f575b50602090601f8311600114610fde57600092610fd3575b50508160011b916000199060031b1c19161760028201555b60608201518051906001600160401b038211610eee578190610cac6003850154612496565b601f8111610f80575b50602090601f8311600114610f0f57600092610f04575b50508160011b916000199060031b1c19161760038201555b60808201518051906001600160401b038211610eee57610d076004840154612496565b601f8111610ea7575b50602090601f8311600114610e1c579282600080516020612f4b8339815191529b9a99979593600593610e0c9a9896600092610e11575b50508160011b916000199060031b1c19161760048201555b019060ff60a0820151169082549161ff0060c083015160081b169263ffff000060e084015160101b1665ffff0000000061010085015160201b169260ff60401b61014061ffff60301b61012088015160301b1696015160401b169560ff60401b199361ffff60301b199265ffff00000000199163ffffffff19161716171617161717179055610df061010051612639565b604051968796610100519b339b60c05160805160e0518c61269c565b0390a3005b015190508f80610d47565b9060048401600052806000209160005b601f1985168110610e8f575083600593610e0c9a989693600193600080516020612f4b8339815191529f9e9d9b9997601f19811610610e76575b505050811b016004820155610d5f565b015160001960f88460031b161c191690558f8080610e66565b91926020600181928685015181550194019201610e2c565b600484016000526020600020601f840160051c810160208510610ee7575b601f830160051c82018110610edb575050610d10565b60008155600101610ec5565b5080610ec5565b634e487b7160e01b600052604160045260246000fd5b015190508c80610ccc565b92506003840160005280600020906000935b601f1984168510610f65576001945083601f19811610610f4c575b505050811b016003820155610ce4565b015160001960f88460031b161c191690558c8080610f3c565b81810151835560209485019460019093019290910190610f21565b909150600384016000526020600020601f840160051c810160208510610fcc575b90849392915b601f830160051c82018110610fbd575050610cb5565b60008155859450600101610fa7565b5080610fa1565b015190508c80610c6f565b92506002840160005280600020906000935b601f1984168510611034576001945083601f1981161061101b575b505050811b016002820155610c87565b015160001960f88460031b161c191690558c808061100b565b81810151835560209485019460019093019290910190610ff0565b909150600284016000526020600020601f840160051c81016020851061109b575b90849392915b601f830160051c8201811061108c575050610c58565b60008155859450600101611076565b5080611070565b015190508c80610c12565b92506001840160005280600020906000935b601f1984168510611103576001945083601f198116106110ea575b505050811b016001820155610c2a565b015160001960f88460031b161c191690558c80806110da565b818101518355602094850194600190930192909101906110bf565b909150600184016000526020600020601f840160051c81016020851061116a575b90849392915b601f830160051c8201811061115b575050610bfb565b60008155859450600101611145565b508061113f565b015190508c80610bb8565b92508360005280600020906000935b601f19841685106111cc576001945083601f198116106111b3575b505050811b018155610bcd565b015160001960f88460031b161c191690558c80806111a6565b8181015183556020948501946001909301929091019061118b565b909150836000526020600020601f840160051c810160208510611230575b90849392915b601f830160051c82018110611221575050610ba1565b6000815585945060010161120b565b5080611205565b34610151576000366003190112610151576006546040516001600160a01b039091168152602090f35b34610151576000366003190112610151576112796129a6565b600680546001600160a01b031981169091556000906001600160a01b03167f8be0079c531659141344cd1fd0a4f28419497f9722a3daafe3b4186f6b6457e08280a3005b34610151576020366003190112610151576001600160a01b036112de61231d565b1680156112fd5760005260036020526020604060002054604051908152f35b60405162461bcd60e51b815260206004820152602960248201527f4552433732313a2061646472657373207a65726f206973206e6f7420612076616044820152683634b21037bbb732b960b91b6064820152608490fd5b34610151576020366003190112610151576020611372600435612782565b6040516001600160a01b039091168152f35b346101515760203660031901126101515761139d61231d565b6113a56129a6565b600880546001600160a01b0319166001600160a01b0392909216919091179055005b34610151576020366003190112610151576004356001600160401b038111610151576113f7903690600401612412565b6113ff6129a6565b80516001600160401b038111610eee5761141a600c54612496565b601f81116114cd575b50602091601f821160011461146157918192600092611456575b5050600019600383901b1c191660019190911b17600c55005b01519050828061143d565b601f19821692600c600052600080516020612f2b8339815191529160005b8581106114b55750836001951061149c575b505050811b01600c55005b015160001960f88460031b161c19169055828080611491565b9192602060018192868501518155019401920161147f565b600c600052601f820160051c600080516020612f2b833981519152019060208310611524575b601f0160051c600080516020612f2b83398151915201905b8181106115185750611423565b6000815560010161150b565b600080516020612f2b83398151915291506114f3565b610180366003190112610151576004356001600160401b03811161015157611566903690600401612412565b610140526024356001600160401b03811161015157611589903690600401612412565b60a0526044356001600160401b038111610151576115ab903690600401612412565b610120526064356001600160401b038111610151576115ce903690600401612412565b6084356001600160401b038111610151576115ed903690600401612412565b906115f6612430565b6115fe612440565b90611607612461565b61160f612472565b611617612484565b90611620612450565b92610164356001600160401b0381116101515736602382011215610151578060040135906001600160401b03821161015157366024838301011161015157600d543403611f3c576117aa9161179c6117a2928b60206117628f6009908f8f908f908f908f908f90604051998a976116f782808b019e8f3360601b90526116e960348d6101405151906116ba828483018861014051016122d5565b0160a05151906116d1828483018860a051016122d5565b01016101205151906116e982828761012051016122d5565b0191828151948592016122d5565b019560ff60f81b9060f81b16865260ff60f81b9060f81b16600186015261ffff60f01b9060f01b16600285015261ffff60f01b9060f01b16600484015261ffff60f01b9060f01b16600683015260ff60f81b9060f81b1660088201520360161981018452018261239f565b5190207f19457468657265756d205369676e6564204d6573736167653a0a333200000000600052601c52603c6000209260243692016123db565b90612b92565b919091612bca565b6008546001600160a01b03908116911603611f03576117ca600a54612614565b6101605261016051600a556117e261016051336129fe565b6040516117ee81612383565b61014051815260a051602082015261012051604082015287606082015288608082015260ff861660a082015260ff871660c082015261ffff821660e082015261ffff831661010082015261ffff841661012082015260ff8516610140820152610160516000526009602052604060002081518051906001600160401b038211610eee57819061187d8454612496565b601f8111611eb3575b50602090601f8311600114611e4857600092611e3d575b50508160011b916000199060031b1c19161781555b60208201518051906001600160401b038211610eee5781906118d76001850154612496565b601f8111611dea575b50602090601f8311600114611d7957600092611d6e575b50508160011b916000199060031b1c19161760018201555b60408201518051906001600160401b038211610eee5781906119346002850154612496565b601f8111611d1b575b50602090601f8311600114611caa57600092611c9f575b50508160011b916000199060031b1c19161760028201555b60608201518051906001600160401b038211610eee5781906119916003850154612496565b601f8111611c4c575b50602090601f8311600114611bdb57600092611bd0575b50508160011b916000199060031b1c19161760038201555b60808201518051906001600160401b038211610eee576119ec6004840154612496565b601f8111611b89575b50602090601f8311600114611afe579282600080516020612f4b8339815191529b9a99979593600593610e0c9a9896600092611af3575b50508160011b916000199060031b1c19161760048201555b019060ff60a0820151169082549161ff0060c083015160081b169263ffff000060e084015160101b1665ffff0000000061010085015160201b169260ff60401b61014061ffff60301b61012088015160301b1696015160401b169560ff60401b199361ffff60301b199265ffff00000000199163ffffffff19161716171617161717179055611ad561016051612639565b604051968796610160519b339b6101205160a051610140518c61269c565b015190508f80611a2c565b9060048401600052806000209160005b601f1985168110611b71575083600593610e0c9a989693600193600080516020612f4b8339815191529f9e9d9b9997601f19811610611b58575b505050811b016004820155611a44565b015160001960f88460031b161c191690558f8080611b48565b91926020600181928685015181550194019201611b0e565b600484016000526020600020601f840160051c810160208510611bc9575b601f830160051c82018110611bbd5750506119f5565b60008155600101611ba7565b5080611ba7565b015190508c806119b1565b92506003840160005280600020906000935b601f1984168510611c31576001945083601f19811610611c18575b505050811b0160038201556119c9565b015160001960f88460031b161c191690558c8080611c08565b81810151835560209485019460019093019290910190611bed565b909150600384016000526020600020601f840160051c810160208510611c98575b90849392915b601f830160051c82018110611c8957505061199a565b60008155859450600101611c73565b5080611c6d565b015190508c80611954565b92506002840160005280600020906000935b601f1984168510611d00576001945083601f19811610611ce7575b505050811b01600282015561196c565b015160001960f88460031b161c191690558c8080611cd7565b81810151835560209485019460019093019290910190611cbc565b909150600284016000526020600020601f840160051c810160208510611d67575b90849392915b601f830160051c82018110611d5857505061193d565b60008155859450600101611d42565b5080611d3c565b015190508c806118f7565b92506001840160005280600020906000935b601f1984168510611dcf576001945083601f19811610611db6575b505050811b01600182015561190f565b015160001960f88460031b161c191690558c8080611da6565b81810151835560209485019460019093019290910190611d8b565b909150600184016000526020600020601f840160051c810160208510611e36575b90849392915b601f830160051c82018110611e275750506118e0565b60008155859450600101611e11565b5080611e0b565b015190508c8061189d565b92508360005280600020906000935b601f1984168510611e98576001945083601f19811610611e7f575b505050811b0181556118b2565b015160001960f88460031b161c191690558c8080611e72565b81810151835560209485019460019093019290910190611e57565b909150836000526020600020601f840160051c810160208510611efc575b90849392915b601f830160051c82018110611eed575050611886565b60008155859450600101611ed7565b5080611ed1565b60405162461bcd60e51b8152602060048201526011602482015270496e76616c6964207369676e617475726560781b6044820152606490fd5b60405162461bcd60e51b8152602060048201526011602482015270125b98dbdc9c9958dd081c185e5b595b9d607a1b6044820152606490fd5b34610151576105d46105cf611f8936612349565b9060405192611f9960208561239f565b600084526105bf6105ba84336127a5565b3461015157600036600319011261015157611fc36129a6565b600080808060018060a01b03600654164790828215611ff1575bf115611fe557005b6040513d6000823e3d90fd5b506108fc611fdd565b34610151576105d461200b36612349565b916120196105ba84336127a5565b612878565b346101515760403660031901126101515761203761231d565b602435906001600160a01b0361204c83612782565b6001600160a01b03909216911681811461215857803314908115612133575b50156120c857600082815260046020526040902080546001600160a01b031916821790556001600160a01b036120a083612782565b167f8c5be1e5ebec7d5bd14f71427d1e84f3dd0314c0f7b2291e5b200ac8c7c3b925600080a4005b60405162461bcd60e51b815260206004820152603d60248201527f4552433732313a20617070726f76652063616c6c6572206973206e6f7420746f60448201527f6b656e206f776e6572206f7220617070726f76656420666f7220616c6c0000006064820152608490fd5b600090815260056020908152604080832033845290915290205460ff1690508361206b565b60405162461bcd60e51b815260206004820152602160248201527f4552433732313a20617070726f76616c20746f2063757272656e74206f776e656044820152603960f91b6064820152608490fd5b34610151576020366003190112610151576020611372600435612574565b3461015157600036600319011261015157604051600080546121e681612496565b80845290600181169081156109c6575060011461220d57610436836104228185038261239f565b60008080527f290decd9548b62a8d60345a988386fc84ba6bc95484008f6362f93160ef3e563939250905b80821061225057509091508101602001610422610957565b919260018160209254838588010152019101909291612238565b34610151576020366003190112610151576004359063ffffffff60e01b8216809203610151576020916380ac58cd60e01b81149081156122c4575b81156122b3575b5015158152f35b6301ffc9a760e01b149050836122ac565b635b5e139f60e01b811491506122a5565b60005b8381106122e85750506000910152565b81810151838201526020016122d8565b90602091612311815180928185528580860191016122d5565b601f01601f1916010190565b600435906001600160a01b038216820361015157565b602435906001600160a01b038216820361015157565b6060906003190112610151576004356001600160a01b038116810361015157906024356001600160a01b0381168103610151579060443590565b61016081019081106001600160401b03821117610eee57604052565b90601f801991011681019081106001600160401b03821117610eee57604052565b6001600160401b038111610eee57601f01601f191660200190565b9291926123e7826123c0565b916123f5604051938461239f565b829481845281830111610151578281602093846000960137010152565b9080601f830112156101515781602061242d933591016123db565b90565b60a4359060ff8216820361015157565b60c4359060ff8216820361015157565b610144359060ff8216820361015157565b60e4359061ffff8216820361015157565b610104359061ffff8216820361015157565b610124359061ffff8216820361015157565b90600182811c921680156124c6575b60208310146124b057565b634e487b7160e01b600052602260045260246000fd5b91607f16916124a5565b90604051918260008254926124e484612496565b8084529360018116908115612552575060011461250b575b506125099250038361239f565b565b90506000929192526020600020906000915b81831061253657505090602061250992820101386124fc565b602091935080600191548385890101520191019091849261251d565b90506020925061250994915060ff191682840152151560051b820101386124fc565b600081815260026020526040902054612597906001600160a01b03161515612736565b6000908152600460205260409020546001600160a01b031690565b156125b957565b60405162461bcd60e51b815260206004820152602d60248201527f4552433732313a2063616c6c6572206973206e6f7420746f6b656e206f776e6560448201526c1c881bdc88185c1c1c9bdd9959609a1b6064820152608490fd5b60001981146126235760010190565b634e487b7160e01b600052601160045260246000fd5b600b5468010000000000000000811015610eee576001810180600b5581101561268657600b6000527f0175b7a638427703f0dbe7bb9bbf987a2551717b34e79f33b5b1008d1fa01db90155565b634e487b7160e01b600052603260045260246000fd5b999461ffff969c9b9760ff61270f8d829c95946127016101409f999a6126f38e9c6126e58e9c6126d78a9c6101608a526101608a01906122f8565b9088820360208a01526122f8565b9086820360408801526122f8565b9084820360608601526122f8565b9160808184039101526122f8565b9e1660a08d01521660c08b01521660e0890152166101008701521661012085015216910152565b1561273d57565b60405162461bcd60e51b815260206004820152601860248201527f4552433732313a20696e76616c696420746f6b656e20494400000000000000006044820152606490fd5b6000908152600260205260409020546001600160a01b031661242d811515612736565b906001600160a01b036127b782612782565b6001600160a01b03909316921682811492919083156127f7575b5082156127dd57505090565b9091506001600160a01b03906127f290612574565b161490565b909250600052600560205260406000208160005260205260ff6040600020541691386127d1565b1561282557565b60405162461bcd60e51b815260206004820152602560248201527f4552433732313a207472616e736665722066726f6d20696e636f72726563742060448201526437bbb732b960d91b6064820152608490fd5b9061289961288584612782565b6001600160a01b039384169316831461281e565b6001600160a01b0316908115612955576128c5816001600160a01b036128be86612782565b161461281e565b82600052600460205260406000206001600160601b0360a01b8154169055806000526003602052604060002060001981540190558160005260036020526040600020600181540190558260005260026020526040600020826001600160601b0360a01b8254161790557fddf252ad1be2c89b69c2b068fc378daa952ba7f163c4a11628f55a4df523b3ef600080a4565b60405162461bcd60e51b8152602060048201526024808201527f4552433732313a207472616e7366657220746f20746865207a65726f206164646044820152637265737360e01b6064820152608490fd5b6006546001600160a01b031633036129ba57565b606460405162461bcd60e51b815260206004820152602060248201527f4f776e61626c653a2063616c6c6572206973206e6f7420746865206f776e65726044820152fd5b60405191906020612a0f818561239f565b600084526001600160a01b038216908115612ad8579183809260026125099795612a5a612a546105cf99600052600260205260018060a01b0360406000205416151590565b15612ede565b600084815260026020526040902054612a7d906001600160a01b03161515612a54565b826000526003815260406000206001815401905583600052526040600020816001600160601b0360a01b82541617905560007fddf252ad1be2c89b69c2b068fc378daa952ba7f163c4a11628f55a4df523b3ef8180a4612ce4565b6064906040519062461bcd60e51b825280600483015260248201527f4552433732313a206d696e7420746f20746865207a65726f20616464726573736044820152fd5b60809060208152603260208201527f4552433732313a207472616e7366657220746f206e6f6e20455243373231526560408201527131b2b4bb32b91034b6b83632b6b2b73a32b960711b60608201520190565b15612b7557565b60405162461bcd60e51b815280612b8e60048201612b1b565b0390fd5b906041815114600014612bc057612bbc916020820151906060604084015193015160001a90612e5e565b9091565b5050600090600290565b6005811015612cce5780612bdb5750565b60018103612c285760405162461bcd60e51b815260206004820152601860248201527f45434453413a20696e76616c6964207369676e617475726500000000000000006044820152606490fd5b60028103612c755760405162461bcd60e51b815260206004820152601f60248201527f45434453413a20696e76616c6964207369676e6174757265206c656e677468006044820152606490fd5b600314612c7e57565b60405162461bcd60e51b815260206004820152602260248201527f45434453413a20696e76616c6964207369676e6174757265202773272076616c604482015261756560f01b6064820152608490fd5b634e487b7160e01b600052602160045260246000fd5b91823b15612dfd57612d2a926020926000604051809681958294630a85bd0160e11b845233600485015284602485015260448401526080606484015260848301906122f8565b03926001600160a01b03165af18091600091612db3575b5090612d9d573d15612d96573d612d57816123c0565b90612d65604051928361239f565b81523d6000602083013e5b80519081612d915760405162461bcd60e51b815280612b8e60048201612b1b565b602001fd5b6060612d70565b6001600160e01b031916630a85bd0160e11b1490565b6020813d602011612df5575b81612dcc6020938361239f565b81010312612df15751906001600160e01b031982168203612dee575038612d41565b80fd5b5080fd5b3d9150612dbf565b505050600190565b919290803b15612e5557612d2a93600060209460405196879586948593630a85bd0160e11b855233600486015260018060a01b0316602485015260448401526080606484015260848301906122f8565b50505050600190565b7f7fffffffffffffffffffffffffffffff5d576e7357a4501ddfe92f46681b20a08411612ed25760209360009360ff60809460405194855216868401526040830152606082015282805260015afa15611fe5576000516001600160a01b03811615612ec95790600090565b50600090600190565b50505050600090600390565b15612ee557565b60405162461bcd60e51b815260206004820152601c60248201527f4552433732313a20746f6b656e20616c7265616479206d696e746564000000006044820152606490fdfedf6966c971051c3d54ec59162606531493a51404a002842f56009d7e5cf4a8c7aaceb5242f61266f098c381432daaefa6889a0d47114da291ed93039c30c09b2a2646970667358221220aecf4aadb20d62e398a627d58566714d7a962b30ccc7e19de8e2ab3009f9f89b64736f6c634300081c0033",
  "linkReferences": {},
  "deployedLinkReferences": {}
}