{
  "_format": "hh-sol-artifact-1",
  "contractName": "TradingWithAuctions",
  "sourceName": "contracts/Trading_w_auctions.sol",
  "abi": [
    {
      "anonymous": false,
      "inputs": [
        {
          "indexed": true,
          "internalType": "address",
          "name": "nft",
          "type": "address"
        },
        {
          "indexed": true,
          "internalType": "uint256",
          "name": "tokenId",
          "type": "uint256"
        },
        {
          "indexed": true,
          "internalType": "address",
          "name": "winner",
          "type": "address"
        },
        {
          "indexed": false,
          "internalType": "uint256",
          "name": "finalPrice",
          "type": "uint256"
        }
      ],
      "name": "AuctionFinalized",
      "type": "event"
    },
    {
      "anonymous": false,
      "inputs": [
        {
          "indexed": true,
          "internalType": "address",
          "name": "nft",
          "type": "address"
        },
        {
          "indexed": true,
          "internalType": "uint256",
          "name": "tokenId",
          "type": "uint256"
        },
        {
          "indexed": true,
          "internalType": "address",
          "name": "seller",
          "type": "address"
        }
      ],
      "name": "Cancelled",
      "type": "event"
    },
    {
      "anonymous": false,
      "inputs": [
        {
          "indexed": true,
          "internalType": "address",
          "name": "nft",
          "type": "address"
        },
        {
          "indexed": true,
          "internalType": "uint256",
          "name": "tokenId",
          "type": "uint256"
        },
        {
          "indexed": true,
          "internalType": "address",
          "name": "seller",
          "type": "address"
        },
        {
          "indexed": false,
          "internalType": "uint256",
          "name": "price",
          "type": "uint256"
        },
        {
          "indexed": false,
          "internalType": "enum TradingWithAuctions.SaleType",
          "name": "saleType",
          "type": "uint8"
        },
        {
          "indexed": false,
          "internalType": "uint256",
          "name": "endTime",
          "type": "uint256"
        }
      ],
      "name": "Listed",
      "type": "event"
    },
    {
      "anonymous": false,
      "inputs": [
        {
          "indexed": true,
          "internalType": "address",
          "name": "nft",
          "type": "address"
        },
        {
          "indexed": true,
          "internalType": "uint256",
          "name": "tokenId",
          "type": "uint256"
        },
        {
          "indexed": true,
          "internalType": "address",
          "name": "bidder",
          "type": "address"
        },
        {
          "indexed": false,
          "internalType": "uint256",
          "name": "amount",
          "type": "uint256"
        }
      ],
      "name": "NewBid",
      "type": "event"
    },
    {
      "anonymous": false,
      "inputs": [
        {
          "indexed": true,
          "internalType": "address",
          "name": "previousOwner",
          "type": "address"
        },
        {
          "indexed": true,
          "internalType": "address",
          "name": "newOwner",
          "type": "address"
        }
      ],
      "name": "OwnershipTransferred",
      "type": "event"
    },
    {
      "anonymous": false,
      "inputs": [
        {
          "indexed": true,
          "internalType": "address",
          "name": "nft",
          "type": "address"
        },
        {
          "indexed": true,
          "internalType": "uint256",
          "name": "tokenId",
          "type": "uint256"
        },
        {
          "indexed": true,
          "internalType": "address",
          "name": "buyer",
          "type": "address"
        },
        {
          "indexed": false,
          "internalType": "uint256",
          "name": "price",
          "type": "uint256"
        }
      ],
      "name": "Purchase",
      "type": "event"
    },
    {
      "inputs": [],
      "name": "MAX_PRICE",
      "outputs": [
        {
          "internalType": "uint256",
          "name": "",
          "type": "uint256"
        }
      ],
      "stateMutability": "view",
      "type": "function"
    },
    {
      "inputs": [
        {
          "internalType": "address",
          "name": "nftContract",
          "type": "address"
        },
        {
          "internalType": "uint256",
          "name": "tokenId",
          "type": "uint256"
        }
      ],
      "name": "buyItem",
      "outputs": [],
      "stateMutability": "payable",
      "type": "function"
    },
    {
      "inputs": [
        {
          "internalType": "address",
          "name": "nftContract",
          "type": "address"
        },
        {
          "internalType": "uint256",
          "name": "tokenId",
          "type": "uint256"
        }
      ],
      "name": "cancelListing",
      "outputs": [],
      "stateMutability": "nonpayable",
      "type": "function"
    },
    {
      "inputs": [
        {
          "internalType": "address",
          "name": "nftAddress",
          "type": "address"
        },
        {
          "internalType": "uint256",
          "name": "tokenId",
          "type": "uint256"
        }
      ],
      "name": "finalizeAuction",
      "outputs": [],
      "stateMutability": "nonpayable",
      "type": "function"
    },
    {
      "inputs": [
        {
          "internalType": "address",
          "name": "nftAddress",
          "type": "address"
        }
      ],
      "name": "getAllListedTokenIds",
      "outputs": [
        {
          "internalType": "uint256[]",
          "name": "",
          "type": "uint256[]"
        }
      ],
      "stateMutability": "view",
      "type": "function"
    },
    {
      "inputs": [
        {
          "internalType": "address",
          "name": "seller",
          "type": "address"
        }
      ],
      "name": "getListedTokenIds",
      "outputs": [
        {
          "internalType": "uint256[]",
          "name": "",
          "type": "uint256[]"
        }
      ],
      "stateMutability": "view",
      "type": "function"
    },
    {
      "inputs": [
        {
          "internalType": "address",
          "name": "",
          "type": "address"
        }
      ],
      "name": "isBlacklisted",
      "outputs": [
        {
          "internalType": "bool",
          "name": "",
          "type": "bool"
        }
      ],
      "stateMutability": "view",
      "type": "function"
    },
    {
      "inputs": [
        {
          "internalType": "address",
          "name": "nftContract",
          "type": "address"
        },
        {
          "internalType": "uint256",
          "name": "tokenId",
          "type": "uint256"
        },
        {
          "internalType": "uint256",
          "name": "price",
          "type": "uint256"
        },
        {
          "internalType": "enum TradingWithAuctions.SaleType",
          "name": "saleType",
          "type": "uint8"
        },
        {
          "internalType": "uint256",
          "name": "endTime",
          "type": "uint256"
        }
      ],
      "name": "listItem",
      "outputs": [],
      "stateMutability": "nonpayable",
      "type": "function"
    },
    {
      "inputs": [
        {
          "internalType": "uint256",
          "name": "",
          "type": "uint256"
        }
      ],
      "name": "listedNFTContracts",
      "outputs": [
        {
          "internalType": "address",
          "name": "",
          "type": "address"
        }
      ],
      "stateMutability": "view",
      "type": "function"
    },
    {
      "inputs": [
        {
          "internalType": "address",
          "name": "",
          "type": "address"
        },
        {
          "internalType": "uint256",
          "name": "",
          "type": "uint256"
        }
      ],
      "name": "listedTokenIds",
      "outputs": [
        {
          "internalType": "uint256",
          "name": "",
          "type": "uint256"
        }
      ],
      "stateMutability": "view",
      "type": "function"
    },
    {
      "inputs": [
        {
          "internalType": "address",
          "name": "",
          "type": "address"
        },
        {
          "internalType": "uint256",
          "name": "",
          "type": "uint256"
        }
      ],
      "name": "listings",
      "outputs": [
        {
          "internalType": "address",
          "name": "seller",
          "type": "address"
        },
        {
          "internalType": "enum TradingWithAuctions.SaleType",
          "name": "saleType",
          "type": "uint8"
        },
        {
          "internalType": "uint256",
          "name": "price",
          "type": "uint256"
        },
        {
          "internalType": "uint256",
          "name": "endTime",
          "type": "uint256"
        },
        {
          "internalType": "address",
          "name": "highestBidder",
          "type": "address"
        },
        {
          "internalType": "uint256",
          "name": "highestBid",
          "type": "uint256"
        }
      ],
      "stateMutability": "view",
      "type": "function"
    },
    {
      "inputs": [
        {
          "internalType": "address",
          "name": "",
          "type": "address"
        },
        {
          "internalType": "address",
          "name": "",
          "type": "address"
        },
        {
          "internalType": "uint256",
          "name": "",
          "type": "uint256"
        },
        {
          "internalType": "bytes",
          "name": "",
          "type": "bytes"
        }
      ],
      "name": "onERC721Received",
      "outputs": [
        {
          "internalType": "bytes4",
          "name": "",
          "type": "bytes4"
        }
      ],
      "stateMutability": "nonpayable",
      "type": "function"
    },
    {
      "inputs": [],
      "name": "owner",
      "outputs": [
        {
          "internalType": "address",
          "name": "",
          "type": "address"
        }
      ],
      "stateMutability": "view",
      "type": "function"
    },
    {
      "inputs": [],
      "name": "paused",
      "outputs": [
        {
          "internalType": "bool",
          "name": "",
          "type": "bool"
        }
      ],
      "stateMutability": "view",
      "type": "function"
    },
    {
      "inputs": [
        {
          "internalType": "address",
          "name": "nftContract",
          "type": "address"
        },
        {
          "internalType": "uint256",
          "name": "tokenId",
          "type": "uint256"
        }
      ],
      "name": "placeBid",
      "outputs": [],
      "stateMutability": "payable",
      "type": "function"
    },
    {
      "inputs": [],
      "name": "renounceOwnership",
      "outputs": [],
      "stateMutability": "nonpayable",
      "type": "function"
    },
    {
      "inputs": [
        {
          "internalType": "address",
          "name": "user",
          "type": "address"
        },
        {
          "internalType": "bool",
          "name": "value",
          "type": "bool"
        }
      ],
      "name": "setBlacklist",
      "outputs": [],
      "stateMutability": "nonpayable",
      "type": "function"
    },
    {
      "inputs": [
        {
          "internalType": "bool",
          "name": "_paused",
          "type": "bool"
        }
      ],
      "name": "setPaused",
      "outputs": [],
      "stateMutability": "nonpayable",
      "type": "function"
    },
    {
      "inputs": [
        {
          "internalType": "uint256",
          "name": "fee",
          "type": "uint256"
        }
      ],
      "name": "setTradingFee",
      "outputs": [],
      "stateMutability": "nonpayable",
      "type": "function"
    },
    {
      "inputs": [],
      "name": "tradingFee",
      "outputs": [
        {
          "internalType": "uint256",
          "name": "",
          "type": "uint256"
        }
      ],
      "stateMutability": "view",
      "type": "function"
    },
    {
      "inputs": [
        {
          "internalType": "address",
          "name": "newOwner",
          "type": "address"
        }
      ],
      "name": "transferOwnership",
      "outputs": [],
      "stateMutability": "nonpayable",
      "type": "function"
    },
    {
      "inputs": [],
      "name": "withdraw",
      "outputs": [],
      "stateMutability": "nonpayable",
      "type": "function"
    }
  ],
  "bytecode": "0x6080806040523460635760008054336001600160a01b0319821681178355916001600160a01b03909116907f8be0079c531659141344cd1fd0a4f28419497f9722a3daafe3b4186f6b6457e09080a3600180556000600855611bfe90816100698239f35b600080fdfe608080604052600436101561001357600080fd5b600090813560e01c90816207df30146115da5750806301c11d96146115b6578063150b7a021461152b578063153b0d1e146114d857806316c38b3c146114a0578063211a6b521461141d5780633ccfd60b146113ce57806356f43352146113b05780635c975abb1461138d5780636890511614611059578063715018a614610fff5780637ddea96c14610acb57806380e6f45e14610a8757806381a2ef9214610a305780638da5cb5b14610a09578063959d5f6a146108eb5780639f37092a14610664578063b0d54bcf14610609578063b2ddee0614610455578063d98b9bb514610219578063f2fde38b146101535763fe575a871461011257600080fd5b346101505760203660031901126101505760209060ff906040906001600160a01b0361013c61166c565b168152600684522054166040519015158152f35b80fd5b50346101505760203660031901126101505761016d61166c565b6101756118e9565b6001600160a01b031680156101c55781546001600160a01b03198116821783556001600160a01b03167f8be0079c531659141344cd1fd0a4f28419497f9722a3daafe3b4186f6b6457e08380a380f35b60405162461bcd60e51b815260206004820152602660248201527f4f776e61626c653a206e6577206f776e657220697320746865207a65726f206160448201526564647265737360d01b6064820152608490fd5b5060403660031901126101505761022e61166c565b6024359061024160ff60075416156117f5565b610249611941565b338352600660205261026260ff60408520541615611832565b60018060a01b0316908183526004602052604083208184526020526040832080549060ff8260a01c1660028110156104415760010361040e5760028101544210156103d95760048101918254803411156103a65768056bc75e2d6310000034116103765786916102dc906001600160a01b031615156118b0565b80158015610338575b50505060030180546001600160a01b03191633908117909155349182905560405191825292907f0e1f7a6c628fd95c9633b2732b8035b7e8d0df8120df2274beadefa5296d5e9490602090a46001805580f35b60038401548392839283926001600160a01b031690839061036d575bf115610362578438806102e5565b6040513d86823e3d90fd5b506108fc610354565b60405162461bcd60e51b81526020600482015260086024820152670a8dede40d0d2ced60c31b6044820152606490fd5b60405162461bcd60e51b815260206004820152600b60248201526a42696420746f6f206c6f7760a81b6044820152606490fd5b60405162461bcd60e51b815260206004820152600d60248201526c105d58dd1a5bdb88195b991959609a1b6044820152606490fd5b60405162461bcd60e51b815260206004820152600b60248201526a2737ba1030bab1ba34b7b760a91b6044820152606490fd5b634e487b7160e01b86526021600452602486fd5b50346101505760403660031901126101505761046f61166c565b60243561048160ff60075416156117f5565b610489611941565b33835260066020526104a260ff60408520541615611832565b60018060a01b03821691828452600460205260408420828552602052604084206104d1600182015415156118b0565b8054336001600160a01b038216036105d75760a01c60ff16600281101561044157600114610597575b5061050790823391611997565b813b1561058857604051632142170760e11b8152306004820152336024820152604481018290528390818160648183885af1801561058c57610573575b505033917f0c8fde439b4e72d175ffeb3c5f3c15c6f70f473413f4c2d68f8971c0d629b60d8480a46001805580f35b8161057d916116c0565b610588578238610544565b8280fd5b6040513d84823e3d90fd5b600401546105a557386104fa565b60405162461bcd60e51b815260206004820152600a6024820152694269642065786973747360b01b6044820152606490fd5b60405162461bcd60e51b815260206004820152600a6024820152692737ba1039b2b63632b960b11b6044820152606490fd5b5034610150576020366003190112610150576004356106266118e9565b6103e881116106355760085580f35b60405162461bcd60e51b81526020600482015260076024820152664d61782031302560c81b6044820152606490fd5b5060403660031901126101505761067961166c565b60243561068b60ff60075416156117f5565b610693611941565b33835260066020526106ac60ff60408520541615611832565b60018060a01b0382169182845260046020526040842082855260205260408420805460ff8160a01c1660028110156108d7576108a057600182019283546106f48115156118b0565b340361086f5761070f916001600160a01b0316908590611997565b81549060085480830290838204148315171561085b57612710900491828103918183116108475754879392849283928392839290916001600160a01b0316908390881461083e575bf1156108315780159081156107f7575b505050823b156107f357604051632142170760e11b8152306004820152336024820152604481018390528490818160648183895af1801561058c576107de575b505054916040519283527f3c0aac7ff88f2e47ddbaf56d3cfc506dff643228e74c58f6ef3e8a2322c6b22a60203394a46001805580f35b816107e8916116c0565b6107f35783386107a7565b8380fd5b82809291819260018060a01b03835416908390610828575bf11561081d57833880610767565b6040513d85823e3d90fd5b506108fc61080f565b50604051903d90823e3d90fd5b506108fc610757565b634e487b7160e01b88526011600452602488fd5b634e487b7160e01b87526011600452602487fd5b60405162461bcd60e51b81526020600482015260096024820152680aee4dedcce408aa8960bb1b6044820152606490fd5b60405162461bcd60e51b815260206004820152600f60248201526e4e6f742066697865642d707269636560881b6044820152606490fd5b634e487b7160e01b87526021600452602487fd5b5034610150576020366003190112610150576001600160a01b0361090d61166c565b168082526002602052604082208054919083805b8481106109b65750610932906117af565b938092815b858110610950576040518061094c8982611714565b0390f35b600190828452600460205260408420610969828761177f565b90549060031b1c8552602052818060a01b0360408520541661098c575b01610937565b610996818661177f565b90549060031b1c6109b06109a98861188b565b978a6117e1565b52610986565b8386526004602052604086206109cc828561177f565b905460039190911b1c875260205260408620546001600160a01b03166109f5575b600101610921565b90610a0160019161188b565b9190506109ed565b5034610150578060031936011261015057546040516001600160a01b039091168152602090f35b503461015057604036600319011261015057610a4a61166c565b6001600160a01b0316815260026020526040812080546024359290831015610150576020610a78848461177f565b90549060031b1c604051908152f35b50346101505760203660031901126101505760043590600354821015610150576020610ab28361174e565b905460405160039290921b1c6001600160a01b03168152f35b50346101505760a036600319011261015057610ae561166c565b60243560443591606435906002821015610ffb5760843590610b0c60ff60075416156117f5565b610b14611941565b3386526006602052610b2d60ff60408820541615611832565b84151580610fe8575b15610fb3576040516331a9108f60e11b8152600481018590526001600160a01b03919091169290602081602481875afa908115610f23578791610f94575b50336001600160a01b0390911603610f5d5760405163020604bf60e21b815260048101859052602081602481875afa908115610f23578791610f2e575b506001600160a01b031630148015610ead575b15610e785760018114610e3e575b823b15610e3a57604051632142170760e11b8152336004820152306024820152604481018590528690818160648183895af1801561058c57610e25575b505060405160c0810181811067ffffffffffffffff821117610dfd576040908152338252602080830184815283830189815260608501878152608086018c815260a087018d81528a8e5260048652868e208c8f52909552948c20955186546001600160a01b0319166001600160a01b039190911617865591519293926002811015610e1157855460ff60a01b191660a09190911b60ff60a01b161785555160018501555160028085019190915590516003840180546001600160a01b0319166001600160a01b039290921691909117905590516004929092019190915583875260205260408620805490600160401b821015610dfd57610d1982610d30926001899501815561177f565b819391549060031b91821b91600019901b19161790565b90553386526005602052610d478460408820611ab1565b5082865260026020526001604087205414610da3575b610d7190604051958652602086019061169d565b60408401527f47248f1e27c64f978d0f17948a61c52002f75beb160ade5e66df0a10604b848660603394a46001805580f35b600354600160401b811015610de95790610dc6826001610d71940160035561174e565b81546001600160a01b0360039290921b91821b19169086901b1790559050610d5d565b634e487b7160e01b87526041600452602487fd5b634e487b7160e01b88526041600452602488fd5b634e487b7160e01b8c52602160045260248cfd5b81610e2f916116c0565b610e3a578538610c0f565b8580fd5b428211610bd25760405162461bcd60e51b815260206004820152600b60248201526a42616420656e6454696d6560a81b6044820152606490fd5b60405162461bcd60e51b815260206004820152600d60248201526c105c1c1c9bdd9948199a5c9cdd609a1b6044820152606490fd5b5060405163e985e9c560e01b8152336004820152306024820152602081604481875afa908115610f23578791610ee4575b50610bc4565b90506020813d602011610f1b575b81610eff602093836116c0565b81010312610f1757518015158103610f175738610ede565b8680fd5b3d9150610ef2565b6040513d89823e3d90fd5b610f50915060203d602011610f56575b610f4881836116c0565b81019061186c565b38610bb1565b503d610f3e565b60405162461bcd60e51b815260206004820152600f60248201526e2737ba103a37b5b2b71037bbb732b960891b6044820152606490fd5b610fad915060203d602011610f5657610f4881836116c0565b38610b74565b60405162461bcd60e51b815260206004820152600d60248201526c141c9a58d9481a5b9d985b1a59609a1b6044820152606490fd5b5068056bc75e2d63100000851115610b36565b8480fd5b50346101505780600319360112610150576110186118e9565b80546001600160a01b03198116825581906001600160a01b03167f8be0079c531659141344cd1fd0a4f28419497f9722a3daafe3b4186f6b6457e08280a380f35b50346101505760403660031901126101505761107361166c565b6024359061107f611941565b60018060a01b031680835260046020526040832082845260205260408320805460ff8160a01c16600281101561044157600103611357576001600160a01b0316801561131d57600282015442106112e0576003820180549091906001600160a01b0316156112505750805485906001600160a01b0316843b1561124c576040516323b872dd60e01b81523060048201526001600160a01b0391909116602482015260448101869052818160648183895af1801561058c57611237575b50808080600460018060a01b038754169601958654905af13d15611232573d611163816116f8565b9061117160405192836116c0565b81528660203d92013e5b156111f757827ff5e261ad6037fbe80a9ee6c11f287400f3e4b5a077b2424264a7b1b25409e9146020869360018060a01b039054169454604051908152a45b82526004602052604082209082526020526111f06040822060046000918281558260018201558260028201558260038201550155565b6001805580f35b60405162461bcd60e51b8152602060048201526013602482015272115512081d1c985b9cd9995c8819985a5b1959606a1b6044820152606490fd5b61117b565b81611241916116c0565b610ffb57843861113b565b5080fd5b91505083823b15610150576040516323b872dd60e01b81523060048201526001600160a01b03929092166024830152604482018490528160648183865af18015610362576112cc575b508282827ff5e261ad6037fbe80a9ee6c11f287400f3e4b5a077b2424264a7b1b25409e9146020604051858152a46111ba565b836112d9919492946116c0565b9138611299565b60405162461bcd60e51b815260206004820152601560248201527441756374696f6e207374696c6c2072756e6e696e6760581b6044820152606490fd5b60405162461bcd60e51b81526020600482015260126024820152714c697374696e67206e6f742061637469766560701b6044820152606490fd5b60405162461bcd60e51b815260206004820152600e60248201526d2737ba1030b71030bab1ba34b7b760911b6044820152606490fd5b5034610150578060031936011261015057602060ff600754166040519015158152f35b50346101505780600319360112610150576020600854604051908152f35b50346101505780600319360112610150576113e76118e9565b8080808060018060a01b038154164790828215611414575bf1156114085780f35b604051903d90823e3d90fd5b506108fc6113ff565b5034610150576020366003190112610150576001600160a01b0361143f61166c565b16908181526005602052604081205490611458826117af565b92815b838110611470576040518061094c8782611714565b6001908284526005602052611488816040862061177f565b90549060031b1c61149982886117e1565b520161145b565b50346101505760203660031901126101505760043580151580910361124c576114c76118e9565b60ff80196007541691161760075580f35b5034610150576040366003190112610150576114f261166c565b60243590811515809203610588576115086118e9565b60018060a01b031682526006602052604082209060ff8019835416911617905580f35b50346101505760803660031901126101505761154561166c565b5061154e611687565b5060643567ffffffffffffffff811161124c573660238201121561124c57806004013561157a816116f8565b61158760405191826116c0565b81815236602483850101116107f3578160246020940184830137010152604051630a85bd0160e11b8152602090f35b5034610150578060031936011261015057602060405168056bc75e2d631000008152f35b90503461124c57604036600319011261124c5760c0916040906001600160a01b0361160361166c565b16815260046020528181206024358252602052208054906001810154600282015490611656600460018060a01b036003860154169401549460018060a01b038116875260ff602088019160a01c1661169d565b60408501526060840152608083015260a0820152f35b600435906001600160a01b038216820361168257565b600080fd5b602435906001600160a01b038216820361168257565b9060028210156116aa5752565b634e487b7160e01b600052602160045260246000fd5b90601f8019910116810190811067ffffffffffffffff8211176116e257604052565b634e487b7160e01b600052604160045260246000fd5b67ffffffffffffffff81116116e257601f01601f191660200190565b602060408183019282815284518094520192019060005b8181106117385750505090565b825184526020938401939092019160010161172b565b60035481101561176957600360005260206000200190600090565b634e487b7160e01b600052603260045260246000fd5b80548210156117695760005260206000200190600090565b67ffffffffffffffff81116116e25760051b60200190565b906117b982611797565b6117c660405191826116c0565b82815280926117d7601f1991611797565b0190602036910137565b80518210156117695760209160051b010190565b156117fc57565b60405162461bcd60e51b815260206004820152600e60248201526d151c98591a5b99c81c185d5cd95960921b6044820152606490fd5b1561183957565b60405162461bcd60e51b815260206004820152600b60248201526a109b1858dadb1a5cdd195960aa1b6044820152606490fd5b9081602091031261168257516001600160a01b03811681036116825790565b600019811461189a5760010190565b634e487b7160e01b600052601160045260246000fd5b156118b757565b60405162461bcd60e51b815260206004820152600a602482015269139bdd081b1a5cdd195960b21b6044820152606490fd5b6000546001600160a01b031633036118fd57565b606460405162461bcd60e51b815260206004820152602060248201527f4f776e61626c653a2063616c6c6572206973206e6f7420746865206f776e65726044820152fd5b600260015414611952576002600155565b60405162461bcd60e51b815260206004820152601f60248201527f5265656e7472616e637947756172643a207265656e7472616e742063616c6c006044820152606490fd5b909160018060a01b031660005260056020526119b7826040600020611b0b565b506001600160a01b031660008181526002602052604081209291905b835480821015611aa757836119e8838761177f565b90549060031b1c146119fd57506001016119d3565b92939192600019810190811161189a57610d19611a1d611a2b928561177f565b90549060031b1c928461177f565b905580548015611a91576000190190611a44828261177f565b8154906000199060031b1b19169055555b6000526004602052604060002090600052602052611a8f604060002060046000918281558260018201558260028201558260038201550155565b565b634e487b7160e01b600052603160045260246000fd5b5050909150611a55565b6001810190826000528160205260406000205415600014611b03578054600160401b8110156116e257611aee610d1982600187940185558461177f565b90555491600052602052604060002055600190565b505050600090565b9060018201918160005282602052604060002054801515600014611bbf57600019810181811161189a57825460001981019190821161189a57808203611b88575b50505080548015611a91576000190190611b66828261177f565b8154906000199060031b1b191690555560005260205260006040812055600190565b611ba8611b98610d19938661177f565b90549060031b1c9283928661177f565b905560005283602052604060002055388080611b4c565b5050505060009056fea2646970667358221220369b97ad4f456fa89c842c0ab36ea2eb5c466bc3c43dbf7e2b9253b87d73c47564736f6c634300081c0033",
  "linkReferences": {},
  "deployedLinkReferences": {}
}