{
  "_format": "hh-sol-artifact-1",
  "contractName": "PokemonNFT",
  "sourceName": "contracts/PokemonNFT.sol",
  "abi": [
    {
      "inputs": [
        {
          "internalType": "string",
          "name": "baseURI",
          "type": "string"
        }
      ],
      "stateMutability": "nonpayable",
      "type": "constructor"
    },
    {
      "inputs": [],
      "name": "InvalidShortString",
      "type": "error"
    },
    {
      "inputs": [
        {
          "internalType": "string",
          "name": "str",
          "type": "string"
        }
      ],
      "name": "StringTooLong",
      "type": "error"
    },
    {
      "anonymous": false,
      "inputs": [
        {
          "indexed": true,
          "internalType": "address",
          "name": "owner",
          "type": "address"
        },
        {
          "indexed": true,
          "internalType": "address",
          "name": "approved",
          "type": "address"
        },
        {
          "indexed": true,
          "internalType": "uint256",
          "name": "tokenId",
          "type": "uint256"
        }
      ],
      "name": "Approval",
      "type": "event"
    },
    {
      "anonymous": false,
      "inputs": [
        {
          "indexed": true,
          "internalType": "address",
          "name": "owner",
          "type": "address"
        },
        {
          "indexed": true,
          "internalType": "address",
          "name": "operator",
          "type": "address"
        },
        {
          "indexed": false,
          "internalType": "bool",
          "name": "approved",
          "type": "bool"
        }
      ],
      "name": "ApprovalForAll",
      "type": "event"
    },
    {
      "anonymous": false,
      "inputs": [],
      "name": "EIP712DomainChanged",
      "type": "event"
    },
    {
      "anonymous": false,
      "inputs": [
        {
          "indexed": true,
          "internalType": "address",
          "name": "previousOwner",
          "type": "address"
        },
        {
          "indexed": true,
          "internalType": "address",
          "name": "newOwner",
          "type": "address"
        }
      ],
      "name": "OwnershipTransferred",
      "type": "event"
    },
    {
      "anonymous": false,
      "inputs": [
        {
          "indexed": false,
          "internalType": "address",
          "name": "account",
          "type": "address"
        }
      ],
      "name": "Paused",
      "type": "event"
    },
    {
      "anonymous": false,
      "inputs": [
        {
          "indexed": true,
          "internalType": "address",
          "name": "owner",
          "type": "address"
        },
        {
          "indexed": true,
          "internalType": "uint256",
          "name": "tokenId",
          "type": "uint256"
        },
        {
          "indexed": false,
          "internalType": "string",
          "name": "name",
          "type": "string"
        },
        {
          "indexed": false,
          "internalType": "string",
          "name": "gender",
          "type": "string"
        },
        {
          "indexed": false,
          "internalType": "string",
          "name": "pokemonType",
          "type": "string"
        },
        {
          "indexed": false,
          "internalType": "string",
          "name": "spAttack",
          "type": "string"
        },
        {
          "indexed": false,
          "internalType": "string",
          "name": "spDefense",
          "type": "string"
        },
        {
          "indexed": false,
          "internalType": "uint8",
          "name": "level",
          "type": "uint8"
        },
        {
          "indexed": false,
          "internalType": "uint8",
          "name": "hp",
          "type": "uint8"
        },
        {
          "indexed": false,
          "internalType": "uint16",
          "name": "attack",
          "type": "uint16"
        },
        {
          "indexed": false,
          "internalType": "uint16",
          "name": "defense",
          "type": "uint16"
        },
        {
          "indexed": false,
          "internalType": "uint16",
          "name": "speed",
          "type": "uint16"
        },
        {
          "indexed": false,
          "internalType": "uint8",
          "name": "purity",
          "type": "uint8"
        }
      ],
      "name": "PokemonCardMinted",
      "type": "event"
    },
    {
      "anonymous": false,
      "inputs": [
        {
          "indexed": true,
          "internalType": "address",
          "name": "from",
          "type": "address"
        },
        {
          "indexed": true,
          "internalType": "address",
          "name": "to",
          "type": "address"
        },
        {
          "indexed": true,
          "internalType": "uint256",
          "name": "tokenId",
          "type": "uint256"
        }
      ],
      "name": "Transfer",
      "type": "event"
    },
    {
      "anonymous": false,
      "inputs": [
        {
          "indexed": false,
          "internalType": "address",
          "name": "account",
          "type": "address"
        }
      ],
      "name": "Unpaused",
      "type": "event"
    },
    {
      "inputs": [
        {
          "internalType": "address",
          "name": "to",
          "type": "address"
        },
        {
          "internalType": "uint256",
          "name": "tokenId",
          "type": "uint256"
        }
      ],
      "name": "approve",
      "outputs": [],
      "stateMutability": "nonpayable",
      "type": "function"
    },
    {
      "inputs": [
        {
          "internalType": "address",
          "name": "owner",
          "type": "address"
        }
      ],
      "name": "balanceOf",
      "outputs": [
        {
          "internalType": "uint256",
          "name": "",
          "type": "uint256"
        }
      ],
      "stateMutability": "view",
      "type": "function"
    },
    {
      "inputs": [],
      "name": "boxPrice",
      "outputs": [
        {
          "internalType": "uint256",
          "name": "",
          "type": "uint256"
        }
      ],
      "stateMutability": "view",
      "type": "function"
    },
    {
      "inputs": [],
      "name": "eip712Domain",
      "outputs": [
        {
          "internalType": "bytes1",
          "name": "fields",
          "type": "bytes1"
        },
        {
          "internalType": "string",
          "name": "name",
          "type": "string"
        },
        {
          "internalType": "string",
          "name": "version",
          "type": "string"
        },
        {
          "internalType": "uint256",
          "name": "chainId",
          "type": "uint256"
        },
        {
          "internalType": "address",
          "name": "verifyingContract",
          "type": "address"
        },
        {
          "internalType": "bytes32",
          "name": "salt",
          "type": "bytes32"
        },
        {
          "internalType": "uint256[]",
          "name": "extensions",
          "type": "uint256[]"
        }
      ],
      "stateMutability": "view",
      "type": "function"
    },
    {
      "inputs": [
        {
          "internalType": "uint256",
          "name": "tokenId",
          "type": "uint256"
        }
      ],
      "name": "getApproved",
      "outputs": [
        {
          "internalType": "address",
          "name": "",
          "type": "address"
        }
      ],
      "stateMutability": "view",
      "type": "function"
    },
    {
      "inputs": [
        {
          "internalType": "uint256",
          "name": "tokenId",
          "type": "uint256"
        }
      ],
      "name": "getPokemonAttributes",
      "outputs": [
        {
          "components": [
            {
              "internalType": "string",
              "name": "name",
              "type": "string"
            },
            {
              "internalType": "string",
              "name": "gender",
              "type": "string"
            },
            {
              "internalType": "string",
              "name": "pokemonType",
              "type": "string"
            },
            {
              "internalType": "string",
              "name": "spAttack",
              "type": "string"
            },
            {
              "internalType": "string",
              "name": "spDefense",
              "type": "string"
            },
            {
              "internalType": "uint8",
              "name": "level",
              "type": "uint8"
            },
            {
              "internalType": "uint8",
              "name": "hp",
              "type": "uint8"
            },
            {
              "internalType": "uint16",
              "name": "attack",
              "type": "uint16"
            },
            {
              "internalType": "uint16",
              "name": "defense",
              "type": "uint16"
            },
            {
              "internalType": "uint16",
              "name": "speed",
              "type": "uint16"
            },
            {
              "internalType": "uint8",
              "name": "purity",
              "type": "uint8"
            }
          ],
          "internalType": "struct PokemonNFT.PokemonAttributes",
          "name": "",
          "type": "tuple"
        }
      ],
      "stateMutability": "view",
      "type": "function"
    },
    {
      "inputs": [
        {
          "internalType": "address",
          "name": "owner",
          "type": "address"
        },
        {
          "internalType": "address",
          "name": "operator",
          "type": "address"
        }
      ],
      "name": "isApprovedForAll",
      "outputs": [
        {
          "internalType": "bool",
          "name": "",
          "type": "bool"
        }
      ],
      "stateMutability": "view",
      "type": "function"
    },
    {
      "inputs": [],
      "name": "lastMintBlock",
      "outputs": [
        {
          "internalType": "uint256",
          "name": "",
          "type": "uint256"
        }
      ],
      "stateMutability": "view",
      "type": "function"
    },
    {
      "inputs": [],
      "name": "lockMetadata",
      "outputs": [],
      "stateMutability": "nonpayable",
      "type": "function"
    },
    {
      "inputs": [],
      "name": "metadataLocked",
      "outputs": [
        {
          "internalType": "bool",
          "name": "",
          "type": "bool"
        }
      ],
      "stateMutability": "view",
      "type": "function"
    },
    {
      "inputs": [
        {
          "internalType": "string",
          "name": "name",
          "type": "string"
        },
        {
          "internalType": "string",
          "name": "gender",
          "type": "string"
        },
        {
          "internalType": "string",
          "name": "pokemonType",
          "type": "string"
        },
        {
          "internalType": "string",
          "name": "spAttack",
          "type": "string"
        },
        {
          "internalType": "string",
          "name": "spDefense",
          "type": "string"
        },
        {
          "internalType": "uint8",
          "name": "level",
          "type": "uint8"
        },
        {
          "internalType": "uint8",
          "name": "hp",
          "type": "uint8"
        },
        {
          "internalType": "uint16",
          "name": "attack",
          "type": "uint16"
        },
        {
          "internalType": "uint16",
          "name": "defense",
          "type": "uint16"
        },
        {
          "internalType": "uint16",
          "name": "speed",
          "type": "uint16"
        },
        {
          "internalType": "uint8",
          "name": "purity",
          "type": "uint8"
        }
      ],
      "name": "mintRandomPokemon",
      "outputs": [],
      "stateMutability": "nonpayable",
      "type": "function"
    },
    {
      "inputs": [],
      "name": "mintsThisBlock",
      "outputs": [
        {
          "internalType": "uint256",
          "name": "",
          "type": "uint256"
        }
      ],
      "stateMutability": "view",
      "type": "function"
    },
    {
      "inputs": [],
      "name": "name",
      "outputs": [
        {
          "internalType": "string",
          "name": "",
          "type": "string"
        }
      ],
      "stateMutability": "view",
      "type": "function"
    },
    {
      "inputs": [
        {
          "internalType": "string",
          "name": "name",
          "type": "string"
        },
        {
          "internalType": "string",
          "name": "gender",
          "type": "string"
        },
        {
          "internalType": "string",
          "name": "pokemonType",
          "type": "string"
        },
        {
          "internalType": "string",
          "name": "spAttack",
          "type": "string"
        },
        {
          "internalType": "string",
          "name": "spDefense",
          "type": "string"
        },
        {
          "internalType": "uint8",
          "name": "level",
          "type": "uint8"
        },
        {
          "internalType": "uint8",
          "name": "hp",
          "type": "uint8"
        },
        {
          "internalType": "uint16",
          "name": "attack",
          "type": "uint16"
        },
        {
          "internalType": "uint16",
          "name": "defense",
          "type": "uint16"
        },
        {
          "internalType": "uint16",
          "name": "speed",
          "type": "uint16"
        },
        {
          "internalType": "uint8",
          "name": "purity",
          "type": "uint8"
        },
        {
          "internalType": "bytes",
          "name": "signature",
          "type": "bytes"
        }
      ],
      "name": "openMysteryBox",
      "outputs": [],
      "stateMutability": "payable",
      "type": "function"
    },
    {
      "inputs": [],
      "name": "owner",
      "outputs": [
        {
          "internalType": "address",
          "name": "",
          "type": "address"
        }
      ],
      "stateMutability": "view",
      "type": "function"
    },
    {
      "inputs": [
        {
          "internalType": "uint256",
          "name": "tokenId",
          "type": "uint256"
        }
      ],
      "name": "ownerOf",
      "outputs": [
        {
          "internalType": "address",
          "name": "",
          "type": "address"
        }
      ],
      "stateMutability": "view",
      "type": "function"
    },
    {
      "inputs": [],
      "name": "pause",
      "outputs": [],
      "stateMutability": "nonpayable",
      "type": "function"
    },
    {
      "inputs": [],
      "name": "paused",
      "outputs": [
        {
          "internalType": "bool",
          "name": "",
          "type": "bool"
        }
      ],
      "stateMutability": "view",
      "type": "function"
    },
    {
      "inputs": [],
      "name": "renounceOwnership",
      "outputs": [],
      "stateMutability": "nonpayable",
      "type": "function"
    },
    {
      "inputs": [
        {
          "internalType": "address",
          "name": "from",
          "type": "address"
        },
        {
          "internalType": "address",
          "name": "to",
          "type": "address"
        },
        {
          "internalType": "uint256",
          "name": "tokenId",
          "type": "uint256"
        }
      ],
      "name": "safeTransferFrom",
      "outputs": [],
      "stateMutability": "nonpayable",
      "type": "function"
    },
    {
      "inputs": [
        {
          "internalType": "address",
          "name": "from",
          "type": "address"
        },
        {
          "internalType": "address",
          "name": "to",
          "type": "address"
        },
        {
          "internalType": "uint256",
          "name": "tokenId",
          "type": "uint256"
        },
        {
          "internalType": "bytes",
          "name": "data",
          "type": "bytes"
        }
      ],
      "name": "safeTransferFrom",
      "outputs": [],
      "stateMutability": "nonpayable",
      "type": "function"
    },
    {
      "inputs": [
        {
          "internalType": "address",
          "name": "operator",
          "type": "address"
        },
        {
          "internalType": "bool",
          "name": "approved",
          "type": "bool"
        }
      ],
      "name": "setApprovalForAll",
      "outputs": [],
      "stateMutability": "nonpayable",
      "type": "function"
    },
    {
      "inputs": [
        {
          "internalType": "string",
          "name": "baseURI",
          "type": "string"
        }
      ],
      "name": "setBaseURI",
      "outputs": [],
      "stateMutability": "nonpayable",
      "type": "function"
    },
    {
      "inputs": [
        {
          "internalType": "bytes4",
          "name": "interfaceId",
          "type": "bytes4"
        }
      ],
      "name": "supportsInterface",
      "outputs": [
        {
          "internalType": "bool",
          "name": "",
          "type": "bool"
        }
      ],
      "stateMutability": "view",
      "type": "function"
    },
    {
      "inputs": [],
      "name": "symbol",
      "outputs": [
        {
          "internalType": "string",
          "name": "",
          "type": "string"
        }
      ],
      "stateMutability": "view",
      "type": "function"
    },
    {
      "inputs": [
        {
          "internalType": "uint256",
          "name": "index",
          "type": "uint256"
        }
      ],
      "name": "tokenByIndex",
      "outputs": [
        {
          "internalType": "uint256",
          "name": "",
          "type": "uint256"
        }
      ],
      "stateMutability": "view",
      "type": "function"
    },
    {
      "inputs": [
        {
          "internalType": "address",
          "name": "owner",
          "type": "address"
        },
        {
          "internalType": "uint256",
          "name": "index",
          "type": "uint256"
        }
      ],
      "name": "tokenOfOwnerByIndex",
      "outputs": [
        {
          "internalType": "uint256",
          "name": "",
          "type": "uint256"
        }
      ],
      "stateMutability": "view",
      "type": "function"
    },
    {
      "inputs": [
        {
          "internalType": "uint256",
          "name": "tokenId",
          "type": "uint256"
        }
      ],
      "name": "tokenURI",
      "outputs": [
        {
          "internalType": "string",
          "name": "",
          "type": "string"
        }
      ],
      "stateMutability": "view",
      "type": "function"
    },
    {
      "inputs": [],
      "name": "totalSupply",
      "outputs": [
        {
          "internalType": "uint256",
          "name": "",
          "type": "uint256"
        }
      ],
      "stateMutability": "view",
      "type": "function"
    },
    {
      "inputs": [
        {
          "internalType": "address",
          "name": "from",
          "type": "address"
        },
        {
          "internalType": "address",
          "name": "to",
          "type": "address"
        },
        {
          "internalType": "uint256",
          "name": "tokenId",
          "type": "uint256"
        }
      ],
      "name": "transferFrom",
      "outputs": [],
      "stateMutability": "nonpayable",
      "type": "function"
    },
    {
      "inputs": [
        {
          "internalType": "address",
          "name": "newOwner",
          "type": "address"
        }
      ],
      "name": "transferOwnership",
      "outputs": [],
      "stateMutability": "nonpayable",
      "type": "function"
    },
    {
      "inputs": [],
      "name": "trustedSigner",
      "outputs": [
        {
          "internalType": "address",
          "name": "",
          "type": "address"
        }
      ],
      "stateMutability": "view",
      "type": "function"
    },
    {
      "inputs": [],
      "name": "unpause",
      "outputs": [],
      "stateMutability": "nonpayable",
      "type": "function"
    },
    {
      "inputs": [],
      "name": "withdraw",
      "outputs": [],
      "stateMutability": "nonpayable",
      "type": "function"
    }
  ],
  "bytecode": "0x610160806040523461064857614276803803809161001d828561064d565b8339810190602081830312610648578051906001600160401b038211610648570181601f820112156106485780516001600160401b03811161045b5760405192610071601f8301601f19166020018561064d565b818452602082840101116106485761008f9160208085019101610670565b610097610693565b6040908151906100a7838361064d565b600182526020820190603160f81b82526100bf610693565b8451906100cc868361064d565b60048252632825a6a760e11b60208301528051906001600160401b03821161045b5760005490600182811c9216801561063e575b602083101461043b5781601f8493116105cf575b50602090601f83116001146105695760009261055e575b50508160011b916000199060031b1c1916176000555b8051906001600160401b03821161045b5760015490600182811c92168015610554575b602083101461043b5781601f8493116104e4575b50602090601f831160011461047c57600092610471575b50508160011b916000199060031b1c1916176001555b600a8054336001600160a01b0319821681179092556001600160a01b03167f8be0079c531659141344cd1fd0a4f28419497f9722a3daafe3b4186f6b6457e0600080a36001600b5560ff19600c5416600c55610200816106bb565b6101205261020d8361084c565b6101405260208151910120918260e05251902080610100524660a05282519060208201927f8b73c3c69bb8fe3d512ecc4cf759cc79239f7b179b0ffacaa9a75d522b39400f84528483015260608201524660808201523060a082015260a0815261027860c08261064d565b5190206080523060c052600f80546001600160a01b03191673f39fd6e51aad88f6f4ce6ab8827279cfffb92266179055662386f26fc1000060145581516001600160401b03811161045b57601354600181811c91168015610451575b602082101461043b57601f81116103d6575b50602092601f82116001146103715792819293600092610366575b50508160011b916000199060031b1c1916176013555b516138e7908161098f8239608051816133d6015260a05181613493015260c051816133a0015260e051816134250152610100518161344b0152610120518161138b015261014051816113b40152f35b015190503880610301565b601f198216936013600052806000209160005b8681106103be57508360019596106103a5575b505050811b01601355610317565b015160001960f88460031b161c19169055388080610397565b91926020600181928685015181550194019201610384565b60136000527f66de8ffda797e3de9c05e8fc57b3bf0ec28a930d40b0d285d93c06501cf6a090601f830160051c81019160208410610431575b601f0160051c01905b81811061042557506102e6565b60008155600101610418565b909150819061040f565b634e487b7160e01b600052602260045260246000fd5b90607f16906102d4565b634e487b7160e01b600052604160045260246000fd5b01519050388061018f565b600160009081528281209350601f198516905b8181106104cc57509084600195949392106104b3575b505050811b016001556101a5565b015160001960f88460031b161c191690553880806104a5565b9293602060018192878601518155019501930161048f565b60016000529091507fb10e2d527612073b26eecdfd717e6a320cf44b4afac2b0732d9fcbe2b7fa0cf6601f840160051c8101916020851061054a575b90601f859493920160051c01905b81811061053b5750610178565b6000815584935060010161052e565b9091508190610520565b91607f1691610164565b01519050388061012b565b60008080528281209350601f198516905b8181106105b7575090846001959493921061059e575b505050811b01600055610141565b015160001960f88460031b161c19169055388080610590565b9293602060018192878601518155019501930161057a565b600080529091507f290decd9548b62a8d60345a988386fc84ba6bc95484008f6362f93160ef3e563601f840160051c81019160208510610634575b90601f859493920160051c01905b8181106106255750610114565b60008155849350600101610618565b909150819061060a565b91607f1691610100565b600080fd5b601f909101601f19168101906001600160401b0382119082101761045b57604052565b60005b8381106106835750506000910152565b8181015183820152602001610673565b604051906106a260408361064d565b600a825269141bdad95b5bdb93919560b21b6020830152565b90815160208110600014610736575090601f8151116106f75760208151910151602082106106e7571790565b6000198260200360031b1b161790565b6044604051809263305a27a960e01b8252602060048301526107288151809281602486015260208686019101610670565b601f01601f19168101030190fd5b6001600160401b03811161045b57600d54600181811c91168015610842575b602082101461043b57601f811161080c575b50602092601f82116001146107a7579281929360009261079c575b50508160011b916000199060031b1c191617600d5560ff90565b015190503880610782565b601f19821693600d600052806000209160005b8681106107f457508360019596106107db575b505050811b01600d5560ff90565b015160001960f88460031b161c191690553880806107cd565b919260206001819286850151815501940192016107ba565b600d600052601f6020600020910160051c810190601f830160051c015b8181106108365750610767565b60008155600101610829565b90607f1690610755565b90815160208110600014610878575090601f8151116106f75760208151910151602082106106e7571790565b6001600160401b03811161045b57600e54600181811c91168015610984575b602082101461043b57601f811161094e575b50602092601f82116001146108e957928192936000926108de575b50508160011b916000199060031b1c191617600e5560ff90565b0151905038806108c4565b601f19821693600e600052806000209160005b868110610936575083600195961061091d575b505050811b01600e5560ff90565b015160001960f88460031b161c1916905538808061090f565b919260206001819286850151815501940192016108fc565b600e600052601f6020600020910160051c810190601f830160051c015b81811061097857506108a9565b6000815560010161096b565b90607f169061089756fe61018080604052600436101561001457600080fd5b60003560e01c90816301ffc9a7146127575750806306fdde03146126b2578063081812fc14612694578063095ea7b31461250b57806318160ddd146124ed57806323b872dd146124c95780632f745c59146124175780633ccfd60b146123b25780633f4ba83a1461231e57806342842e0e146122e95780634d4a29ef146118485780634f6ccce71461179c57806355f804b3146115e55780635c975abb146115c25780636352211e1461159257806366c4b91e1461157457806369d2ceb11461155157806370a0823114611526578063715018a6146114c95780638456cb591461146f57806384b0196e146113725780638da5cb5b14611349578063903369e014610aed57806395d89b4114610a20578063989bdbb6146109f85780639cf5c3f5146109da578063a22cb46514610908578063a6482858146108ea578063af05033c14610644578063b88d4fde146105bd578063c87b56dd146102e7578063e985e9c51461028c578063f2fde38b146101c45763f74d54801461019657600080fd5b346101bf5760003660031901126101bf57600f546040516001600160a01b039091168152602090f35b600080fd5b346101bf5760203660031901126101bf576101dd612824565b6101e561303d565b6001600160a01b0316801561023857600a80546001600160a01b0319811683179091556001600160a01b03167f8be0079c531659141344cd1fd0a4f28419497f9722a3daafe3b4186f6b6457e0600080a3005b60405162461bcd60e51b815260206004820152602660248201527f4f776e61626c653a206e6577206f776e657220697320746865207a65726f206160448201526564647265737360d01b6064820152608490fd5b346101bf5760403660031901126101bf576102a5612824565b6102ad61283a565b9060018060a01b0316600052600560205260406000209060018060a01b0316600052602052602060ff604060002054166040519015158152f35b346101bf5760203660031901126101bf5760043560008181526002602052604090205461031e906001600160a01b03161515612c4c565b60405160135491906000816103328561299d565b9182825260208201956001811690816000146105a15750600114610553575b61035d925003826128a6565b805160009015610535575081908260009372184f03e93ff9f4daa797ed6e38ed64bf6a1f0160401b81101561050f575b50806d04ee2d6d415b85acef8100000000600a9210156104f4575b662386f26fc100008110156104e0575b6305f5e1008110156104cf575b6127108110156104c0575b60648110156104b2575b10156104a8575b6001830191600a602161040c6103f6866128c7565b9561040460405197886128a6565b8087526128c7565b602086019690601f19013688378501015b60001901916f181899199a1a9b1b9c1cb0b131b232b360811b8282061a83530490811561044c57600a9061041d565b5050602061047193610490936104806104a497604051978896518092878901906127dc565b850191518093858401906127dc565b010103601f1981018352826128a6565b6040519182916020835260208301906127ff565b0390f35b91600101916103e1565b6064600291049401936103da565b612710600491049401936103d0565b6305f5e100600891049401936103c5565b662386f26fc10000601091049401936103b8565b6d04ee2d6d415b85acef8100000000602091049401936103a8565b6040945072184f03e93ff9f4daa797ed6e38ed64bf6a1f0160401b90049050600a61038d565b9150506104a491506040519061054c6020836128a6565b8152610490565b506013600090815290916000805160206138728339815191525b81831061058557505090602061035d92820101610351565b602091935080600191548385880101520191019091839261056d565b60ff191687525061035d92151560051b82016020019050610351565b346101bf5760803660031901126101bf576105d6612824565b6105de61283a565b90606435906044356001600160401b0383116101bf57366023840112156101bf576106429361061a61063d9436906024816004013591016128e2565b9261062d6106288433612d32565b612a98565b610638838383612e05565b61372c565b613379565b005b346101bf5760203660031901126101bf5760043560006101406040516106698161288a565b606081526060602082015260606040820152606080820152606060808201528260a08201528260c08201528260e0820152826101008201528261012082015201526106c981600052600260205260018060a01b0360406000205416151590565b156108ae57600052601060205260406000206040516106e78161288a565b604051806106f581856129d7565b0361070090826128a6565b8152604051918261071481600184016129d7565b0361071f90846128a6565b602082019283526040518061073781600285016129d7565b0361074290826128a6565b604083810191825251908161075a81600386016129d7565b0361076590836128a6565b60608401918252604051928361077e81600484016129d7565b0361078990856128a6565b60808501938452600501549160a085019360ff8416855260c086018460081c60ff16815260e08701918560101c61ffff1683526101008801938660201c61ffff1685526101208901958760301c61ffff1687526101408a019760401c60ff1688526040519a8b9a60208c525160208c0161016090526101808c0161080c916127ff565b90518b8203601f190160408d015261082491906127ff565b90518a8203601f190160608c015261083c91906127ff565b9051898203601f190160808b015261085491906127ff565b9051888203601f190160a08a015261086c91906127ff565b955160ff1660c08801525160ff1660e08701525161ffff166101008601525161ffff166101208501525161ffff166101408401525160ff166101608301520390f35b60405162461bcd60e51b8152602060048201526014602482015273151bdad95b88191bd95cc81b9bdd08195e1a5cdd60621b6044820152606490fd5b346101bf5760003660031901126101bf576020601454604051908152f35b346101bf5760403660031901126101bf57610921612824565b602435908115158092036101bf576001600160a01b03169033821461099557336000526005602052604060002082600052602052604060002060ff1981541660ff83161790556040519081527f17307eab39ab6107e8899845ad3d59bd9653f200f220920489ca2b5937696c3160203392a3005b60405162461bcd60e51b815260206004820152601960248201527f4552433732313a20617070726f766520746f2063616c6c6572000000000000006044820152606490fd5b346101bf5760003660031901126101bf576020601554604051908152f35b346101bf5760003660031901126101bf57610a1161303d565b6017805460ff19166001179055005b346101bf5760003660031901126101bf576040516000600154610a428161299d565b8084529060018116908115610ac95750600114610a6a575b6104a483610490818503826128a6565b600160009081527fb10e2d527612073b26eecdfd717e6a320cf44b4afac2b0732d9fcbe2b7fa0cf6939250905b808210610aaf57509091508101602001610490610a5a565b919260018160209254838588010152019101909291610a97565b60ff191660208086019190915291151560051b840190910191506104909050610a5a565b346101bf576101603660031901126101bf576004356001600160401b0381116101bf57610b1e903690600401612919565b60c0526024356001600160401b0381116101bf57610b40903690600401612919565b6080526044356001600160401b0381116101bf57610b62903690600401612919565b60a0526064356001600160401b0381116101bf57610b84903690600401612919565b6084356001600160401b0381116101bf57610ba3903690600401612919565b90610bac612937565b610bb4612947565b90610bbd612968565b610bc5612979565b610bcd61298b565b90610bd6612957565b92610bdf61303d565b610be7613095565b610bef6130eb565b610bfa601154612afa565b60e05260e051601155610c0f60e0513361312f565b604051610c1b8161288a565b60c0518152608051602082015260a051604082015287606082015288608082015260ff861660a082015260ff871660c082015261ffff821660e082015261ffff831661010082015261ffff841661012082015260ff851661014082015260e0516000526010602052604060002081518051906001600160401b038211611000578190610ca7845461299d565b601f81116112f9575b50602090601f831160011461128e57600092611283575b50508160011b916000199060031b1c19161781555b60208201518051906001600160401b038211611000578190610d01600185015461299d565b601f8111611230575b50602090601f83116001146111bf576000926111b4575b50508160011b916000199060031b1c19161760018201555b60408201518051906001600160401b038211611000578190610d5e600285015461299d565b601f8111611161575b50602090601f83116001146110f0576000926110e5575b50508160011b916000199060031b1c19161760028201555b60608201518051906001600160401b038211611000578190610dbb600385015461299d565b601f8111611092575b50602090601f831160011461102157600092611016575b50508160011b916000199060031b1c19161760038201555b60808201518051906001600160401b03821161100057610e16600484015461299d565b601f8111610fb9575b50602090601f8311600114610f2e5792826000805160206138528339815191529b9a99979593600593610f199a9896600092610f23575b50508160011b916000199060031b1c19161760048201555b019060ff60a0820151169082549161ff0060c083015160081b169263ffff000060e084015160101b1665ffff0000000061010085015160201b169260ff60401b61014061ffff60301b61012088015160301b1696015160401b169560ff60401b199361ffff60301b199265ffff00000000199163ffffffff19161716171617161717179055610efe60e051612b4d565b60405196879660e0519b339b60a05160805160c0518c612bb2565b0390a36001600b55005b015190508f80610e56565b9060048401600052806000209160005b601f1985168110610fa1575083600593610f199a9896936001936000805160206138528339815191529f9e9d9b9997601f19811610610f88575b505050811b016004820155610e6e565b015160001960f88460031b161c191690558f8080610f78565b91926020600181928685015181550194019201610f3e565b600484016000526020600020601f840160051c810160208510610ff9575b601f830160051c82018110610fed575050610e1f565b60008155600101610fd7565b5080610fd7565b634e487b7160e01b600052604160045260246000fd5b015190508c80610ddb565b92506003840160005280600020906000935b601f1984168510611077576001945083601f1981161061105e575b505050811b016003820155610df3565b015160001960f88460031b161c191690558c808061104e565b81810151835560209485019460019093019290910190611033565b909150600384016000526020600020601f840160051c8101602085106110de575b90849392915b601f830160051c820181106110cf575050610dc4565b600081558594506001016110b9565b50806110b3565b015190508c80610d7e565b92506002840160005280600020906000935b601f1984168510611146576001945083601f1981161061112d575b505050811b016002820155610d96565b015160001960f88460031b161c191690558c808061111d565b81810151835560209485019460019093019290910190611102565b909150600284016000526020600020601f840160051c8101602085106111ad575b90849392915b601f830160051c8201811061119e575050610d67565b60008155859450600101611188565b5080611182565b015190508c80610d21565b92506001840160005280600020906000935b601f1984168510611215576001945083601f198116106111fc575b505050811b016001820155610d39565b015160001960f88460031b161c191690558c80806111ec565b818101518355602094850194600190930192909101906111d1565b909150600184016000526020600020601f840160051c81016020851061127c575b90849392915b601f830160051c8201811061126d575050610d0a565b60008155859450600101611257565b5080611251565b015190508c80610cc7565b92508360005280600020906000935b601f19841685106112de576001945083601f198116106112c5575b505050811b018155610cdc565b015160001960f88460031b161c191690558c80806112b8565b8181015183556020948501946001909301929091019061129d565b909150836000526020600020601f840160051c810160208510611342575b90849392915b601f830160051c82018110611333575050610cb0565b6000815585945060010161131d565b5080611317565b346101bf5760003660031901126101bf57600a546040516001600160a01b039091168152602090f35b346101bf5760003660031901126101bf576114116113af7f000000000000000000000000000000000000000000000000000000000000000061328b565b6113d87f00000000000000000000000000000000000000000000000000000000000000006132ef565b602061141f604051926113eb83856128a6565b600084526000368137604051958695600f60f81b875260e08588015260e08701906127ff565b9085820360408701526127ff565b466060850152306080850152600060a085015283810360c085015281808451928381520193019160005b82811061145857505050500390f35b835185528695509381019392810192600101611449565b346101bf5760003660031901126101bf5761148861303d565b6114906130eb565b600160ff19600c541617600c557f62e78cea01bee320cd4e420270b5ea74000d11b0c9f74754ebdbfc544b05a2586020604051338152a1005b346101bf5760003660031901126101bf576114e261303d565b600a80546001600160a01b031981169091556000906001600160a01b03167f8be0079c531659141344cd1fd0a4f28419497f9722a3daafe3b4186f6b6457e08280a3005b346101bf5760203660031901126101bf576020611549611544612824565b612cbb565b604051908152f35b346101bf5760003660031901126101bf57602060ff601754166040519015158152f35b346101bf5760003660031901126101bf576020601654604051908152f35b346101bf5760203660031901126101bf5760206115b0600435612c98565b6040516001600160a01b039091168152f35b346101bf5760003660031901126101bf57602060ff600c54166040519015158152f35b346101bf5760203660031901126101bf576004356001600160401b0381116101bf57611615903690600401612919565b61161d61303d565b60ff601754166117625780516001600160401b0381116110005761164260135461299d565b601f81116116f5575b50602091601f82116001146116895791819260009261167e575b5050600019600383901b1c191660019190911b17601355005b015190508280611665565b601f1982169260136000526000805160206138728339815191529160005b8581106116dd575083600195106116c4575b505050811b01601355005b015160001960f88460031b161c191690558280806116b9565b919260206001819286850151815501940192016116a7565b6013600052601f820160051c60008051602061387283398151915201906020831061174c575b601f0160051c60008051602061387283398151915201905b818110611740575061164b565b60008155600101611733565b600080516020613872833981519152915061171b565b60405162461bcd60e51b815260206004820152601260248201527113595d1859185d18481a5cc81b1bd8dad95960721b6044820152606490fd5b346101bf5760203660031901126101bf576004356008548110156117ee576000906008548110156117da576020826008829452200154604051908152f35b634e487b7160e01b82526032600452602482fd5b60405162461bcd60e51b815260206004820152602c60248201527f455243373231456e756d657261626c653a20676c6f62616c20696e646578206f60448201526b7574206f6620626f756e647360a01b6064820152608490fd5b6101803660031901126101bf576004356001600160401b0381116101bf57611874903690600401612919565b610140526024356001600160401b0381116101bf57611897903690600401612919565b610100526044356001600160401b0381116101bf576118ba903690600401612919565b610120526064356001600160401b0381116101bf576118dd903690600401612919565b6084356001600160401b0381116101bf576118fc903690600401612919565b90611905612937565b61190d612947565b90611916612968565b61191e612979565b61192661298b565b9061192f612957565b92610164356001600160401b0381116101bf57366023820112156101bf578060040135906001600160401b0382116101bf5736602483830101116101bf57611975613095565b61197d6130eb565b60145434036122b057611acb91611abd611ac39260428c8e60ff8e818f60155443146000146122a2576119b1601654612afa565b6016555b60146016541161225f575b610140515160206101405101209561010051516020610100510120956101205151602061012051012091602081519101209060208151910120916040519760208901997f895826200edb6cc088706e3c6d1b49b4f22b0a5fc32db2a897bd5e01ab7adb828b523360408b015260608a0152608089015260a088015260c087015260e0860152166101008401521661012082015261ffff891661014082015261ffff8a1661016082015261ffff8b1661018082015260ff8c166101a08201526101a08152611a8f6101c0826128a6565b519020611a9a61339d565b906040519161190160f01b835260028301526022820152209260243692016128e2565b906134b9565b9190916134f1565b600f546001600160a01b0390811691160361222657611aeb601154612afa565b6101605261016051601155611b03610160513361312f565b604051611b0f8161288a565b61014051815261010051602082015261012051604082015287606082015288608082015260ff861660a082015260ff871660c082015261ffff821660e082015261ffff831661010082015261ffff841661012082015260ff8516610140820152610160516000526010602052604060002081518051906001600160401b038211611000578190611b9f845461299d565b601f81116121d6575b50602090601f831160011461216b57600092612160575b50508160011b916000199060031b1c19161781555b60208201518051906001600160401b038211611000578190611bf9600185015461299d565b601f811161210d575b50602090601f831160011461209c57600092612091575b50508160011b916000199060031b1c19161760018201555b60408201518051906001600160401b038211611000578190611c56600285015461299d565b601f811161203e575b50602090601f8311600114611fcd57600092611fc2575b50508160011b916000199060031b1c19161760028201555b60608201518051906001600160401b038211611000578190611cb3600385015461299d565b601f8111611f6f575b50602090601f8311600114611efe57600092611ef3575b50508160011b916000199060031b1c19161760038201555b60808201518051906001600160401b03821161100057611d0e600484015461299d565b601f8111611eac575b50602090601f8311600114611e215792826000805160206138528339815191529b9a99979593600593610f199a9896600092611e16575b50508160011b916000199060031b1c19161760048201555b019060ff60a0820151169082549161ff0060c083015160081b169263ffff000060e084015160101b1665ffff0000000061010085015160201b169260ff60401b61014061ffff60301b61012088015160301b1696015160401b169560ff60401b199361ffff60301b199265ffff00000000199163ffffffff19161716171617161717179055611df761016051612b4d565b604051968796610160519b339b6101205161010051610140518c612bb2565b015190508f80611d4e565b9060048401600052806000209160005b601f1985168110611e94575083600593610f199a9896936001936000805160206138528339815191529f9e9d9b9997601f19811610611e7b575b505050811b016004820155611d66565b015160001960f88460031b161c191690558f8080611e6b565b91926020600181928685015181550194019201611e31565b600484016000526020600020601f840160051c810160208510611eec575b601f830160051c82018110611ee0575050611d17565b60008155600101611eca565b5080611eca565b015190508c80611cd3565b92506003840160005280600020906000935b601f1984168510611f54576001945083601f19811610611f3b575b505050811b016003820155611ceb565b015160001960f88460031b161c191690558c8080611f2b565b81810151835560209485019460019093019290910190611f10565b909150600384016000526020600020601f840160051c810160208510611fbb575b90849392915b601f830160051c82018110611fac575050611cbc565b60008155859450600101611f96565b5080611f90565b015190508c80611c76565b92506002840160005280600020906000935b601f1984168510612023576001945083601f1981161061200a575b505050811b016002820155611c8e565b015160001960f88460031b161c191690558c8080611ffa565b81810151835560209485019460019093019290910190611fdf565b909150600284016000526020600020601f840160051c81016020851061208a575b90849392915b601f830160051c8201811061207b575050611c5f565b60008155859450600101612065565b508061205f565b015190508c80611c19565b92506001840160005280600020906000935b601f19841685106120f2576001945083601f198116106120d9575b505050811b016001820155611c31565b015160001960f88460031b161c191690558c80806120c9565b818101518355602094850194600190930192909101906120ae565b909150600184016000526020600020601f840160051c810160208510612159575b90849392915b601f830160051c8201811061214a575050611c02565b60008155859450600101612134565b508061212e565b015190508c80611bbf565b92508360005280600020906000935b601f19841685106121bb576001945083601f198116106121a2575b505050811b018155611bd4565b015160001960f88460031b161c191690558c8080612195565b8181015183556020948501946001909301929091019061217a565b909150836000526020600020601f840160051c81016020851061221f575b90849392915b601f830160051c82018110612210575050611ba8565b600081558594506001016121fa565b50806121f4565b60405162461bcd60e51b8152602060048201526011602482015270496e76616c6964207369676e617475726560781b6044820152606490fd5b6122676130eb565b60018219600c541617600c557f62e78cea01bee320cd4e420270b5ea74000d11b0c9f74754ebdbfc544b05a2586020604051338152a16119c0565b4360155560016016556119b5565b60405162461bcd60e51b8152602060048201526011602482015270125b98dbdc9c9958dd081c185e5b595b9d607a1b6044820152606490fd5b346101bf5761064261063d6122fd36612850565b906040519261230d6020856128a6565b6000845261062d6106288433612d32565b346101bf5760003660031901126101bf5761233761303d565b600c5460ff8116156123765760ff1916600c557f5db9ee0a495bf2e6ff9c91a7834c1ba4fdd244a5e8aa4e537bd38aeae4b073aa6020604051338152a1005b60405162461bcd60e51b815260206004820152601460248201527314185d5cd8589b194e881b9bdd081c185d5cd95960621b6044820152606490fd5b346101bf5760003660031901126101bf576123cb61303d565b6123d3613095565b6123db6130eb565b600080808060018060a01b03600a5416479082821561240e575bf115612402576001600b55005b6040513d6000823e3d90fd5b506108fc6123f5565b346101bf5760403660031901126101bf57612430612824565b6024359061243d81612cbb565b8210156124705760018060a01b031660005260066020526040600020906000526020526020604060002054604051908152f35b60405162461bcd60e51b815260206004820152602b60248201527f455243373231456e756d657261626c653a206f776e657220696e646578206f7560448201526a74206f6620626f756e647360a81b6064820152608490fd5b346101bf576106426124da36612850565b916124e86106288433612d32565b612e05565b346101bf5760003660031901126101bf576020600854604051908152f35b346101bf5760403660031901126101bf57612524612824565b602435906001600160a01b0361253983612c98565b6001600160a01b03909216911681811461264557803314908115612620575b50156125b557600082815260046020526040902080546001600160a01b031916821790556001600160a01b0361258d83612c98565b167f8c5be1e5ebec7d5bd14f71427d1e84f3dd0314c0f7b2291e5b200ac8c7c3b925600080a4005b60405162461bcd60e51b815260206004820152603d60248201527f4552433732313a20617070726f76652063616c6c6572206973206e6f7420746f60448201527f6b656e206f776e6572206f7220617070726f76656420666f7220616c6c0000006064820152608490fd5b600090815260056020908152604080832033845290915290205460ff16905083612558565b60405162461bcd60e51b815260206004820152602160248201527f4552433732313a20617070726f76616c20746f2063757272656e74206f776e656044820152603960f91b6064820152608490fd5b346101bf5760203660031901126101bf5760206115b0600435612a5a565b346101bf5760003660031901126101bf57604051600080546126d38161299d565b8084529060018116908115610ac957506001146126fa576104a483610490818503826128a6565b60008080527f290decd9548b62a8d60345a988386fc84ba6bc95484008f6362f93160ef3e563939250905b80821061273d57509091508101602001610490610a5a565b919260018160209254838588010152019101909291612725565b346101bf5760203660031901126101bf576004359063ffffffff60e01b82168092036101bf5760209163780e9d6360e01b8114908115612799575b5015158152f35b6380ac58cd60e01b8114915081156127cb575b81156127ba575b5083612792565b6301ffc9a760e01b149050836127b3565b635b5e139f60e01b811491506127ac565b60005b8381106127ef5750506000910152565b81810151838201526020016127df565b90602091612818815180928185528580860191016127dc565b601f01601f1916010190565b600435906001600160a01b03821682036101bf57565b602435906001600160a01b03821682036101bf57565b60609060031901126101bf576004356001600160a01b03811681036101bf57906024356001600160a01b03811681036101bf579060443590565b61016081019081106001600160401b0382111761100057604052565b90601f801991011681019081106001600160401b0382111761100057604052565b6001600160401b03811161100057601f01601f191660200190565b9291926128ee826128c7565b916128fc60405193846128a6565b8294818452818301116101bf578281602093846000960137010152565b9080601f830112156101bf57816020612934933591016128e2565b90565b60a4359060ff821682036101bf57565b60c4359060ff821682036101bf57565b610144359060ff821682036101bf57565b60e4359061ffff821682036101bf57565b610104359061ffff821682036101bf57565b610124359061ffff821682036101bf57565b90600182811c921680156129cd575b60208310146129b757565b634e487b7160e01b600052602260045260246000fd5b91607f16916129ac565b600092918154916129e78361299d565b8083529260018116908115612a3d5750600114612a0357505050565b60009081526020812093945091925b838310612a23575060209250010190565b600181602092949394548385870101520191019190612a12565b915050602093945060ff929192191683830152151560051b010190565b600081815260026020526040902054612a7d906001600160a01b03161515612c4c565b6000908152600460205260409020546001600160a01b031690565b15612a9f57565b60405162461bcd60e51b815260206004820152602d60248201527f4552433732313a2063616c6c6572206973206e6f7420746f6b656e206f776e6560448201526c1c881bdc88185c1c1c9bdd9959609a1b6064820152608490fd5b6000198114612b095760010190565b634e487b7160e01b600052601160045260246000fd5b8054821015612b375760005260206000200190600090565b634e487b7160e01b600052603260045260246000fd5b60125490600160401b82101561100057612b72826001612b8b94016012556012612b1f565b90919082549060031b91821b91600019901b1916179055565b565b60085490600160401b82101561100057612b72826001612b8b94016008556008612b1f565b999461ffff969c9b9760ff612c258d829c9594612c176101409f999a612c098e9c612bfb8e9c612bed8a9c6101608a526101608a01906127ff565b9088820360208a01526127ff565b9086820360408801526127ff565b9084820360608601526127ff565b9160808184039101526127ff565b9e1660a08d01521660c08b01521660e0890152166101008701521661012085015216910152565b15612c5357565b60405162461bcd60e51b815260206004820152601860248201527f4552433732313a20696e76616c696420746f6b656e20494400000000000000006044820152606490fd5b6000908152600260205260409020546001600160a01b0316612934811515612c4c565b6001600160a01b03168015612cdb57600052600360205260406000205490565b60405162461bcd60e51b815260206004820152602960248201527f4552433732313a2061646472657373207a65726f206973206e6f7420612076616044820152683634b21037bbb732b960b91b6064820152608490fd5b906001600160a01b03612d4482612c98565b6001600160a01b0390931692168281149291908315612d84575b508215612d6a57505090565b9091506001600160a01b0390612d7f90612a5a565b161490565b909250600052600560205260406000208160005260205260ff604060002054169138612d5e565b15612db257565b60405162461bcd60e51b815260206004820152602560248201527f4552433732313a207472616e736665722066726f6d20696e636f72726563742060448201526437bbb732b960d91b6064820152608490fd5b90612e0f83612c98565b6001600160a01b038381169291612e2891168314612dab565b6001600160a01b038116928315612fec5782612f2b575060008051602061389283398151915290600854856000526009602052604060002055612e6a85612b8d565b600090838503612ef7575b50612e92836001600160a01b03612e8b88612c98565b1614612dab565b8481526004602052604081206001600160601b0360a01b8154169055828152600360205260408120600019815401905583815260036020526040812060018154019055848152600260205260408120846001600160601b0360a01b82541617905580a4565b612f0090612cbb565b8482526006602052604082208183526020528560408320558582526007602052604082205538612e75565b838303612f49575b5060008051602061389283398151915290612e6a565b612f5290612cbb565b600019810191908211612b095760008051602061389283398151915291856000526007602052604060002054818103612fb9575b50856000526007602052600060408120558360005260066020526040600020906000526020526000604081205590612f33565b60008581526006602090815260408083208584528252808320548484528184208190558352600790915290205538612f86565b60405162461bcd60e51b8152602060048201526024808201527f4552433732313a207472616e7366657220746f20746865207a65726f206164646044820152637265737360e01b6064820152608490fd5b600a546001600160a01b0316330361305157565b606460405162461bcd60e51b815260206004820152602060248201527f4f776e61626c653a2063616c6c6572206973206e6f7420746865206f776e65726044820152fd5b6002600b54146130a6576002600b55565b60405162461bcd60e51b815260206004820152601f60248201527f5265656e7472616e637947756172643a207265656e7472616e742063616c6c006044820152606490fd5b60ff600c54166130f757565b60405162461bcd60e51b815260206004820152601060248201526f14185d5cd8589b194e881c185d5cd95960821b6044820152606490fd5b6040519190602061314081856128a6565b600084526001600160a01b0382169081158015919061324857938092612b8b969492600261063d9761319061318a86600052600260205260018060a01b0360406000205416151590565b15613805565b60085485600052600982526040600020556131aa85612b8d565b600092613218575b6000858152600260205260409020546131d5906001600160a01b0316151561318a565b8383526003815260408320600181540190558483525260408120826001600160601b0360a01b8254161790556000805160206138928339815191528180a461360b565b61322186612cbb565b848452600682526040842081855282528560408520558584526007825260408420556131b2565b6064906040519062461bcd60e51b825280600483015260248201527f4552433732313a206d696e7420746f20746865207a65726f20616464726573736044820152fd5b60ff81146132d55760ff811690601f82116132c45760408051926132af82856128a6565b6020808552840191601f190136833783525290565b632cd44ac360e21b60005260046000fd5b50604051612934816132e881600d6129d7565b03826128a6565b60ff81146133135760ff811690601f82116132c45760408051926132af82856128a6565b50604051612934816132e881600e6129d7565b60809060208152603260208201527f4552433732313a207472616e7366657220746f206e6f6e20455243373231526560408201527131b2b4bb32b91034b6b83632b6b2b73a32b960711b60608201520190565b1561338057565b60405162461bcd60e51b81528061339960048201613326565b0390fd5b307f00000000000000000000000000000000000000000000000000000000000000006001600160a01b03161480613490575b156133f8577f000000000000000000000000000000000000000000000000000000000000000090565b60405160208101907f8b73c3c69bb8fe3d512ecc4cf759cc79239f7b179b0ffacaa9a75d522b39400f82527f000000000000000000000000000000000000000000000000000000000000000060408201527f000000000000000000000000000000000000000000000000000000000000000060608201524660808201523060a082015260a0815261348a60c0826128a6565b51902090565b507f000000000000000000000000000000000000000000000000000000000000000046146133cf565b9060418151146000146134e7576134e3916020820151906060604084015193015160001a90613785565b9091565b5050600090600290565b60058110156135f557806135025750565b6001810361354f5760405162461bcd60e51b815260206004820152601860248201527f45434453413a20696e76616c6964207369676e617475726500000000000000006044820152606490fd5b6002810361359c5760405162461bcd60e51b815260206004820152601f60248201527f45434453413a20696e76616c6964207369676e6174757265206c656e677468006044820152606490fd5b6003146135a557565b60405162461bcd60e51b815260206004820152602260248201527f45434453413a20696e76616c6964207369676e6174757265202773272076616c604482015261756560f01b6064820152608490fd5b634e487b7160e01b600052602160045260246000fd5b91823b1561372457613651926020926000604051809681958294630a85bd0160e11b845233600485015284602485015260448401526080606484015260848301906127ff565b03926001600160a01b03165af180916000916136da575b50906136c4573d156136bd573d61367e816128c7565b9061368c60405192836128a6565b81523d6000602083013e5b805190816136b85760405162461bcd60e51b81528061339960048201613326565b602001fd5b6060613697565b6001600160e01b031916630a85bd0160e11b1490565b6020813d60201161371c575b816136f3602093836128a6565b810103126137185751906001600160e01b031982168203613715575038613668565b80fd5b5080fd5b3d91506136e6565b505050600190565b919290803b1561377c5761365193600060209460405196879586948593630a85bd0160e11b855233600486015260018060a01b0316602485015260448401526080606484015260848301906127ff565b50505050600190565b7f7fffffffffffffffffffffffffffffff5d576e7357a4501ddfe92f46681b20a084116137f95760209360009360ff60809460405194855216868401526040830152606082015282805260015afa15612402576000516001600160a01b038116156137f05790600090565b50600090600190565b50505050600090600390565b1561380c57565b60405162461bcd60e51b815260206004820152601c60248201527f4552433732313a20746f6b656e20616c7265616479206d696e746564000000006044820152606490fdfeaaceb5242f61266f098c381432daaefa6889a0d47114da291ed93039c30c09b266de8ffda797e3de9c05e8fc57b3bf0ec28a930d40b0d285d93c06501cf6a090ddf252ad1be2c89b69c2b068fc378daa952ba7f163c4a11628f55a4df523b3efa264697066735822122022c21dccf14f6ccdb1c90e4dd4ce32cac10fdefbe4e074be4f998113227506a264736f6c634300081c0033",
  "linkReferences": {},
  "deployedLinkReferences": {}
}