{
  "_format": "hh-sol-artifact-1",
  "contractName": "PokemonNFT",
  "sourceName": "contracts/PokemonNFT.sol",
  "abi": [
    {
      "inputs": [
        {
          "internalType": "string",
          "name": "baseURI",
          "type": "string"
        }
      ],
      "stateMutability": "nonpayable",
      "type": "constructor"
    },
    {
      "anonymous": false,
      "inputs": [
        {
          "indexed": true,
          "internalType": "address",
          "name": "owner",
          "type": "address"
        },
        {
          "indexed": true,
          "internalType": "address",
          "name": "approved",
          "type": "address"
        },
        {
          "indexed": true,
          "internalType": "uint256",
          "name": "tokenId",
          "type": "uint256"
        }
      ],
      "name": "Approval",
      "type": "event"
    },
    {
      "anonymous": false,
      "inputs": [
        {
          "indexed": true,
          "internalType": "address",
          "name": "owner",
          "type": "address"
        },
        {
          "indexed": true,
          "internalType": "address",
          "name": "operator",
          "type": "address"
        },
        {
          "indexed": false,
          "internalType": "bool",
          "name": "approved",
          "type": "bool"
        }
      ],
      "name": "ApprovalForAll",
      "type": "event"
    },
    {
      "anonymous": false,
      "inputs": [
        {
          "indexed": true,
          "internalType": "address",
          "name": "previousOwner",
          "type": "address"
        },
        {
          "indexed": true,
          "internalType": "address",
          "name": "newOwner",
          "type": "address"
        }
      ],
      "name": "OwnershipTransferred",
      "type": "event"
    },
    {
      "anonymous": false,
      "inputs": [
        {
          "indexed": false,
          "internalType": "address",
          "name": "account",
          "type": "address"
        }
      ],
      "name": "Paused",
      "type": "event"
    },
    {
      "anonymous": false,
      "inputs": [
        {
          "indexed": true,
          "internalType": "address",
          "name": "owner",
          "type": "address"
        },
        {
          "indexed": true,
          "internalType": "uint256",
          "name": "tokenId",
          "type": "uint256"
        },
        {
          "indexed": false,
          "internalType": "string",
          "name": "name",
          "type": "string"
        },
        {
          "indexed": false,
          "internalType": "string",
          "name": "gender",
          "type": "string"
        },
        {
          "indexed": false,
          "internalType": "string",
          "name": "pokemonType",
          "type": "string"
        },
        {
          "indexed": false,
          "internalType": "string",
          "name": "spAttack",
          "type": "string"
        },
        {
          "indexed": false,
          "internalType": "string",
          "name": "spDefense",
          "type": "string"
        },
        {
          "indexed": false,
          "internalType": "uint8",
          "name": "level",
          "type": "uint8"
        },
        {
          "indexed": false,
          "internalType": "uint8",
          "name": "hp",
          "type": "uint8"
        },
        {
          "indexed": false,
          "internalType": "uint16",
          "name": "attack",
          "type": "uint16"
        },
        {
          "indexed": false,
          "internalType": "uint16",
          "name": "defense",
          "type": "uint16"
        },
        {
          "indexed": false,
          "internalType": "uint16",
          "name": "speed",
          "type": "uint16"
        },
        {
          "indexed": false,
          "internalType": "uint8",
          "name": "purity",
          "type": "uint8"
        }
      ],
      "name": "PokemonCardMinted",
      "type": "event"
    },
    {
      "anonymous": false,
      "inputs": [
        {
          "indexed": true,
          "internalType": "address",
          "name": "from",
          "type": "address"
        },
        {
          "indexed": true,
          "internalType": "address",
          "name": "to",
          "type": "address"
        },
        {
          "indexed": true,
          "internalType": "uint256",
          "name": "tokenId",
          "type": "uint256"
        }
      ],
      "name": "Transfer",
      "type": "event"
    },
    {
      "anonymous": false,
      "inputs": [
        {
          "indexed": false,
          "internalType": "address",
          "name": "account",
          "type": "address"
        }
      ],
      "name": "Unpaused",
      "type": "event"
    },
    {
      "inputs": [
        {
          "internalType": "address",
          "name": "to",
          "type": "address"
        },
        {
          "internalType": "uint256",
          "name": "tokenId",
          "type": "uint256"
        }
      ],
      "name": "approve",
      "outputs": [],
      "stateMutability": "nonpayable",
      "type": "function"
    },
    {
      "inputs": [
        {
          "internalType": "address",
          "name": "owner",
          "type": "address"
        }
      ],
      "name": "balanceOf",
      "outputs": [
        {
          "internalType": "uint256",
          "name": "",
          "type": "uint256"
        }
      ],
      "stateMutability": "view",
      "type": "function"
    },
    {
      "inputs": [],
      "name": "boxPrice",
      "outputs": [
        {
          "internalType": "uint256",
          "name": "",
          "type": "uint256"
        }
      ],
      "stateMutability": "view",
      "type": "function"
    },
    {
      "inputs": [
        {
          "internalType": "uint256",
          "name": "tokenId",
          "type": "uint256"
        }
      ],
      "name": "getApproved",
      "outputs": [
        {
          "internalType": "address",
          "name": "",
          "type": "address"
        }
      ],
      "stateMutability": "view",
      "type": "function"
    },
    {
      "inputs": [
        {
          "internalType": "uint256",
          "name": "tokenId",
          "type": "uint256"
        }
      ],
      "name": "getPokemonAttributes",
      "outputs": [
        {
          "components": [
            {
              "internalType": "string",
              "name": "name",
              "type": "string"
            },
            {
              "internalType": "string",
              "name": "gender",
              "type": "string"
            },
            {
              "internalType": "string",
              "name": "pokemonType",
              "type": "string"
            },
            {
              "internalType": "string",
              "name": "spAttack",
              "type": "string"
            },
            {
              "internalType": "string",
              "name": "spDefense",
              "type": "string"
            },
            {
              "internalType": "uint8",
              "name": "level",
              "type": "uint8"
            },
            {
              "internalType": "uint8",
              "name": "hp",
              "type": "uint8"
            },
            {
              "internalType": "uint16",
              "name": "attack",
              "type": "uint16"
            },
            {
              "internalType": "uint16",
              "name": "defense",
              "type": "uint16"
            },
            {
              "internalType": "uint16",
              "name": "speed",
              "type": "uint16"
            },
            {
              "internalType": "uint8",
              "name": "purity",
              "type": "uint8"
            }
          ],
          "internalType": "struct PokemonNFT.PokemonAttributes",
          "name": "",
          "type": "tuple"
        }
      ],
      "stateMutability": "view",
      "type": "function"
    },
    {
      "inputs": [
        {
          "internalType": "address",
          "name": "owner",
          "type": "address"
        },
        {
          "internalType": "address",
          "name": "operator",
          "type": "address"
        }
      ],
      "name": "isApprovedForAll",
      "outputs": [
        {
          "internalType": "bool",
          "name": "",
          "type": "bool"
        }
      ],
      "stateMutability": "view",
      "type": "function"
    },
    {
      "inputs": [],
      "name": "lastMintBlock",
      "outputs": [
        {
          "internalType": "uint256",
          "name": "",
          "type": "uint256"
        }
      ],
      "stateMutability": "view",
      "type": "function"
    },
    {
      "inputs": [],
      "name": "lockMetadata",
      "outputs": [],
      "stateMutability": "nonpayable",
      "type": "function"
    },
    {
      "inputs": [],
      "name": "metadataLocked",
      "outputs": [
        {
          "internalType": "bool",
          "name": "",
          "type": "bool"
        }
      ],
      "stateMutability": "view",
      "type": "function"
    },
    {
      "inputs": [
        {
          "internalType": "string",
          "name": "name",
          "type": "string"
        },
        {
          "internalType": "string",
          "name": "gender",
          "type": "string"
        },
        {
          "internalType": "string",
          "name": "pokemonType",
          "type": "string"
        },
        {
          "internalType": "string",
          "name": "spAttack",
          "type": "string"
        },
        {
          "internalType": "string",
          "name": "spDefense",
          "type": "string"
        },
        {
          "internalType": "uint8",
          "name": "level",
          "type": "uint8"
        },
        {
          "internalType": "uint8",
          "name": "hp",
          "type": "uint8"
        },
        {
          "internalType": "uint16",
          "name": "attack",
          "type": "uint16"
        },
        {
          "internalType": "uint16",
          "name": "defense",
          "type": "uint16"
        },
        {
          "internalType": "uint16",
          "name": "speed",
          "type": "uint16"
        },
        {
          "internalType": "uint8",
          "name": "purity",
          "type": "uint8"
        }
      ],
      "name": "mintRandomPokemon",
      "outputs": [],
      "stateMutability": "nonpayable",
      "type": "function"
    },
    {
      "inputs": [],
      "name": "mintsThisBlock",
      "outputs": [
        {
          "internalType": "uint256",
          "name": "",
          "type": "uint256"
        }
      ],
      "stateMutability": "view",
      "type": "function"
    },
    {
      "inputs": [],
      "name": "name",
      "outputs": [
        {
          "internalType": "string",
          "name": "",
          "type": "string"
        }
      ],
      "stateMutability": "view",
      "type": "function"
    },
    {
      "inputs": [
        {
          "internalType": "string",
          "name": "name",
          "type": "string"
        },
        {
          "internalType": "string",
          "name": "gender",
          "type": "string"
        },
        {
          "internalType": "string",
          "name": "pokemonType",
          "type": "string"
        },
        {
          "internalType": "string",
          "name": "spAttack",
          "type": "string"
        },
        {
          "internalType": "string",
          "name": "spDefense",
          "type": "string"
        },
        {
          "internalType": "uint8",
          "name": "level",
          "type": "uint8"
        },
        {
          "internalType": "uint8",
          "name": "hp",
          "type": "uint8"
        },
        {
          "internalType": "uint16",
          "name": "attack",
          "type": "uint16"
        },
        {
          "internalType": "uint16",
          "name": "defense",
          "type": "uint16"
        },
        {
          "internalType": "uint16",
          "name": "speed",
          "type": "uint16"
        },
        {
          "internalType": "uint8",
          "name": "purity",
          "type": "uint8"
        },
        {
          "internalType": "bytes",
          "name": "signature",
          "type": "bytes"
        }
      ],
      "name": "openMysteryBox",
      "outputs": [],
      "stateMutability": "payable",
      "type": "function"
    },
    {
      "inputs": [],
      "name": "owner",
      "outputs": [
        {
          "internalType": "address",
          "name": "",
          "type": "address"
        }
      ],
      "stateMutability": "view",
      "type": "function"
    },
    {
      "inputs": [
        {
          "internalType": "uint256",
          "name": "tokenId",
          "type": "uint256"
        }
      ],
      "name": "ownerOf",
      "outputs": [
        {
          "internalType": "address",
          "name": "",
          "type": "address"
        }
      ],
      "stateMutability": "view",
      "type": "function"
    },
    {
      "inputs": [],
      "name": "pause",
      "outputs": [],
      "stateMutability": "nonpayable",
      "type": "function"
    },
    {
      "inputs": [],
      "name": "paused",
      "outputs": [
        {
          "internalType": "bool",
          "name": "",
          "type": "bool"
        }
      ],
      "stateMutability": "view",
      "type": "function"
    },
    {
      "inputs": [],
      "name": "renounceOwnership",
      "outputs": [],
      "stateMutability": "nonpayable",
      "type": "function"
    },
    {
      "inputs": [
        {
          "internalType": "address",
          "name": "from",
          "type": "address"
        },
        {
          "internalType": "address",
          "name": "to",
          "type": "address"
        },
        {
          "internalType": "uint256",
          "name": "tokenId",
          "type": "uint256"
        }
      ],
      "name": "safeTransferFrom",
      "outputs": [],
      "stateMutability": "nonpayable",
      "type": "function"
    },
    {
      "inputs": [
        {
          "internalType": "address",
          "name": "from",
          "type": "address"
        },
        {
          "internalType": "address",
          "name": "to",
          "type": "address"
        },
        {
          "internalType": "uint256",
          "name": "tokenId",
          "type": "uint256"
        },
        {
          "internalType": "bytes",
          "name": "data",
          "type": "bytes"
        }
      ],
      "name": "safeTransferFrom",
      "outputs": [],
      "stateMutability": "nonpayable",
      "type": "function"
    },
    {
      "inputs": [
        {
          "internalType": "address",
          "name": "operator",
          "type": "address"
        },
        {
          "internalType": "bool",
          "name": "approved",
          "type": "bool"
        }
      ],
      "name": "setApprovalForAll",
      "outputs": [],
      "stateMutability": "nonpayable",
      "type": "function"
    },
    {
      "inputs": [
        {
          "internalType": "string",
          "name": "baseURI",
          "type": "string"
        }
      ],
      "name": "setBaseURI",
      "outputs": [],
      "stateMutability": "nonpayable",
      "type": "function"
    },
    {
      "inputs": [
        {
          "internalType": "bytes4",
          "name": "interfaceId",
          "type": "bytes4"
        }
      ],
      "name": "supportsInterface",
      "outputs": [
        {
          "internalType": "bool",
          "name": "",
          "type": "bool"
        }
      ],
      "stateMutability": "view",
      "type": "function"
    },
    {
      "inputs": [],
      "name": "symbol",
      "outputs": [
        {
          "internalType": "string",
          "name": "",
          "type": "string"
        }
      ],
      "stateMutability": "view",
      "type": "function"
    },
    {
      "inputs": [
        {
          "internalType": "uint256",
          "name": "index",
          "type": "uint256"
        }
      ],
      "name": "tokenByIndex",
      "outputs": [
        {
          "internalType": "uint256",
          "name": "",
          "type": "uint256"
        }
      ],
      "stateMutability": "view",
      "type": "function"
    },
    {
      "inputs": [
        {
          "internalType": "address",
          "name": "owner",
          "type": "address"
        },
        {
          "internalType": "uint256",
          "name": "index",
          "type": "uint256"
        }
      ],
      "name": "tokenOfOwnerByIndex",
      "outputs": [
        {
          "internalType": "uint256",
          "name": "",
          "type": "uint256"
        }
      ],
      "stateMutability": "view",
      "type": "function"
    },
    {
      "inputs": [
        {
          "internalType": "uint256",
          "name": "tokenId",
          "type": "uint256"
        }
      ],
      "name": "tokenURI",
      "outputs": [
        {
          "internalType": "string",
          "name": "",
          "type": "string"
        }
      ],
      "stateMutability": "view",
      "type": "function"
    },
    {
      "inputs": [],
      "name": "totalSupply",
      "outputs": [
        {
          "internalType": "uint256",
          "name": "",
          "type": "uint256"
        }
      ],
      "stateMutability": "view",
      "type": "function"
    },
    {
      "inputs": [
        {
          "internalType": "address",
          "name": "from",
          "type": "address"
        },
        {
          "internalType": "address",
          "name": "to",
          "type": "address"
        },
        {
          "internalType": "uint256",
          "name": "tokenId",
          "type": "uint256"
        }
      ],
      "name": "transferFrom",
      "outputs": [],
      "stateMutability": "nonpayable",
      "type": "function"
    },
    {
      "inputs": [
        {
          "internalType": "address",
          "name": "newOwner",
          "type": "address"
        }
      ],
      "name": "transferOwnership",
      "outputs": [],
      "stateMutability": "nonpayable",
      "type": "function"
    },
    {
      "inputs": [],
      "name": "trustedSigner",
      "outputs": [
        {
          "internalType": "address",
          "name": "",
          "type": "address"
        }
      ],
      "stateMutability": "view",
      "type": "function"
    },
    {
      "inputs": [],
      "name": "unpause",
      "outputs": [],
      "stateMutability": "nonpayable",
      "type": "function"
    },
    {
      "inputs": [],
      "name": "withdraw",
      "outputs": [],
      "stateMutability": "nonpayable",
      "type": "function"
    }
  ],
  "bytecode": "0x60806040523461056157613bb28038038061001981610566565b928339810190602081830312610561578051906001600160401b038211610561570181601f82011215610561578051906001600160401b0382116103765761006a601f8301601f1916602001610566565b92828452602083830101116105615760005b82811061054c5783600060208583010152604061009881610566565b91600a835269141bdad95b5bdb93919560b21b60208401526100b982610566565b60048152632825a6a760e11b602082015283519092906001600160401b03811161037657600054600181811c91168015610542575b602082101461035657601f81116104de575b50602094601f82116001146104785794819293949560009261046d575b50508160011b916000199060031b1c1916176000555b82516001600160401b03811161037657600154600181811c91168015610463575b602082101461035657601f81116103fe575b506020601f8211600114610397578192939460009261038c575b50508160011b916000199060031b1c1916176001555b600a8054336001600160a01b0319821681179092556001600160a01b03167f8be0079c531659141344cd1fd0a4f28419497f9722a3daafe3b4186f6b6457e0600080a36001600b55600c80546001600160a81b03191674f39fd6e51aad88f6f4ce6ab8827279cfffb9226600179055662386f26fc1000060115581516001600160401b03811161037657601054600181811c9116801561036c575b602082101461035657601f81116102f1575b50602092601f821160011461028c5792819293600092610281575b50508160011b916000199060031b1c1916176010555b51613626908161058c8239f35b01519050838061025e565b601f198216936010600052806000209160005b8681106102d957508360019596106102c0575b505050811b01601055610274565b015160001960f88460031b161c191690558380806102b2565b9192602060018192868501518155019401920161029f565b60106000527f1b6847dc741a1b0cd08d278845f9d819d87b734759afb55fe2de5cb82a9ae672601f830160051c8101916020841061034c575b601f0160051c01905b8181106103405750610243565b60008155600101610333565b909150819061032a565b634e487b7160e01b600052602260045260246000fd5b90607f1690610231565b634e487b7160e01b600052604160045260246000fd5b015190508480610180565b601f198216906001600052806000209160005b8181106103e6575095836001959697106103cd575b505050811b01600155610196565b015160001960f88460031b161c191690558480806103bf565b9192602060018192868b0151815501940192016103aa565b60016000527fb10e2d527612073b26eecdfd717e6a320cf44b4afac2b0732d9fcbe2b7fa0cf6601f830160051c81019160208410610459575b601f0160051c01905b81811061044d5750610166565b60008155600101610440565b9091508190610437565b90607f1690610154565b01519050858061011d565b601f1982169560008052806000209160005b8881106104c6575083600195969798106104ad575b505050811b01600055610133565b015160001960f88460031b161c1916905585808061049f565b9192602060018192868501518155019401920161048a565b600080527f290decd9548b62a8d60345a988386fc84ba6bc95484008f6362f93160ef3e563601f830160051c81019160208410610538575b601f0160051c01905b81811061052c5750610100565b6000815560010161051f565b9091508190610516565b90607f16906100ee565b8060208092840101518282870101520161007c565b600080fd5b6040519190601f01601f191682016001600160401b038111838210176103765760405256fe61018080604052600436101561001457600080fd5b60003560e01c90816301ffc9a71461262e5750806306fdde0314612589578063081812fc1461256b578063095ea7b3146123e257806318160ddd146123c457806323b872dd146123a05780632f745c59146122ee5780633ccfd60b146122895780633f4ba83a146121f557806342842e0e146121c05780634d4a29ef146116fb5780634f6ccce71461164f57806355f804b3146114985780635c975abb146114755780636352211e1461144557806366c4b91e1461142757806369d2ceb11461140457806370a08231146113d9578063715018a61461137c5780638456cb59146113225780638da5cb5b146112f9578063903369e014610a9757806395d89b41146109ca578063989bdbb6146109a25780639cf5c3f514610984578063a22cb465146108b2578063a648285814610894578063af05033c1461063d578063b88d4fde146105b6578063c87b56dd146102e0578063e985e9c514610285578063f2fde38b146101bd5763f74d54801461018b57600080fd5b346101b85760003660031901126101b857600c5460405160089190911c6001600160a01b03168152602090f35b600080fd5b346101b85760203660031901126101b8576101d66126fb565b6101de612f33565b6001600160a01b0316801561023157600a80546001600160a01b0319811683179091556001600160a01b03167f8be0079c531659141344cd1fd0a4f28419497f9722a3daafe3b4186f6b6457e0600080a3005b60405162461bcd60e51b815260206004820152602660248201527f4f776e61626c653a206e6577206f776e657220697320746865207a65726f206160448201526564647265737360d01b6064820152608490fd5b346101b85760403660031901126101b85761029e6126fb565b6102a6612711565b9060018060a01b0316600052600560205260406000209060018060a01b0316600052602052602060ff604060002054166040519015158152f35b346101b85760203660031901126101b857600435600081815260026020526040902054610317906001600160a01b03161515612b42565b604051601054919060008161032b85612874565b91828252602082019560018116908160001461059a575060011461054c575b6103569250038261277d565b80516000901561052e575081908260009372184f03e93ff9f4daa797ed6e38ed64bf6a1f0160401b811015610508575b50806d04ee2d6d415b85acef8100000000600a9210156104ed575b662386f26fc100008110156104d9575b6305f5e1008110156104c8575b6127108110156104b9575b60648110156104ab575b10156104a1575b6001830191600a60216104056103ef8661279e565b956103fd604051978861277d565b80875261279e565b602086019690601f19013688378501015b60001901916f181899199a1a9b1b9c1cb0b131b232b360811b8282061a83530490811561044557600a90610416565b5050602061046a936104899361047961049d97604051978896518092878901906126b3565b850191518093858401906126b3565b010103601f19810183528261277d565b6040519182916020835260208301906126d6565b0390f35b91600101916103da565b6064600291049401936103d3565b612710600491049401936103c9565b6305f5e100600891049401936103be565b662386f26fc10000601091049401936103b1565b6d04ee2d6d415b85acef8100000000602091049401936103a1565b6040945072184f03e93ff9f4daa797ed6e38ed64bf6a1f0160401b90049050600a610386565b91505061049d91506040519061054560208361277d565b8152610489565b506010600090815290916000805160206135d18339815191525b81831061057e5750509060206103569282010161034a565b6020919350806001915483858801015201910190918392610566565b60ff191687525061035692151560051b8201602001905061034a565b346101b85760803660031901126101b8576105cf6126fb565b6105d7612711565b90606435906044356001600160401b0383116101b857366023840112156101b85761063b936106136106369436906024816004013591016127b9565b926106266106218433612c28565b612990565b610631838383612cfb565b61346b565b6131d4565b005b346101b85760203660031901126101b857600435600061014060405161066281612761565b606081526060602082015260606040820152606080820152606060808201528260a08201528260c08201528260e0820152826101008201528261012082015201526106c281600052600260205260018060a01b0360406000205416151590565b1561085857600052600d60205260406000206040516106e081612761565b6106e9826128ae565b81526106f7600183016128ae565b602082019081529161070b600282016128ae565b6040830190815261071e600383016128ae565b6060840190815290610732600484016128ae565b9260808501938452600501549160a085019360ff8416855260c086018460081c60ff16815260e08701918560101c61ffff1683526101008801938660201c61ffff1685526101208901958760301c61ffff1687526101408a019760401c60ff1688526040519a8b9a60208c525160208c0161016090526101808c016107b6916126d6565b90518b8203601f190160408d01526107ce91906126d6565b90518a8203601f190160608c01526107e691906126d6565b9051898203601f190160808b01526107fe91906126d6565b9051888203601f190160a08a015261081691906126d6565b955160ff1660c08801525160ff1660e08701525161ffff166101008601525161ffff166101208501525161ffff166101408401525160ff166101608301520390f35b60405162461bcd60e51b8152602060048201526014602482015273151bdad95b88191bd95cc81b9bdd08195e1a5cdd60621b6044820152606490fd5b346101b85760003660031901126101b8576020601154604051908152f35b346101b85760403660031901126101b8576108cb6126fb565b602435908115158092036101b8576001600160a01b03169033821461093f57336000526005602052604060002082600052602052604060002060ff1981541660ff83161790556040519081527f17307eab39ab6107e8899845ad3d59bd9653f200f220920489ca2b5937696c3160203392a3005b60405162461bcd60e51b815260206004820152601960248201527f4552433732313a20617070726f766520746f2063616c6c6572000000000000006044820152606490fd5b346101b85760003660031901126101b8576020601254604051908152f35b346101b85760003660031901126101b8576109bb612f33565b6014805460ff19166001179055005b346101b85760003660031901126101b85760405160006001546109ec81612874565b8084529060018116908115610a735750600114610a14575b61049d836104898185038261277d565b600160009081527fb10e2d527612073b26eecdfd717e6a320cf44b4afac2b0732d9fcbe2b7fa0cf6939250905b808210610a5957509091508101602001610489610a04565b919260018160209254838588010152019101909291610a41565b60ff191660208086019190915291151560051b840190910191506104899050610a04565b346101b8576101603660031901126101b8576004356001600160401b0381116101b857610ac89036906004016127f0565b60e0526024356001600160401b0381116101b857610aea9036906004016127f0565b6080526044356001600160401b0381116101b857610b0c9036906004016127f0565b60c0526064356001600160401b0381116101b857610b2e9036906004016127f0565b6084356001600160401b0381116101b857610b4d9036906004016127f0565b90610b5661280e565b610b5e61281e565b90610b6761283f565b610b6f612850565b610b77612862565b90610b8061282e565b92610b89612f33565b610b91612f8b565b610b99612fe1565b610ba4600e546129f2565b6101005261010051600e55610bbc6101005133613025565b604051610bc881612761565b60e0518152608051602082015260c051604082015287606082015288608082015260ff861660a082015260ff871660c082015261ffff821660e082015261ffff831661010082015261ffff841661012082015260ff851661014082015261010051600052600d602052604060002081518051906001600160401b038211610fb0578190610c558454612874565b601f81116112a9575b50602090601f831160011461123e57600092611233575b50508160011b916000199060031b1c19161781555b60208201518051906001600160401b038211610fb0578190610caf6001850154612874565b601f81116111e0575b50602090601f831160011461116f57600092611164575b50508160011b916000199060031b1c19161760018201555b60408201518051906001600160401b038211610fb0578190610d0c6002850154612874565b601f8111611111575b50602090601f83116001146110a057600092611095575b50508160011b916000199060031b1c19161760028201555b60608201518051906001600160401b038211610fb0578190610d696003850154612874565b601f8111611042575b50602090601f8311600114610fd157600092610fc6575b50508160011b916000199060031b1c19161760038201555b60808201518051906001600160401b038211610fb057610dc46004840154612874565b601f8111610f69575b50602090601f8311600114610ede5792826000805160206135918339815191529b9a99979593600593610ec99a9896600092610ed3575b50508160011b916000199060031b1c19161760048201555b019060ff60a0820151169082549161ff0060c083015160081b169263ffff000060e084015160101b1665ffff0000000061010085015160201b169260ff60401b61014061ffff60301b61012088015160301b1696015160401b169560ff60401b199361ffff60301b199265ffff00000000199163ffffffff19161716171617161717179055610ead61010051612a45565b604051968796610100519b339b60c05160805160e0518c612aa8565b0390a36001600b55005b015190508f80610e04565b9060048401600052806000209160005b601f1985168110610f51575083600593610ec99a9896936001936000805160206135918339815191529f9e9d9b9997601f19811610610f38575b505050811b016004820155610e1c565b015160001960f88460031b161c191690558f8080610f28565b91926020600181928685015181550194019201610eee565b600484016000526020600020601f840160051c810160208510610fa9575b601f830160051c82018110610f9d575050610dcd565b60008155600101610f87565b5080610f87565b634e487b7160e01b600052604160045260246000fd5b015190508c80610d89565b92506003840160005280600020906000935b601f1984168510611027576001945083601f1981161061100e575b505050811b016003820155610da1565b015160001960f88460031b161c191690558c8080610ffe565b81810151835560209485019460019093019290910190610fe3565b909150600384016000526020600020601f840160051c81016020851061108e575b90849392915b601f830160051c8201811061107f575050610d72565b60008155859450600101611069565b5080611063565b015190508c80610d2c565b92506002840160005280600020906000935b601f19841685106110f6576001945083601f198116106110dd575b505050811b016002820155610d44565b015160001960f88460031b161c191690558c80806110cd565b818101518355602094850194600190930192909101906110b2565b909150600284016000526020600020601f840160051c81016020851061115d575b90849392915b601f830160051c8201811061114e575050610d15565b60008155859450600101611138565b5080611132565b015190508c80610ccf565b92506001840160005280600020906000935b601f19841685106111c5576001945083601f198116106111ac575b505050811b016001820155610ce7565b015160001960f88460031b161c191690558c808061119c565b81810151835560209485019460019093019290910190611181565b909150600184016000526020600020601f840160051c81016020851061122c575b90849392915b601f830160051c8201811061121d575050610cb8565b60008155859450600101611207565b5080611201565b015190508c80610c75565b92508360005280600020906000935b601f198416851061128e576001945083601f19811610611275575b505050811b018155610c8a565b015160001960f88460031b161c191690558c8080611268565b8181015183556020948501946001909301929091019061124d565b909150836000526020600020601f840160051c8101602085106112f2575b90849392915b601f830160051c820181106112e3575050610c5e565b600081558594506001016112cd565b50806112c7565b346101b85760003660031901126101b857600a546040516001600160a01b039091168152602090f35b346101b85760003660031901126101b85761133b612f33565b611343612fe1565b600160ff19600c541617600c557f62e78cea01bee320cd4e420270b5ea74000d11b0c9f74754ebdbfc544b05a2586020604051338152a1005b346101b85760003660031901126101b857611395612f33565b600a80546001600160a01b031981169091556000906001600160a01b03167f8be0079c531659141344cd1fd0a4f28419497f9722a3daafe3b4186f6b6457e08280a3005b346101b85760203660031901126101b85760206113fc6113f76126fb565b612bb1565b604051908152f35b346101b85760003660031901126101b857602060ff601454166040519015158152f35b346101b85760003660031901126101b8576020601354604051908152f35b346101b85760203660031901126101b8576020611463600435612b8e565b6040516001600160a01b039091168152f35b346101b85760003660031901126101b857602060ff600c54166040519015158152f35b346101b85760203660031901126101b8576004356001600160401b0381116101b8576114c89036906004016127f0565b6114d0612f33565b60ff601454166116155780516001600160401b038111610fb0576114f5601054612874565b601f81116115a8575b50602091601f821160011461153c57918192600092611531575b5050600019600383901b1c191660019190911b17601055005b015190508280611518565b601f1982169260106000526000805160206135d18339815191529160005b85811061159057508360019510611577575b505050811b01601055005b015160001960f88460031b161c1916905582808061156c565b9192602060018192868501518155019401920161155a565b6010600052601f820160051c6000805160206135d18339815191520190602083106115ff575b601f0160051c6000805160206135d183398151915201905b8181106115f357506114fe565b600081556001016115e6565b6000805160206135d183398151915291506115ce565b60405162461bcd60e51b815260206004820152601260248201527113595d1859185d18481a5cc81b1bd8dad95960721b6044820152606490fd5b346101b85760203660031901126101b8576004356008548110156116a15760009060085481101561168d576020826008829452200154604051908152f35b634e487b7160e01b82526032600452602482fd5b60405162461bcd60e51b815260206004820152602c60248201527f455243373231456e756d657261626c653a20676c6f62616c20696e646578206f60448201526b7574206f6620626f756e647360a01b6064820152608490fd5b6101803660031901126101b8576004356001600160401b0381116101b8576117279036906004016127f0565b610140526024356001600160401b0381116101b85761174a9036906004016127f0565b60a0526044356001600160401b0381116101b85761176c9036906004016127f0565b610120526064356001600160401b0381116101b85761178f9036906004016127f0565b6084356001600160401b0381116101b8576117ae9036906004016127f0565b906117b761280e565b6117bf61281e565b906117c861283f565b6117d0612850565b6117d8612862565b906117e161282e565b92610164356001600160401b0381116101b857366023820112156101b8578060040135906001600160401b0382116101b85736602483830101116101b857611827612f8b565b61182f612fe1565b6011543403612187576119a191611993611999928b60206119598f6009908f8f908f908f908f908f9060125443146000146121795761186f6013546129f2565b6013555b601460135411612136575b604051998a976118ee82808b019e8f3360601b90526118e060348d6101405151906118b1828483018861014051016126b3565b0160a05151906118c8828483018860a051016126b3565b01016101205151906118e082828761012051016126b3565b0191828151948592016126b3565b019560ff60f81b9060f81b16865260ff60f81b9060f81b16600186015261ffff60f01b9060f01b16600285015261ffff60f01b9060f01b16600484015261ffff60f01b9060f01b16600683015260ff60f81b9060f81b1660088201520360161981018452018261277d565b5190207f19457468657265756d205369676e6564204d6573736167653a0a333200000000600052601c52603c6000209260243692016127b9565b906131f8565b919091613230565b600c5460081c6001600160a01b039081169116036120fd576119c4600e546129f2565b6101605261016051600e556119dc6101605133613025565b6040516119e881612761565b61014051815260a051602082015261012051604082015287606082015288608082015260ff861660a082015260ff871660c082015261ffff821660e082015261ffff831661010082015261ffff841661012082015260ff851661014082015261016051600052600d602052604060002081518051906001600160401b038211610fb0578190611a778454612874565b601f81116120ad575b50602090601f831160011461204257600092612037575b50508160011b916000199060031b1c19161781555b60208201518051906001600160401b038211610fb0578190611ad16001850154612874565b601f8111611fe4575b50602090601f8311600114611f7357600092611f68575b50508160011b916000199060031b1c19161760018201555b60408201518051906001600160401b038211610fb0578190611b2e6002850154612874565b601f8111611f15575b50602090601f8311600114611ea457600092611e99575b50508160011b916000199060031b1c19161760028201555b60608201518051906001600160401b038211610fb0578190611b8b6003850154612874565b601f8111611e46575b50602090601f8311600114611dd557600092611dca575b50508160011b916000199060031b1c19161760038201555b60808201518051906001600160401b038211610fb057611be66004840154612874565b601f8111611d83575b50602090601f8311600114611cf85792826000805160206135918339815191529b9a99979593600593610ec99a9896600092611ced575b50508160011b916000199060031b1c19161760048201555b019060ff60a0820151169082549161ff0060c083015160081b169263ffff000060e084015160101b1665ffff0000000061010085015160201b169260ff60401b61014061ffff60301b61012088015160301b1696015160401b169560ff60401b199361ffff60301b199265ffff00000000199163ffffffff19161716171617161717179055611ccf61016051612a45565b604051968796610160519b339b6101205160a051610140518c612aa8565b015190508f80611c26565b9060048401600052806000209160005b601f1985168110611d6b575083600593610ec99a9896936001936000805160206135918339815191529f9e9d9b9997601f19811610611d52575b505050811b016004820155611c3e565b015160001960f88460031b161c191690558f8080611d42565b91926020600181928685015181550194019201611d08565b600484016000526020600020601f840160051c810160208510611dc3575b601f830160051c82018110611db7575050611bef565b60008155600101611da1565b5080611da1565b015190508c80611bab565b92506003840160005280600020906000935b601f1984168510611e2b576001945083601f19811610611e12575b505050811b016003820155611bc3565b015160001960f88460031b161c191690558c8080611e02565b81810151835560209485019460019093019290910190611de7565b909150600384016000526020600020601f840160051c810160208510611e92575b90849392915b601f830160051c82018110611e83575050611b94565b60008155859450600101611e6d565b5080611e67565b015190508c80611b4e565b92506002840160005280600020906000935b601f1984168510611efa576001945083601f19811610611ee1575b505050811b016002820155611b66565b015160001960f88460031b161c191690558c8080611ed1565b81810151835560209485019460019093019290910190611eb6565b909150600284016000526020600020601f840160051c810160208510611f61575b90849392915b601f830160051c82018110611f52575050611b37565b60008155859450600101611f3c565b5080611f36565b015190508c80611af1565b92506001840160005280600020906000935b601f1984168510611fc9576001945083601f19811610611fb0575b505050811b016001820155611b09565b015160001960f88460031b161c191690558c8080611fa0565b81810151835560209485019460019093019290910190611f85565b909150600184016000526020600020601f840160051c810160208510612030575b90849392915b601f830160051c82018110612021575050611ada565b6000815585945060010161200b565b5080612005565b015190508c80611a97565b92508360005280600020906000935b601f1984168510612092576001945083601f19811610612079575b505050811b018155611aac565b015160001960f88460031b161c191690558c808061206c565b81810151835560209485019460019093019290910190612051565b909150836000526020600020601f840160051c8101602085106120f6575b90849392915b601f830160051c820181106120e7575050611a80565b600081558594506001016120d1565b50806120cb565b60405162461bcd60e51b8152602060048201526011602482015270496e76616c6964207369676e617475726560781b6044820152606490fd5b61213e612fe1565b600160ff19600c541617600c557f62e78cea01bee320cd4e420270b5ea74000d11b0c9f74754ebdbfc544b05a2588a604051338152a161187e565b436012556001601355611873565b60405162461bcd60e51b8152602060048201526011602482015270125b98dbdc9c9958dd081c185e5b595b9d607a1b6044820152606490fd5b346101b85761063b6106366121d436612727565b90604051926121e460208561277d565b600084526106266106218433612c28565b346101b85760003660031901126101b85761220e612f33565b600c5460ff81161561224d5760ff1916600c557f5db9ee0a495bf2e6ff9c91a7834c1ba4fdd244a5e8aa4e537bd38aeae4b073aa6020604051338152a1005b60405162461bcd60e51b815260206004820152601460248201527314185d5cd8589b194e881b9bdd081c185d5cd95960621b6044820152606490fd5b346101b85760003660031901126101b8576122a2612f33565b6122aa612f8b565b6122b2612fe1565b600080808060018060a01b03600a541647908282156122e5575bf1156122d9576001600b55005b6040513d6000823e3d90fd5b506108fc6122cc565b346101b85760403660031901126101b8576123076126fb565b6024359061231481612bb1565b8210156123475760018060a01b031660005260066020526040600020906000526020526020604060002054604051908152f35b60405162461bcd60e51b815260206004820152602b60248201527f455243373231456e756d657261626c653a206f776e657220696e646578206f7560448201526a74206f6620626f756e647360a81b6064820152608490fd5b346101b85761063b6123b136612727565b916123bf6106218433612c28565b612cfb565b346101b85760003660031901126101b8576020600854604051908152f35b346101b85760403660031901126101b8576123fb6126fb565b602435906001600160a01b0361241083612b8e565b6001600160a01b03909216911681811461251c578033149081156124f7575b501561248c57600082815260046020526040902080546001600160a01b031916821790556001600160a01b0361246483612b8e565b167f8c5be1e5ebec7d5bd14f71427d1e84f3dd0314c0f7b2291e5b200ac8c7c3b925600080a4005b60405162461bcd60e51b815260206004820152603d60248201527f4552433732313a20617070726f76652063616c6c6572206973206e6f7420746f60448201527f6b656e206f776e6572206f7220617070726f76656420666f7220616c6c0000006064820152608490fd5b600090815260056020908152604080832033845290915290205460ff1690508361242f565b60405162461bcd60e51b815260206004820152602160248201527f4552433732313a20617070726f76616c20746f2063757272656e74206f776e656044820152603960f91b6064820152608490fd5b346101b85760203660031901126101b8576020611463600435612952565b346101b85760003660031901126101b857604051600080546125aa81612874565b8084529060018116908115610a7357506001146125d15761049d836104898185038261277d565b60008080527f290decd9548b62a8d60345a988386fc84ba6bc95484008f6362f93160ef3e563939250905b80821061261457509091508101602001610489610a04565b9192600181602092548385880101520191019092916125fc565b346101b85760203660031901126101b8576004359063ffffffff60e01b82168092036101b85760209163780e9d6360e01b8114908115612670575b5015158152f35b6380ac58cd60e01b8114915081156126a2575b8115612691575b5083612669565b6301ffc9a760e01b1490508361268a565b635b5e139f60e01b81149150612683565b60005b8381106126c65750506000910152565b81810151838201526020016126b6565b906020916126ef815180928185528580860191016126b3565b601f01601f1916010190565b600435906001600160a01b03821682036101b857565b602435906001600160a01b03821682036101b857565b60609060031901126101b8576004356001600160a01b03811681036101b857906024356001600160a01b03811681036101b8579060443590565b61016081019081106001600160401b03821117610fb057604052565b90601f801991011681019081106001600160401b03821117610fb057604052565b6001600160401b038111610fb057601f01601f191660200190565b9291926127c58261279e565b916127d3604051938461277d565b8294818452818301116101b8578281602093846000960137010152565b9080601f830112156101b85781602061280b933591016127b9565b90565b60a4359060ff821682036101b857565b60c4359060ff821682036101b857565b610144359060ff821682036101b857565b60e4359061ffff821682036101b857565b610104359061ffff821682036101b857565b610124359061ffff821682036101b857565b90600182811c921680156128a4575b602083101461288e57565b634e487b7160e01b600052602260045260246000fd5b91607f1691612883565b90604051918260008254926128c284612874565b808452936001811690811561293057506001146128e9575b506128e79250038361277d565b565b90506000929192526020600020906000915b8183106129145750509060206128e792820101386128da565b60209193508060019154838589010152019101909184926128fb565b9050602092506128e794915060ff191682840152151560051b820101386128da565b600081815260026020526040902054612975906001600160a01b03161515612b42565b6000908152600460205260409020546001600160a01b031690565b1561299757565b60405162461bcd60e51b815260206004820152602d60248201527f4552433732313a2063616c6c6572206973206e6f7420746f6b656e206f776e6560448201526c1c881bdc88185c1c1c9bdd9959609a1b6064820152608490fd5b6000198114612a015760010190565b634e487b7160e01b600052601160045260246000fd5b8054821015612a2f5760005260206000200190600090565b634e487b7160e01b600052603260045260246000fd5b600f5490600160401b821015610fb057612a6a8260016128e79401600f55600f612a17565b90919082549060031b91821b91600019901b1916179055565b60085490600160401b821015610fb057612a6a8260016128e794016008556008612a17565b999461ffff969c9b9760ff612b1b8d829c9594612b0d6101409f999a612aff8e9c612af18e9c612ae38a9c6101608a526101608a01906126d6565b9088820360208a01526126d6565b9086820360408801526126d6565b9084820360608601526126d6565b9160808184039101526126d6565b9e1660a08d01521660c08b01521660e0890152166101008701521661012085015216910152565b15612b4957565b60405162461bcd60e51b815260206004820152601860248201527f4552433732313a20696e76616c696420746f6b656e20494400000000000000006044820152606490fd5b6000908152600260205260409020546001600160a01b031661280b811515612b42565b6001600160a01b03168015612bd157600052600360205260406000205490565b60405162461bcd60e51b815260206004820152602960248201527f4552433732313a2061646472657373207a65726f206973206e6f7420612076616044820152683634b21037bbb732b960b91b6064820152608490fd5b906001600160a01b03612c3a82612b8e565b6001600160a01b0390931692168281149291908315612c7a575b508215612c6057505090565b9091506001600160a01b0390612c7590612952565b161490565b909250600052600560205260406000208160005260205260ff604060002054169138612c54565b15612ca857565b60405162461bcd60e51b815260206004820152602560248201527f4552433732313a207472616e736665722066726f6d20696e636f72726563742060448201526437bbb732b960d91b6064820152608490fd5b90612d0583612b8e565b6001600160a01b038381169291612d1e91168314612ca1565b6001600160a01b038116928315612ee25782612e2157506000805160206135b183398151915290600854856000526009602052604060002055612d6085612a83565b600090838503612ded575b50612d88836001600160a01b03612d8188612b8e565b1614612ca1565b8481526004602052604081206001600160601b0360a01b8154169055828152600360205260408120600019815401905583815260036020526040812060018154019055848152600260205260408120846001600160601b0360a01b82541617905580a4565b612df690612bb1565b8482526006602052604082208183526020528560408320558582526007602052604082205538612d6b565b838303612e3f575b506000805160206135b183398151915290612d60565b612e4890612bb1565b600019810191908211612a01576000805160206135b183398151915291856000526007602052604060002054818103612eaf575b50856000526007602052600060408120558360005260066020526040600020906000526020526000604081205590612e29565b60008581526006602090815260408083208584528252808320548484528184208190558352600790915290205538612e7c565b60405162461bcd60e51b8152602060048201526024808201527f4552433732313a207472616e7366657220746f20746865207a65726f206164646044820152637265737360e01b6064820152608490fd5b600a546001600160a01b03163303612f4757565b606460405162461bcd60e51b815260206004820152602060248201527f4f776e61626c653a2063616c6c6572206973206e6f7420746865206f776e65726044820152fd5b6002600b5414612f9c576002600b55565b60405162461bcd60e51b815260206004820152601f60248201527f5265656e7472616e637947756172643a207265656e7472616e742063616c6c006044820152606490fd5b60ff600c5416612fed57565b60405162461bcd60e51b815260206004820152601060248201526f14185d5cd8589b194e881c185d5cd95960821b6044820152606490fd5b60405191906020613036818561277d565b600084526001600160a01b0382169081158015919061313e579380926128e796949260026106369761308661308086600052600260205260018060a01b0360406000205416151590565b15613544565b60085485600052600982526040600020556130a085612a83565b60009261310e575b6000858152600260205260409020546130cb906001600160a01b03161515613080565b8383526003815260408320600181540190558483525260408120826001600160601b0360a01b8254161790556000805160206135b18339815191528180a461334a565b61311786612bb1565b848452600682526040842081855282528560408520558584526007825260408420556130a8565b6064906040519062461bcd60e51b825280600483015260248201527f4552433732313a206d696e7420746f20746865207a65726f20616464726573736044820152fd5b60809060208152603260208201527f4552433732313a207472616e7366657220746f206e6f6e20455243373231526560408201527131b2b4bb32b91034b6b83632b6b2b73a32b960711b60608201520190565b156131db57565b60405162461bcd60e51b8152806131f460048201613181565b0390fd5b90604181511460001461322657613222916020820151906060604084015193015160001a906134c4565b9091565b5050600090600290565b600581101561333457806132415750565b6001810361328e5760405162461bcd60e51b815260206004820152601860248201527f45434453413a20696e76616c6964207369676e617475726500000000000000006044820152606490fd5b600281036132db5760405162461bcd60e51b815260206004820152601f60248201527f45434453413a20696e76616c6964207369676e6174757265206c656e677468006044820152606490fd5b6003146132e457565b60405162461bcd60e51b815260206004820152602260248201527f45434453413a20696e76616c6964207369676e6174757265202773272076616c604482015261756560f01b6064820152608490fd5b634e487b7160e01b600052602160045260246000fd5b91823b1561346357613390926020926000604051809681958294630a85bd0160e11b845233600485015284602485015260448401526080606484015260848301906126d6565b03926001600160a01b03165af18091600091613419575b5090613403573d156133fc573d6133bd8161279e565b906133cb604051928361277d565b81523d6000602083013e5b805190816133f75760405162461bcd60e51b8152806131f460048201613181565b602001fd5b60606133d6565b6001600160e01b031916630a85bd0160e11b1490565b6020813d60201161345b575b816134326020938361277d565b810103126134575751906001600160e01b0319821682036134545750386133a7565b80fd5b5080fd5b3d9150613425565b505050600190565b919290803b156134bb5761339093600060209460405196879586948593630a85bd0160e11b855233600486015260018060a01b0316602485015260448401526080606484015260848301906126d6565b50505050600190565b7f7fffffffffffffffffffffffffffffff5d576e7357a4501ddfe92f46681b20a084116135385760209360009360ff60809460405194855216868401526040830152606082015282805260015afa156122d9576000516001600160a01b0381161561352f5790600090565b50600090600190565b50505050600090600390565b1561354b57565b60405162461bcd60e51b815260206004820152601c60248201527f4552433732313a20746f6b656e20616c7265616479206d696e746564000000006044820152606490fdfeaaceb5242f61266f098c381432daaefa6889a0d47114da291ed93039c30c09b2ddf252ad1be2c89b69c2b068fc378daa952ba7f163c4a11628f55a4df523b3ef1b6847dc741a1b0cd08d278845f9d819d87b734759afb55fe2de5cb82a9ae672a26469706673582212202e79f085deeba1794538cb51fbcab3e81934231979893bf05ea6ca57e0b6435564736f6c634300081c0033",
  "linkReferences": {},
  "deployedLinkReferences": {}
}