{
  "_format": "hh-sol-artifact-1",
  "contractName": "TradingWithAuctions",
  "sourceName": "contracts/Trading_w_auctions.sol",
  "abi": [
    {
      "anonymous": false,
      "inputs": [
        {
          "indexed": true,
          "internalType": "address",
          "name": "nft",
          "type": "address"
        },
        {
          "indexed": true,
          "internalType": "uint256",
          "name": "tokenId",
          "type": "uint256"
        },
        {
          "indexed": true,
          "internalType": "address",
          "name": "winner",
          "type": "address"
        },
        {
          "indexed": false,
          "internalType": "uint256",
          "name": "finalPrice",
          "type": "uint256"
        }
      ],
      "name": "AuctionFinalized",
      "type": "event"
    },
    {
      "anonymous": false,
      "inputs": [
        {
          "indexed": true,
          "internalType": "address",
          "name": "nft",
          "type": "address"
        },
        {
          "indexed": true,
          "internalType": "uint256",
          "name": "tokenId",
          "type": "uint256"
        },
        {
          "indexed": true,
          "internalType": "address",
          "name": "seller",
          "type": "address"
        }
      ],
      "name": "Cancelled",
      "type": "event"
    },
    {
      "anonymous": false,
      "inputs": [
        {
          "indexed": true,
          "internalType": "address",
          "name": "nft",
          "type": "address"
        },
        {
          "indexed": true,
          "internalType": "uint256",
          "name": "tokenId",
          "type": "uint256"
        },
        {
          "indexed": true,
          "internalType": "address",
          "name": "seller",
          "type": "address"
        },
        {
          "indexed": false,
          "internalType": "uint256",
          "name": "price",
          "type": "uint256"
        },
        {
          "indexed": false,
          "internalType": "enum TradingWithAuctions.SaleType",
          "name": "saleType",
          "type": "uint8"
        },
        {
          "indexed": false,
          "internalType": "uint256",
          "name": "endTime",
          "type": "uint256"
        }
      ],
      "name": "Listed",
      "type": "event"
    },
    {
      "anonymous": false,
      "inputs": [
        {
          "indexed": true,
          "internalType": "address",
          "name": "nft",
          "type": "address"
        },
        {
          "indexed": true,
          "internalType": "uint256",
          "name": "tokenId",
          "type": "uint256"
        },
        {
          "indexed": true,
          "internalType": "address",
          "name": "bidder",
          "type": "address"
        },
        {
          "indexed": false,
          "internalType": "uint256",
          "name": "amount",
          "type": "uint256"
        }
      ],
      "name": "NewBid",
      "type": "event"
    },
    {
      "anonymous": false,
      "inputs": [
        {
          "indexed": true,
          "internalType": "address",
          "name": "previousOwner",
          "type": "address"
        },
        {
          "indexed": true,
          "internalType": "address",
          "name": "newOwner",
          "type": "address"
        }
      ],
      "name": "OwnershipTransferred",
      "type": "event"
    },
    {
      "anonymous": false,
      "inputs": [
        {
          "indexed": true,
          "internalType": "address",
          "name": "nft",
          "type": "address"
        },
        {
          "indexed": true,
          "internalType": "uint256",
          "name": "tokenId",
          "type": "uint256"
        },
        {
          "indexed": true,
          "internalType": "address",
          "name": "buyer",
          "type": "address"
        },
        {
          "indexed": false,
          "internalType": "uint256",
          "name": "price",
          "type": "uint256"
        }
      ],
      "name": "Purchase",
      "type": "event"
    },
    {
      "inputs": [],
      "name": "MAX_PRICE",
      "outputs": [
        {
          "internalType": "uint256",
          "name": "",
          "type": "uint256"
        }
      ],
      "stateMutability": "view",
      "type": "function"
    },
    {
      "inputs": [
        {
          "internalType": "address",
          "name": "nftContract",
          "type": "address"
        },
        {
          "internalType": "uint256",
          "name": "tokenId",
          "type": "uint256"
        }
      ],
      "name": "buyItem",
      "outputs": [],
      "stateMutability": "payable",
      "type": "function"
    },
    {
      "inputs": [
        {
          "internalType": "address",
          "name": "nftContract",
          "type": "address"
        },
        {
          "internalType": "uint256",
          "name": "tokenId",
          "type": "uint256"
        }
      ],
      "name": "cancelListing",
      "outputs": [],
      "stateMutability": "nonpayable",
      "type": "function"
    },
    {
      "inputs": [
        {
          "internalType": "address",
          "name": "nftContract",
          "type": "address"
        },
        {
          "internalType": "uint256",
          "name": "tokenId",
          "type": "uint256"
        }
      ],
      "name": "finalizeAuction",
      "outputs": [],
      "stateMutability": "nonpayable",
      "type": "function"
    },
    {
      "inputs": [
        {
          "internalType": "address",
          "name": "nftAddress",
          "type": "address"
        }
      ],
      "name": "getAllListedTokenIds",
      "outputs": [
        {
          "internalType": "uint256[]",
          "name": "",
          "type": "uint256[]"
        }
      ],
      "stateMutability": "view",
      "type": "function"
    },
    {
      "inputs": [
        {
          "internalType": "address",
          "name": "seller",
          "type": "address"
        }
      ],
      "name": "getListedTokenIds",
      "outputs": [
        {
          "internalType": "uint256[]",
          "name": "",
          "type": "uint256[]"
        }
      ],
      "stateMutability": "view",
      "type": "function"
    },
    {
      "inputs": [
        {
          "internalType": "address",
          "name": "",
          "type": "address"
        }
      ],
      "name": "isBlacklisted",
      "outputs": [
        {
          "internalType": "bool",
          "name": "",
          "type": "bool"
        }
      ],
      "stateMutability": "view",
      "type": "function"
    },
    {
      "inputs": [
        {
          "internalType": "address",
          "name": "nftContract",
          "type": "address"
        },
        {
          "internalType": "uint256",
          "name": "tokenId",
          "type": "uint256"
        },
        {
          "internalType": "uint256",
          "name": "price",
          "type": "uint256"
        },
        {
          "internalType": "enum TradingWithAuctions.SaleType",
          "name": "saleType",
          "type": "uint8"
        },
        {
          "internalType": "uint256",
          "name": "endTime",
          "type": "uint256"
        }
      ],
      "name": "listItem",
      "outputs": [],
      "stateMutability": "nonpayable",
      "type": "function"
    },
    {
      "inputs": [
        {
          "internalType": "uint256",
          "name": "",
          "type": "uint256"
        }
      ],
      "name": "listedNFTContracts",
      "outputs": [
        {
          "internalType": "address",
          "name": "",
          "type": "address"
        }
      ],
      "stateMutability": "view",
      "type": "function"
    },
    {
      "inputs": [
        {
          "internalType": "address",
          "name": "",
          "type": "address"
        },
        {
          "internalType": "uint256",
          "name": "",
          "type": "uint256"
        }
      ],
      "name": "listedTokenIds",
      "outputs": [
        {
          "internalType": "uint256",
          "name": "",
          "type": "uint256"
        }
      ],
      "stateMutability": "view",
      "type": "function"
    },
    {
      "inputs": [
        {
          "internalType": "address",
          "name": "",
          "type": "address"
        },
        {
          "internalType": "uint256",
          "name": "",
          "type": "uint256"
        }
      ],
      "name": "listings",
      "outputs": [
        {
          "internalType": "address",
          "name": "seller",
          "type": "address"
        },
        {
          "internalType": "enum TradingWithAuctions.SaleType",
          "name": "saleType",
          "type": "uint8"
        },
        {
          "internalType": "uint256",
          "name": "price",
          "type": "uint256"
        },
        {
          "internalType": "uint256",
          "name": "endTime",
          "type": "uint256"
        },
        {
          "internalType": "address",
          "name": "highestBidder",
          "type": "address"
        },
        {
          "internalType": "uint256",
          "name": "highestBid",
          "type": "uint256"
        }
      ],
      "stateMutability": "view",
      "type": "function"
    },
    {
      "inputs": [
        {
          "internalType": "address",
          "name": "",
          "type": "address"
        },
        {
          "internalType": "address",
          "name": "",
          "type": "address"
        },
        {
          "internalType": "uint256",
          "name": "",
          "type": "uint256"
        },
        {
          "internalType": "bytes",
          "name": "",
          "type": "bytes"
        }
      ],
      "name": "onERC721Received",
      "outputs": [
        {
          "internalType": "bytes4",
          "name": "",
          "type": "bytes4"
        }
      ],
      "stateMutability": "nonpayable",
      "type": "function"
    },
    {
      "inputs": [],
      "name": "owner",
      "outputs": [
        {
          "internalType": "address",
          "name": "",
          "type": "address"
        }
      ],
      "stateMutability": "view",
      "type": "function"
    },
    {
      "inputs": [],
      "name": "paused",
      "outputs": [
        {
          "internalType": "bool",
          "name": "",
          "type": "bool"
        }
      ],
      "stateMutability": "view",
      "type": "function"
    },
    {
      "inputs": [
        {
          "internalType": "address",
          "name": "nftContract",
          "type": "address"
        },
        {
          "internalType": "uint256",
          "name": "tokenId",
          "type": "uint256"
        }
      ],
      "name": "placeBid",
      "outputs": [],
      "stateMutability": "payable",
      "type": "function"
    },
    {
      "inputs": [],
      "name": "renounceOwnership",
      "outputs": [],
      "stateMutability": "nonpayable",
      "type": "function"
    },
    {
      "inputs": [
        {
          "internalType": "address",
          "name": "user",
          "type": "address"
        },
        {
          "internalType": "bool",
          "name": "value",
          "type": "bool"
        }
      ],
      "name": "setBlacklist",
      "outputs": [],
      "stateMutability": "nonpayable",
      "type": "function"
    },
    {
      "inputs": [
        {
          "internalType": "bool",
          "name": "_paused",
          "type": "bool"
        }
      ],
      "name": "setPaused",
      "outputs": [],
      "stateMutability": "nonpayable",
      "type": "function"
    },
    {
      "inputs": [
        {
          "internalType": "uint256",
          "name": "fee",
          "type": "uint256"
        }
      ],
      "name": "setTradingFee",
      "outputs": [],
      "stateMutability": "nonpayable",
      "type": "function"
    },
    {
      "inputs": [],
      "name": "tradingFee",
      "outputs": [
        {
          "internalType": "uint256",
          "name": "",
          "type": "uint256"
        }
      ],
      "stateMutability": "view",
      "type": "function"
    },
    {
      "inputs": [
        {
          "internalType": "address",
          "name": "newOwner",
          "type": "address"
        }
      ],
      "name": "transferOwnership",
      "outputs": [],
      "stateMutability": "nonpayable",
      "type": "function"
    },
    {
      "inputs": [],
      "name": "withdraw",
      "outputs": [],
      "stateMutability": "nonpayable",
      "type": "function"
    }
  ],
  "bytecode": "0x6080806040523460635760008054336001600160a01b0319821681178355916001600160a01b03909116907f8be0079c531659141344cd1fd0a4f28419497f9722a3daafe3b4186f6b6457e09080a3600180556000600855611b7f90816100698239f35b600080fdfe608080604052600436101561001357600080fd5b600090813560e01c90816207df30146112a85750806301c11d9614611284578063150b7a02146111d5578063153b0d1e1461118257806316c38b3c14611146578063211a6b52146110c35780633ccfd60b1461107457806356f43352146110565780635c975abb146110335780636890511614610fef578063715018a614610f955780637ddea96c14610a6557806380e6f45e14610a2157806381a2ef92146109ca5780638da5cb5b146109a3578063959d5f6a146108855780639f37092a14610636578063b0d54bcf146105db578063b2ddee0614610427578063d98b9bb514610219578063f2fde38b146101535763fe575a871461011257600080fd5b346101505760203660031901126101505760209060ff906040906001600160a01b0361013c61133a565b168152600684522054166040519015158152f35b80fd5b50346101505760203660031901126101505761016d61133a565b610175611871565b6001600160a01b031680156101c55781546001600160a01b03198116821783556001600160a01b03167f8be0079c531659141344cd1fd0a4f28419497f9722a3daafe3b4186f6b6457e08380a380f35b60405162461bcd60e51b815260206004820152602660248201527f4f776e61626c653a206e6577206f776e657220697320746865207a65726f206160448201526564647265737360d01b6064820152608490fd5b5060403660031901126101505761022e61133a565b6024359061024160ff60075416156114a7565b6102496118c9565b338352600660205261026260ff60408520541615611809565b60018060a01b0316908183526004602052604083208184526020526040832080549060ff8260a01c1660028110156104135760016102a091146114e4565b60028101544210156103de5760048101918254803411156103ab5768056bc75e2d63100000341161037b5786916102e1906001600160a01b0316151561151e565b8015801561033d575b50505060030180546001600160a01b03191633908117909155349182905560405191825292907f0e1f7a6c628fd95c9633b2732b8035b7e8d0df8120df2274beadefa5296d5e9490602090a46001805580f35b60038401548392839283926001600160a01b0316908390610372575bf115610367578438806102ea565b6040513d86823e3d90fd5b506108fc610359565b60405162461bcd60e51b81526020600482015260086024820152670a8dede40d0d2ced60c31b6044820152606490fd5b60405162461bcd60e51b815260206004820152600b60248201526a42696420746f6f206c6f7760a81b6044820152606490fd5b60405162461bcd60e51b815260206004820152600d60248201526c105d58dd1a5bdb88195b991959609a1b6044820152606490fd5b634e487b7160e01b86526021600452602486fd5b50346101505760403660031901126101505761044161133a565b60243561045360ff60075416156114a7565b61045b6118c9565b338352600660205261047460ff60408520541615611809565b60018060a01b03821691828452600460205260408420828552602052604084206104a36001820154151561151e565b8054336001600160a01b038216036105a95760a01c60ff16600281101561041357600114610569575b506104d99082339161191f565b813b1561055a57604051632142170760e11b8152306004820152336024820152604481018290528390818160648183885af1801561055e57610545575b505033917f0c8fde439b4e72d175ffeb3c5f3c15c6f70f473413f4c2d68f8971c0d629b60d8480a46001805580f35b8161054f9161138e565b61055a578238610516565b8280fd5b6040513d84823e3d90fd5b6004015461057757386104cc565b60405162461bcd60e51b815260206004820152600a6024820152694269642065786973747360b01b6044820152606490fd5b60405162461bcd60e51b815260206004820152600a6024820152692737ba1039b2b63632b960b11b6044820152606490fd5b5034610150576020366003190112610150576004356105f8611871565b6103e881116106075760085580f35b60405162461bcd60e51b81526020600482015260076024820152664d61782031302560c81b6044820152606490fd5b5060403660031901126101505761064b61133a565b60243561065d60ff60075416156114a7565b6106656118c9565b338352600660205261067e60ff60408520541615611809565b60018060a01b03821691828452600460205260408420828552602052604084209081549160ff8360a01c1660028110156108715761083a57600181019283546106c881151561151e565b34036108095786926106e5916001600160a01b031690869061191f565b818080808654946107066127106106fe60085489611557565b048097611580565b90546001600160a01b0316828215610800575bf1156107f35780159081156107b9575b505050823b156107b557604051632142170760e11b8152306004820152336024820152604481018390528490818160648183895af1801561055e576107a0575b505054916040519283527f3c0aac7ff88f2e47ddbaf56d3cfc506dff643228e74c58f6ef3e8a2322c6b22a60203394a46001805580f35b816107aa9161138e565b6107b5578338610769565b8380fd5b82809291819260018060a01b038354169083906107ea575bf1156107df57833880610729565b6040513d85823e3d90fd5b506108fc6107d1565b50604051903d90823e3d90fd5b506108fc610719565b60405162461bcd60e51b81526020600482015260096024820152680aee4dedcce408aa8960bb1b6044820152606490fd5b60405162461bcd60e51b815260206004820152600f60248201526e4e6f742066697865642d707269636560881b6044820152606490fd5b634e487b7160e01b87526021600452602487fd5b5034610150576020366003190112610150576001600160a01b036108a761133a565b168082526002602052604082208054919083805b84811061095057506108cc90611461565b938092815b8581106108ea57604051806108e689826113c6565b0390f35b6001908284526004602052604084206109038287611431565b90549060031b1c8552602052818060a01b03604085205416610926575b016108d1565b6109308186611431565b90549060031b1c61094a61094388611862565b978a611493565b52610920565b8386526004602052604086206109668285611431565b905460039190911b1c875260205260408620546001600160a01b031661098f575b6001016108bb565b9061099b600191611862565b919050610987565b5034610150578060031936011261015057546040516001600160a01b039091168152602090f35b5034610150576040366003190112610150576109e461133a565b6001600160a01b0316815260026020526040812080546024359290831015610150576020610a128484611431565b90549060031b1c604051908152f35b50346101505760203660031901126101505760043590600354821015610150576020610a4c83611400565b905460405160039290921b1c6001600160a01b03168152f35b50346101505760a036600319011261015057610a7f61133a565b60243560443591606435906002821015610f915760843590610aa660ff60075416156114a7565b610aae6118c9565b3386526006602052610ac760ff60408820541615611809565b84151580610f7e575b15610f49576040516331a9108f60e11b8152600481018590526001600160a01b03919091169290602081602481875afa908115610dd0578791610f2a575b50336001600160a01b0390911603610ef35760405163020604bf60e21b815260048101859052602081602481875afa908115610dd0578791610ec4575b506001600160a01b031630148015610e4e575b15610e195760018114610ddf575b823b15610ddb57604051632142170760e11b815233600482015230602482015260448101859052868160648183885af18015610dd057610dbc575b5060405160c0810181811067ffffffffffffffff821117610d94576040908152338252602080830184815283830189815260608501878152608086018c815260a087018d81528a8e5260048652868e208c8f52909552948c20955186546001600160a01b0319166001600160a01b039190911617865591519293926002811015610da857855460ff60a01b191660a09190911b60ff60a01b161785555160018501555160028085019190915590516003840180546001600160a01b0319166001600160a01b039290921691909117905590516004929092019190915583875260205260408620805490600160401b821015610d9457610cb082610cc79260018995018155611431565b819391549060031b91821b91600019901b19161790565b90553386526005602052610cde8460408820611a32565b5082865260026020526001604087205414610d3a575b610d0890604051958652602086019061136b565b60408401527f47248f1e27c64f978d0f17948a61c52002f75beb160ade5e66df0a10604b848660603394a46001805580f35b600354600160401b811015610d805790610d5d826001610d089401600355611400565b81546001600160a01b0360039290921b91821b19169086901b1790559050610cf4565b634e487b7160e01b87526041600452602487fd5b634e487b7160e01b88526041600452602488fd5b634e487b7160e01b8c52602160045260248cfd5b86610dc99197929761138e565b9438610ba7565b6040513d89823e3d90fd5b8580fd5b428211610b6c5760405162461bcd60e51b815260206004820152600b60248201526a42616420656e6454696d6560a81b6044820152606490fd5b60405162461bcd60e51b815260206004820152600d60248201526c105c1c1c9bdd9948199a5c9cdd609a1b6044820152606490fd5b5060405163e985e9c560e01b8152336004820152306024820152602081604481875afa908115610dd0578791610e85575b50610b5e565b90506020813d602011610ebc575b81610ea06020938361138e565b81010312610eb857518015158103610eb85738610e7f565b8680fd5b3d9150610e93565b610ee6915060203d602011610eec575b610ede818361138e565b810190611843565b38610b4b565b503d610ed4565b60405162461bcd60e51b815260206004820152600f60248201526e2737ba103a37b5b2b71037bbb732b960891b6044820152606490fd5b610f43915060203d602011610eec57610ede818361138e565b38610b0e565b60405162461bcd60e51b815260206004820152600d60248201526c141c9a58d9481a5b9d985b1a59609a1b6044820152606490fd5b5068056bc75e2d63100000851115610ad0565b8480fd5b5034610150578060031936011261015057610fae611871565b80546001600160a01b03198116825581906001600160a01b03167f8be0079c531659141344cd1fd0a4f28419497f9722a3daafe3b4186f6b6457e08280a380f35b50346101505760403660031901126101505761102c61100c61133a565b61101b60ff60075416156114a7565b6110236118c9565b6024359061158d565b6001805580f35b5034610150578060031936011261015057602060ff600754166040519015158152f35b50346101505780600319360112610150576020600854604051908152f35b503461015057806003193601126101505761108d611871565b8080808060018060a01b0381541647908282156110ba575bf1156110ae5780f35b604051903d90823e3d90fd5b506108fc6110a5565b5034610150576020366003190112610150576001600160a01b036110e561133a565b169081815260056020526040812054906110fe82611461565b92815b83811061111657604051806108e687826113c6565b600190828452600560205261112e8160408620611431565b90549060031b1c61113f8288611493565b5201611101565b50346101505760203660031901126101505760043580151580910361117e5761116d611871565b60ff80196007541691161760075580f35b5080fd5b50346101505760403660031901126101505761119c61133a565b6024359081151580920361055a576111b2611871565b60018060a01b031682526006602052604082209060ff8019835416911617905580f35b5034610150576080366003190112610150576111ef61133a565b506111f8611355565b5060643567ffffffffffffffff811161117e573660238201121561117e57806004013567ffffffffffffffff811161127057604051611241601f8301601f19166020018261138e565b81815236602483850101116107b5578160246020940184830137010152604051630a85bd0160e11b8152602090f35b634e487b7160e01b83526041600452602483fd5b5034610150578060031936011261015057602060405168056bc75e2d631000008152f35b90503461117e57604036600319011261117e5760c0916040906001600160a01b036112d161133a565b16815260046020528181206024358252602052208054906001810154600282015490611324600460018060a01b036003860154169401549460018060a01b038116875260ff602088019160a01c1661136b565b60408501526060840152608083015260a0820152f35b600435906001600160a01b038216820361135057565b600080fd5b602435906001600160a01b038216820361135057565b9060028210156113785752565b634e487b7160e01b600052602160045260246000fd5b90601f8019910116810190811067ffffffffffffffff8211176113b057604052565b634e487b7160e01b600052604160045260246000fd5b602060408183019282815284518094520192019060005b8181106113ea5750505090565b82518452602093840193909201916001016113dd565b60035481101561141b57600360005260206000200190600090565b634e487b7160e01b600052603260045260246000fd5b805482101561141b5760005260206000200190600090565b67ffffffffffffffff81116113b05760051b60200190565b9061146b82611449565b611478604051918261138e565b8281528092611489601f1991611449565b0190602036910137565b805182101561141b5760209160051b010190565b156114ae57565b60405162461bcd60e51b815260206004820152600e60248201526d151c98591a5b99c81c185d5cd95960921b6044820152606490fd5b156114eb57565b60405162461bcd60e51b815260206004820152600b60248201526a2737ba1030bab1ba34b7b760a91b6044820152606490fd5b1561152557565b60405162461bcd60e51b815260206004820152600a602482015269139bdd081b1a5cdd195960b21b6044820152606490fd5b8181029291811591840414171561156a57565b634e487b7160e01b600052601160045260246000fd5b9190820391821161156a57565b6001600160a01b03811660008181526004602090815260408083208684529091528120805490949360a082901c60ff1660028110156117f55760016115d291146114e4565b600286015442106117c4576115fd916001600160a01b03169085906115f883151561151e565b61191f565b60048401938454156117305784548280808061162961271061162160085488611557565b048096611580565b86546001600160a01b0316828215611727575bf11561055e578083911580156116f7575b50505060030180549091906001600160a01b0316833b1561117e57604051632142170760e11b81523060048201526001600160a01b0391909116602482015260448101859052818160648183885af1801561055e576116e2575b505060207ff5e261ad6037fbe80a9ee6c11f287400f3e4b5a077b2424264a7b1b25409e9149160018060a01b039054169454604051908152a4565b6116ed82809261138e565b61015057806116a7565b82548392839283926001600160a01b031690839061171e575bf1156107f35781388061164d565b506108fc611710565b506108fc61163c565b549093506001600160a01b0316813b156107b557604051632142170760e11b81523060048201526001600160a01b0391909116602482015260448101839052838160648183865af18015610367576117b0575b507ff5e261ad6037fbe80a9ee6c11f287400f3e4b5a077b2424264a7b1b25409e9146020604051858152a4565b836117bd9194929461138e565b9138611783565b60405162461bcd60e51b8152602060048201526009602482015268139bdd08195b99195960ba1b6044820152606490fd5b634e487b7160e01b84526021600452602484fd5b1561181057565b60405162461bcd60e51b815260206004820152600b60248201526a109b1858dadb1a5cdd195960aa1b6044820152606490fd5b9081602091031261135057516001600160a01b03811681036113505790565b600019811461156a5760010190565b6000546001600160a01b0316330361188557565b606460405162461bcd60e51b815260206004820152602060248201527f4f776e61626c653a2063616c6c6572206973206e6f7420746865206f776e65726044820152fd5b6002600154146118da576002600155565b60405162461bcd60e51b815260206004820152601f60248201527f5265656e7472616e637947756172643a207265656e7472616e742063616c6c006044820152606490fd5b909160018060a01b0316600052600560205261193f826040600020611a8c565b506001600160a01b031660008181526002602052604081209291905b835480821015611a2857836119708387611431565b90549060031b1c14611985575060010161195b565b92939192600019810190811161156a57610cb06119a56119b39285611431565b90549060031b1c9284611431565b905580548015611a125760001901906119cc8282611431565b8154906000199060031b1b19169055555b600052600460205260406000209060005260205260006004604082208281558260018201558260028201558260038201550155565b634e487b7160e01b600052603160045260246000fd5b50509091506119dd565b6001810190826000528160205260406000205415600014611a84578054600160401b8110156113b057611a6f610cb0826001879401855584611431565b90555491600052602052604060002055600190565b505050600090565b9060018201918160005282602052604060002054801515600014611b4057600019810181811161156a57825460001981019190821161156a57808203611b09575b50505080548015611a12576000190190611ae78282611431565b8154906000199060031b1b191690555560005260205260006040812055600190565b611b29611b19610cb09386611431565b90549060031b1c92839286611431565b905560005283602052604060002055388080611acd565b5050505060009056fea264697066735822122092fef1da11b42d3b6e13ad16b56250f5a8b3380d03a3bb92e0797a93c5ba2f1364736f6c634300081c0033",
  "linkReferences": {},
  "deployedLinkReferences": {}
}