{
  "_format": "hh-sol-artifact-1",
  "contractName": "TradingWithAuctions",
  "sourceName": "contracts/Trading_w_auctions.sol",
  "abi": [
    {
      "anonymous": false,
      "inputs": [
        {
          "indexed": true,
          "internalType": "address",
          "name": "nft",
          "type": "address"
        },
        {
          "indexed": true,
          "internalType": "uint256",
          "name": "tokenId",
          "type": "uint256"
        },
        {
          "indexed": true,
          "internalType": "address",
          "name": "winner",
          "type": "address"
        },
        {
          "indexed": false,
          "internalType": "uint256",
          "name": "finalPrice",
          "type": "uint256"
        }
      ],
      "name": "AuctionFinalized",
      "type": "event"
    },
    {
      "anonymous": false,
      "inputs": [
        {
          "indexed": true,
          "internalType": "address",
          "name": "nft",
          "type": "address"
        },
        {
          "indexed": true,
          "internalType": "uint256",
          "name": "tokenId",
          "type": "uint256"
        },
        {
          "indexed": true,
          "internalType": "address",
          "name": "seller",
          "type": "address"
        }
      ],
      "name": "Cancelled",
      "type": "event"
    },
    {
      "anonymous": false,
      "inputs": [
        {
          "indexed": true,
          "internalType": "address",
          "name": "nft",
          "type": "address"
        },
        {
          "indexed": true,
          "internalType": "uint256",
          "name": "tokenId",
          "type": "uint256"
        },
        {
          "indexed": true,
          "internalType": "address",
          "name": "seller",
          "type": "address"
        },
        {
          "indexed": false,
          "internalType": "uint256",
          "name": "price",
          "type": "uint256"
        },
        {
          "indexed": false,
          "internalType": "enum TradingWithAuctions.SaleType",
          "name": "saleType",
          "type": "uint8"
        },
        {
          "indexed": false,
          "internalType": "uint256",
          "name": "endTime",
          "type": "uint256"
        }
      ],
      "name": "Listed",
      "type": "event"
    },
    {
      "anonymous": false,
      "inputs": [
        {
          "indexed": true,
          "internalType": "address",
          "name": "nft",
          "type": "address"
        },
        {
          "indexed": true,
          "internalType": "uint256",
          "name": "tokenId",
          "type": "uint256"
        },
        {
          "indexed": true,
          "internalType": "address",
          "name": "bidder",
          "type": "address"
        },
        {
          "indexed": false,
          "internalType": "uint256",
          "name": "amount",
          "type": "uint256"
        }
      ],
      "name": "NewBid",
      "type": "event"
    },
    {
      "anonymous": false,
      "inputs": [
        {
          "indexed": true,
          "internalType": "address",
          "name": "previousOwner",
          "type": "address"
        },
        {
          "indexed": true,
          "internalType": "address",
          "name": "newOwner",
          "type": "address"
        }
      ],
      "name": "OwnershipTransferred",
      "type": "event"
    },
    {
      "anonymous": false,
      "inputs": [
        {
          "indexed": true,
          "internalType": "address",
          "name": "nft",
          "type": "address"
        },
        {
          "indexed": true,
          "internalType": "uint256",
          "name": "tokenId",
          "type": "uint256"
        },
        {
          "indexed": true,
          "internalType": "address",
          "name": "buyer",
          "type": "address"
        },
        {
          "indexed": false,
          "internalType": "uint256",
          "name": "price",
          "type": "uint256"
        }
      ],
      "name": "Purchase",
      "type": "event"
    },
    {
      "inputs": [
        {
          "internalType": "address",
          "name": "nftContract",
          "type": "address"
        },
        {
          "internalType": "uint256",
          "name": "tokenId",
          "type": "uint256"
        }
      ],
      "name": "buyItem",
      "outputs": [],
      "stateMutability": "payable",
      "type": "function"
    },
    {
      "inputs": [
        {
          "internalType": "address",
          "name": "nftContract",
          "type": "address"
        },
        {
          "internalType": "uint256",
          "name": "tokenId",
          "type": "uint256"
        }
      ],
      "name": "cancelListing",
      "outputs": [],
      "stateMutability": "nonpayable",
      "type": "function"
    },
    {
      "inputs": [
        {
          "internalType": "address",
          "name": "nftContract",
          "type": "address"
        },
        {
          "internalType": "uint256",
          "name": "tokenId",
          "type": "uint256"
        }
      ],
      "name": "finalizeAuction",
      "outputs": [],
      "stateMutability": "nonpayable",
      "type": "function"
    },
    {
      "inputs": [
        {
          "internalType": "address",
          "name": "seller",
          "type": "address"
        }
      ],
      "name": "getListedTokenIds",
      "outputs": [
        {
          "internalType": "uint256[]",
          "name": "",
          "type": "uint256[]"
        }
      ],
      "stateMutability": "view",
      "type": "function"
    },
    {
      "inputs": [
        {
          "internalType": "address",
          "name": "nftContract",
          "type": "address"
        },
        {
          "internalType": "uint256",
          "name": "tokenId",
          "type": "uint256"
        },
        {
          "internalType": "uint256",
          "name": "price",
          "type": "uint256"
        },
        {
          "internalType": "enum TradingWithAuctions.SaleType",
          "name": "saleType",
          "type": "uint8"
        },
        {
          "internalType": "uint256",
          "name": "endTime",
          "type": "uint256"
        }
      ],
      "name": "listItem",
      "outputs": [],
      "stateMutability": "nonpayable",
      "type": "function"
    },
    {
      "inputs": [
        {
          "internalType": "address",
          "name": "",
          "type": "address"
        },
        {
          "internalType": "uint256",
          "name": "",
          "type": "uint256"
        }
      ],
      "name": "listings",
      "outputs": [
        {
          "internalType": "address",
          "name": "seller",
          "type": "address"
        },
        {
          "internalType": "enum TradingWithAuctions.SaleType",
          "name": "saleType",
          "type": "uint8"
        },
        {
          "internalType": "uint256",
          "name": "price",
          "type": "uint256"
        },
        {
          "internalType": "uint256",
          "name": "endTime",
          "type": "uint256"
        },
        {
          "internalType": "address",
          "name": "highestBidder",
          "type": "address"
        },
        {
          "internalType": "uint256",
          "name": "highestBid",
          "type": "uint256"
        }
      ],
      "stateMutability": "view",
      "type": "function"
    },
    {
      "inputs": [],
      "name": "owner",
      "outputs": [
        {
          "internalType": "address",
          "name": "",
          "type": "address"
        }
      ],
      "stateMutability": "view",
      "type": "function"
    },
    {
      "inputs": [],
      "name": "paused",
      "outputs": [
        {
          "internalType": "bool",
          "name": "",
          "type": "bool"
        }
      ],
      "stateMutability": "view",
      "type": "function"
    },
    {
      "inputs": [
        {
          "internalType": "address",
          "name": "nftContract",
          "type": "address"
        },
        {
          "internalType": "uint256",
          "name": "tokenId",
          "type": "uint256"
        }
      ],
      "name": "placeBid",
      "outputs": [],
      "stateMutability": "payable",
      "type": "function"
    },
    {
      "inputs": [],
      "name": "renounceOwnership",
      "outputs": [],
      "stateMutability": "nonpayable",
      "type": "function"
    },
    {
      "inputs": [
        {
          "internalType": "bool",
          "name": "_paused",
          "type": "bool"
        }
      ],
      "name": "setPaused",
      "outputs": [],
      "stateMutability": "nonpayable",
      "type": "function"
    },
    {
      "inputs": [
        {
          "internalType": "uint256",
          "name": "fee",
          "type": "uint256"
        }
      ],
      "name": "setTradingFee",
      "outputs": [],
      "stateMutability": "nonpayable",
      "type": "function"
    },
    {
      "inputs": [],
      "name": "tradingFee",
      "outputs": [
        {
          "internalType": "uint256",
          "name": "",
          "type": "uint256"
        }
      ],
      "stateMutability": "view",
      "type": "function"
    },
    {
      "inputs": [
        {
          "internalType": "address",
          "name": "newOwner",
          "type": "address"
        }
      ],
      "name": "transferOwnership",
      "outputs": [],
      "stateMutability": "nonpayable",
      "type": "function"
    },
    {
      "inputs": [],
      "name": "withdraw",
      "outputs": [],
      "stateMutability": "nonpayable",
      "type": "function"
    }
  ],
  "bytecode": "0x6080806040523460635760008054336001600160a01b0319821681178355916001600160a01b03909116907f8be0079c531659141344cd1fd0a4f28419497f9722a3daafe3b4186f6b6457e09080a360018055600060055561159690816100698239f35b600080fdfe608080604052600436101561001357600080fd5b600090813560e01c90816207df3014610e935750806316c38b3c14610e57578063211a6b5214610d5d5780633ccfd60b14610d0e57806356f4335214610cf05780635c975abb14610ccd5780636890511614610c89578063715018a614610c2f5780637ddea96c146108325780638da5cb5b1461080b5780639f37092a1461058c578063b0d54bcf1461052b578063b2ddee0614610342578063d98b9bb51461018d5763f2fde38b146100c557600080fd5b3461018a57602036600319011261018a576100de610f25565b6100e661133b565b6001600160a01b031680156101365781546001600160a01b03198116821783556001600160a01b03167f8be0079c531659141344cd1fd0a4f28419497f9722a3daafe3b4186f6b6457e08380a380f35b60405162461bcd60e51b815260206004820152602660248201527f4f776e61626c653a206e6577206f776e657220697320746865207a65726f206160448201526564647265737360d01b6064820152608490fd5b80fd5b50604036600319011261018a576101a2610f25565b602435906101b560ff6004541615610fcf565b6101bd611393565b60018060a01b0316908183526002602052604083208184526020526040832080549060ff8260a01c16600281101561032e5760016101fb911461100f565b60028101544210156102f95760048101918254803411156102c657869161022c906001600160a01b0316151561104c565b80158015610288575b50505060030180546001600160a01b03191633908117909155349182905560405191825292907f0e1f7a6c628fd95c9633b2732b8035b7e8d0df8120df2274beadefa5296d5e9490602090a46001805580f35b60038401548392839283926001600160a01b03169083906102bd575bf1156102b257843880610235565b6040513d86823e3d90fd5b506108fc6102a4565b60405162461bcd60e51b815260206004820152600b60248201526a42696420746f6f206c6f7760a81b6044820152606490fd5b60405162461bcd60e51b815260206004820152600d60248201526c105d58dd1a5bdb88195b991959609a1b6044820152606490fd5b634e487b7160e01b86526021600452602486fd5b503461018a57604036600319011261018a5761035c610f25565b6024359061036f60ff6004541615610fcf565b610377611393565b60018060a01b031690818352600260205260408320818452602052604083206040516103a281610f63565b81546001600160a01b03811682526020820191906103c69060a01c60ff168361132f565b61040460046001850154948560408501526002810154606085015260018060a01b03600382015416608085015201549360a08301948552151561104c565b516001600160a01b031633036104f9575160028110156104e5576001146104a1575b50338352600360205261043c8160408520611417565b508183526002602052604083208184526020526104746040842060046000918281558260018201558260028201558260038201550155565b33917f0c8fde439b4e72d175ffeb3c5f3c15c6f70f473413f4c2d68f8971c0d629b60d8480a46001805580f35b516104ac5738610426565b60405162461bcd60e51b8152602060048201526011602482015270105b1c9958591e481a185cc81848189a59607a1b6044820152606490fd5b634e487b7160e01b85526021600452602485fd5b60405162461bcd60e51b815260206004820152600a6024820152692737ba1039b2b63632b960b11b6044820152606490fd5b503461018a57602036600319011261018a5760043561054861133b565b6103e881116105575760055580f35b60405162461bcd60e51b815260206004820152600d60248201526c4d617820666565203d2031302560981b6044820152606490fd5b50604036600319011261018a576105a1610f25565b602435906105b460ff6004541615610fcf565b6105bc611393565b60018060a01b0316908183526002602052604083208184526020526040832080549060ff8260a01c16600281101561032e576107cd576001810191825461060481151561104c565b3403610794576001600160a01b03168552600360205260408520610629908490611417565b508385526002602052604085208386526020526106616040862060046000918281558260018201558260028201558260038201550155565b8482548180808061068261271061067a60055488611085565b0480966110ae565b87546001600160a01b031682821561078b575bf11561077e57801590811561074f575b505090546001600160a01b0316905084843b1561018a57604051632142170760e11b81526001600160a01b03929092166004830152336024830152604482018490528160648183885af1801561074457610730575b5054916040519283527f3c0aac7ff88f2e47ddbaf56d3cfc506dff643228e74c58f6ef3e8a2322c6b22a60203394a46001805580f35b8461073d91959295610f95565b92386106fa565b6040513d87823e3d90fd5b82809291819260018060a01b03835416908390610775575bf1156102b2578438806106a5565b506108fc610767565b50604051903d90823e3d90fd5b506108fc610695565b60405162461bcd60e51b8152602060048201526011602482015270125b98dbdc9c9958dd081c185e5b595b9d607a1b6044820152606490fd5b60405162461bcd60e51b81526020600482015260166024820152754e6f7420612066697865642070726963652073616c6560501b6044820152606490fd5b503461018a578060031936011261018a57546040516001600160a01b039091168152602090f35b503461018a5760a036600319011261018a5761084c610f25565b60243560443591606435906002821015610c2b576084359061087360ff6004541615610fcf565b61087b611393565b8415610bf2576040516331a9108f60e11b8152600481018590526001600160a01b03919091169290602081602481875afa908115610b62578791610bd3575b50336001600160a01b0390911603610b9c5760405163020604bf60e21b815260048101859052602081602481875afa908115610b62578791610b6d575b506001600160a01b031630148015610aec575b15610aaf5760018114610a63575b60405161092481610f63565b33815260208101610935838261132f565b604082018781526060830185815260808401918a835260a08501938b8552888c52600260205260408c208a8d5260205260408c209560018060a01b039060018060a01b03905116166bffffffffffffffffffffffff60a01b875416178655516002811015610a4f57855460ff60a01b191660a09190911b60ff60a01b1617855551600185015551600284015551600380840180546001600160a01b0319166001600160a01b03939093169290921790915590516004929092019190915533875260205260408620610a1d9190610a0c908690611501565b506040519586526020860190610f40565b60408401527f47248f1e27c64f978d0f17948a61c52002f75beb160ade5e66df0a10604b848660603394a46001805580f35b634e487b7160e01b8c52602160045260248cfd5b4282116109185760405162461bcd60e51b815260206004820152601760248201527f41756374696f6e20656e6454696d6520696e76616c69640000000000000000006044820152606490fd5b60405162461bcd60e51b815260206004820152601560248201527410dbdb9d1c9858dd081b9bdd08185c1c1c9bdd9959605a1b6044820152606490fd5b5060405163e985e9c560e01b8152336004820152306024820152602081604481875afa908115610b62578791610b23575b5061090a565b90506020813d602011610b5a575b81610b3e60209383610f95565b81010312610b5657518015158103610b565738610b1d565b8680fd5b3d9150610b31565b6040513d89823e3d90fd5b610b8f915060203d602011610b95575b610b878183610f95565b810190611310565b386108f7565b503d610b7d565b60405162461bcd60e51b815260206004820152600f60248201526e2737ba103a37b5b2b71037bbb732b960891b6044820152606490fd5b610bec915060203d602011610b9557610b878183610f95565b386108ba565b60405162461bcd60e51b815260206004820152601160248201527005072696365206d757374206265203e203607c1b6044820152606490fd5b8480fd5b503461018a578060031936011261018a57610c4861133b565b80546001600160a01b03198116825581906001600160a01b03167f8be0079c531659141344cd1fd0a4f28419497f9722a3daafe3b4186f6b6457e08280a380f35b503461018a57604036600319011261018a57610cc6610ca6610f25565b610cb560ff6004541615610fcf565b610cbd611393565b602435906110bb565b6001805580f35b503461018a578060031936011261018a57602060ff600454166040519015158152f35b503461018a578060031936011261018a576020600554604051908152f35b503461018a578060031936011261018a57610d2761133b565b8080808060018060a01b038154164790828215610d54575bf115610d485780f35b604051903d90823e3d90fd5b506108fc610d3f565b503461018a57602036600319011261018a576001600160a01b03610d7f610f25565b1680825260036020526040822054610d9681610fb7565b90610da46040519283610f95565b808252610db081610fb7565b602083019390601f1901368537845b828110610e0b5750505090604051928392602084019060208552518091526040840192915b818110610df2575050500390f35b8251845285945060209384019390920191600101610de4565b8186526003602052610e2081604088206113e9565b90549060031b1c8451821015610e4357600582901b850160200152600101610dbf565b634e487b7160e01b87526032600452602487fd5b503461018a57602036600319011261018a57600435801515809103610e8f57610e7e61133b565b60ff80196004541691161760045580f35b5080fd5b905034610e8f576040366003190112610e8f5760c0916040906001600160a01b03610ebc610f25565b16815260026020528181206024358252602052208054906001810154600282015490610f0f600460018060a01b036003860154169401549460018060a01b038116875260ff602088019160a01c16610f40565b60408501526060840152608083015260a0820152f35b600435906001600160a01b0382168203610f3b57565b600080fd5b906002821015610f4d5752565b634e487b7160e01b600052602160045260246000fd5b60c0810190811067ffffffffffffffff821117610f7f57604052565b634e487b7160e01b600052604160045260246000fd5b90601f8019910116810190811067ffffffffffffffff821117610f7f57604052565b67ffffffffffffffff8111610f7f5760051b60200190565b15610fd657565b60405162461bcd60e51b8152602060048201526011602482015270151c98591a5b99c81a5cc81c185d5cd959607a1b6044820152606490fd5b1561101657565b60405162461bcd60e51b815260206004820152600e60248201526d2737ba1030b71030bab1ba34b7b760911b6044820152606490fd5b1561105357565b60405162461bcd60e51b815260206004820152600a602482015269139bdd081b1a5cdd195960b21b6044820152606490fd5b8181029291811591840414171561109857565b634e487b7160e01b600052601160045260246000fd5b9190820391821161109857565b9060009160018060a01b031680835260026020526040832082845260205260408320805460ff8160a01c16600281101561032e5760016110fb911461100f565b600282015442106112d7576001600160a01b031661111a81151561104c565b8452600360205261112e8360408620611417565b508184526002602052604084208385526020526111666040852060046000918281558260018201558260028201558260038201550155565b6004810193845480156112a7578180808061118961271061067a60055488611085565b87546001600160a01b031682821561129e575bf11561077e578082911590811561126f575b505082546003909301805490936001600160a01b03918216925016843b1561126b57604051632142170760e11b81526001600160a01b0391821660048201529116602482015260448101859052818160648183885af1801561126057917ff5e261ad6037fbe80a9ee6c11f287400f3e4b5a077b2424264a7b1b25409e9149391602093611250575b50505494546040519081526001600160a01b0390951694a4565b8161125a91610f95565b38611236565b6040513d84823e3d90fd5b8280fd5b82809291819260018060a01b03835416908390611295575bf115610d48578038806111ae565b506108fc611287565b506108fc61119c565b509350507ff5e261ad6037fbe80a9ee6c11f287400f3e4b5a077b2424264a7b1b25409e9146020604051858152a4565b60405162461bcd60e51b8152602060048201526011602482015270105d58dd1a5bdb881b9bdd08195b991959607a1b6044820152606490fd5b90816020910312610f3b57516001600160a01b0381168103610f3b5790565b6002821015610f4d5752565b6000546001600160a01b0316330361134f57565b606460405162461bcd60e51b815260206004820152602060248201527f4f776e61626c653a2063616c6c6572206973206e6f7420746865206f776e65726044820152fd5b6002600154146113a4576002600155565b60405162461bcd60e51b815260206004820152601f60248201527f5265656e7472616e637947756172643a207265656e7472616e742063616c6c006044820152606490fd5b80548210156114015760005260206000200190600090565b634e487b7160e01b600052603260045260246000fd5b90600182019181600052826020526040600020548015156000146114f8576000198101818111611098578254600019810191908211611098578082036114aa575b5050508054801561149457600019019061147282826113e9565b8154906000199060031b1b191690555560005260205260006040812055600190565b634e487b7160e01b600052603160045260246000fd5b6114e16114ba6114ca93866113e9565b90549060031b1c928392866113e9565b819391549060031b91821b91600019901b19161790565b905560005283602052604060002055388080611458565b50505050600090565b600181019082600052816020526040600020541560001461155857805468010000000000000000811015610f7f576115436114ca8260018794018555846113e9565b90555491600052602052604060002055600190565b50505060009056fea264697066735822122064667312501f6ccb93a73d573a6a79ebc5c89fb9e2aa51d9c33704cfcc89704464736f6c634300081c0033",
  "linkReferences": {},
  "deployedLinkReferences": {}
}